{
  "contracts/Gas.sol": {
    "GasContract": {
      "abi": [
        {
          "inputs": [
            {
              "internalType": "address[]",
              "name": "_admins",
              "type": "address[]"
            },
            {
              "internalType": "uint256",
              "name": "_totalSupply",
              "type": "uint256"
            }
          ],
          "stateMutability": "nonpayable",
          "type": "constructor"
        },
        {
          "inputs": [],
          "name": "AmountIsZero",
          "type": "error"
        },
        {
          "inputs": [],
          "name": "AmountSmallerThan3",
          "type": "error"
        },
        {
          "inputs": [],
          "name": "IdIsZero",
          "type": "error"
        },
        {
          "inputs": [],
          "name": "IncorrectWhitelistTier",
          "type": "error"
        },
        {
          "inputs": [],
          "name": "InsufficientBalance",
          "type": "error"
        },
        {
          "inputs": [],
          "name": "IsZeroAddress",
          "type": "error"
        },
        {
          "inputs": [],
          "name": "OnlyAdminOrOwner",
          "type": "error"
        },
        {
          "inputs": [],
          "name": "OriginatorNotSender",
          "type": "error"
        },
        {
          "inputs": [],
          "name": "RecipientNameTooLong",
          "type": "error"
        },
        {
          "inputs": [],
          "name": "UserNotWhitelisted",
          "type": "error"
        },
        {
          "anonymous": false,
          "inputs": [
            {
              "indexed": false,
              "internalType": "address",
              "name": "userAddress",
              "type": "address"
            },
            {
              "indexed": false,
              "internalType": "uint256",
              "name": "tier",
              "type": "uint256"
            }
          ],
          "name": "AddedToWhitelist",
          "type": "event"
        },
        {
          "anonymous": false,
          "inputs": [
            {
              "indexed": true,
              "internalType": "address",
              "name": "previousOwner",
              "type": "address"
            },
            {
              "indexed": true,
              "internalType": "address",
              "name": "newOwner",
              "type": "address"
            }
          ],
          "name": "OwnershipTransferred",
          "type": "event"
        },
        {
          "anonymous": false,
          "inputs": [
            {
              "indexed": false,
              "internalType": "address",
              "name": "recipient",
              "type": "address"
            },
            {
              "indexed": false,
              "internalType": "uint256",
              "name": "amount",
              "type": "uint256"
            }
          ],
          "name": "Transfer",
          "type": "event"
        },
        {
          "anonymous": false,
          "inputs": [
            {
              "indexed": true,
              "internalType": "address",
              "name": "",
              "type": "address"
            },
            {
              "indexed": true,
              "internalType": "uint256",
              "name": "",
              "type": "uint256"
            }
          ],
          "name": "supplyChanged",
          "type": "event"
        },
        {
          "inputs": [
            {
              "internalType": "address",
              "name": "_userAddrs",
              "type": "address"
            },
            {
              "internalType": "uint256",
              "name": "_tier",
              "type": "uint256"
            }
          ],
          "name": "addToWhitelist",
          "outputs": [],
          "stateMutability": "nonpayable",
          "type": "function"
        },
        {
          "inputs": [
            {
              "internalType": "uint256",
              "name": "",
              "type": "uint256"
            }
          ],
          "name": "administrators",
          "outputs": [
            {
              "internalType": "address",
              "name": "",
              "type": "address"
            }
          ],
          "stateMutability": "view",
          "type": "function"
        },
        {
          "inputs": [
            {
              "internalType": "address",
              "name": "_user",
              "type": "address"
            }
          ],
          "name": "balanceOf",
          "outputs": [
            {
              "internalType": "uint256",
              "name": "balance_",
              "type": "uint256"
            }
          ],
          "stateMutability": "view",
          "type": "function"
        },
        {
          "inputs": [
            {
              "internalType": "address",
              "name": "",
              "type": "address"
            }
          ],
          "name": "balances",
          "outputs": [
            {
              "internalType": "uint256",
              "name": "",
              "type": "uint256"
            }
          ],
          "stateMutability": "view",
          "type": "function"
        },
        {
          "inputs": [
            {
              "internalType": "address",
              "name": "_user",
              "type": "address"
            }
          ],
          "name": "getPayments",
          "outputs": [
            {
              "components": [
                {
                  "internalType": "uint8",
                  "name": "paymentType",
                  "type": "uint8"
                },
                {
                  "internalType": "bool",
                  "name": "adminUpdated",
                  "type": "bool"
                },
                {
                  "internalType": "bytes8",
                  "name": "recipientName",
                  "type": "bytes8"
                },
                {
                  "internalType": "address",
                  "name": "recipient",
                  "type": "address"
                },
                {
                  "internalType": "uint256",
                  "name": "paymentID",
                  "type": "uint256"
                },
                {
                  "internalType": "uint256",
                  "name": "amount",
                  "type": "uint256"
                }
              ],
              "internalType": "struct GasContract.Payment[]",
              "name": "payments_",
              "type": "tuple[]"
            }
          ],
          "stateMutability": "view",
          "type": "function"
        },
        {
          "inputs": [],
          "name": "getTradingMode",
          "outputs": [
            {
              "internalType": "bool",
              "name": "mode_",
              "type": "bool"
            }
          ],
          "stateMutability": "pure",
          "type": "function"
        },
        {
          "inputs": [],
          "name": "owner",
          "outputs": [
            {
              "internalType": "address",
              "name": "",
              "type": "address"
            }
          ],
          "stateMutability": "view",
          "type": "function"
        },
        {
          "inputs": [
            {
              "internalType": "address",
              "name": "",
              "type": "address"
            },
            {
              "internalType": "uint256",
              "name": "",
              "type": "uint256"
            }
          ],
          "name": "payments",
          "outputs": [
            {
              "internalType": "uint8",
              "name": "paymentType",
              "type": "uint8"
            },
            {
              "internalType": "bool",
              "name": "adminUpdated",
              "type": "bool"
            },
            {
              "internalType": "bytes8",
              "name": "recipientName",
              "type": "bytes8"
            },
            {
              "internalType": "address",
              "name": "recipient",
              "type": "address"
            },
            {
              "internalType": "uint256",
              "name": "paymentID",
              "type": "uint256"
            },
            {
              "internalType": "uint256",
              "name": "amount",
              "type": "uint256"
            }
          ],
          "stateMutability": "view",
          "type": "function"
        },
        {
          "inputs": [],
          "name": "renounceOwnership",
          "outputs": [],
          "stateMutability": "nonpayable",
          "type": "function"
        },
        {
          "inputs": [],
          "name": "totalSupply",
          "outputs": [
            {
              "internalType": "uint256",
              "name": "",
              "type": "uint256"
            }
          ],
          "stateMutability": "view",
          "type": "function"
        },
        {
          "inputs": [
            {
              "internalType": "address",
              "name": "_recipient",
              "type": "address"
            },
            {
              "internalType": "uint256",
              "name": "_amount",
              "type": "uint256"
            },
            {
              "internalType": "string",
              "name": "_name",
              "type": "string"
            }
          ],
          "name": "transfer",
          "outputs": [
            {
              "internalType": "bool",
              "name": "status_",
              "type": "bool"
            }
          ],
          "stateMutability": "nonpayable",
          "type": "function"
        },
        {
          "inputs": [
            {
              "internalType": "address",
              "name": "newOwner",
              "type": "address"
            }
          ],
          "name": "transferOwnership",
          "outputs": [],
          "stateMutability": "nonpayable",
          "type": "function"
        },
        {
          "inputs": [
            {
              "internalType": "address",
              "name": "_user",
              "type": "address"
            },
            {
              "internalType": "uint256",
              "name": "_ID",
              "type": "uint256"
            },
            {
              "internalType": "uint256",
              "name": "_amount",
              "type": "uint256"
            },
            {
              "internalType": "uint8",
              "name": "_type",
              "type": "uint8"
            }
          ],
          "name": "updatePayment",
          "outputs": [],
          "stateMutability": "nonpayable",
          "type": "function"
        },
        {
          "inputs": [
            {
              "internalType": "address",
              "name": "",
              "type": "address"
            }
          ],
          "name": "whiteListStruct",
          "outputs": [
            {
              "internalType": "uint256",
              "name": "valueA",
              "type": "uint256"
            },
            {
              "internalType": "uint256",
              "name": "bigValue",
              "type": "uint256"
            },
            {
              "internalType": "uint256",
              "name": "valueB",
              "type": "uint256"
            }
          ],
          "stateMutability": "view",
          "type": "function"
        },
        {
          "inputs": [
            {
              "internalType": "address",
              "name": "_recipient",
              "type": "address"
            },
            {
              "internalType": "uint256",
              "name": "_amount",
              "type": "uint256"
            },
            {
              "components": [
                {
                  "internalType": "uint256",
                  "name": "valueA",
                  "type": "uint256"
                },
                {
                  "internalType": "uint256",
                  "name": "bigValue",
                  "type": "uint256"
                },
                {
                  "internalType": "uint256",
                  "name": "valueB",
                  "type": "uint256"
                }
              ],
              "internalType": "struct GasContract.ImportantStruct",
              "name": "_struct",
              "type": "tuple"
            }
          ],
          "name": "whiteTransfer",
          "outputs": [],
          "stateMutability": "nonpayable",
          "type": "function"
        },
        {
          "inputs": [
            {
              "internalType": "address",
              "name": "",
              "type": "address"
            }
          ],
          "name": "whitelist",
          "outputs": [
            {
              "internalType": "uint256",
              "name": "",
              "type": "uint256"
            }
          ],
          "stateMutability": "view",
          "type": "function"
        }
      ],
      "evm": {
        "bytecode": {
          "linkReferences": {},
          "object": "608060405260006001553480156200001657600080fd5b50604051620015e1380380620015e1833981016040819052620000399162000217565b6200004433620001aa565b600181905560005b6005811015620001a15760006001600160a01b03168382815181106200008257634e487b7160e01b600052603260045260246000fd5b60200260200101516001600160a01b03161462000198576000838281518110620000bc57634e487b7160e01b600052603260045260246000fd5b602002602001015190508060068360058110620000e957634e487b7160e01b600052603260045260246000fd5b0180546001600160a01b0319166001600160a01b0392831617905581166000818152600560205260409020805460ff191660011790553314156200016157336000908152600260205260408082208590555184916001600160a01b03841691600080516020620015c18339815191529190a362000196565b6001600160a01b03811660008181526002602052604080822082905551909190600080516020620015c1833981519152908390a35b505b6001016200004c565b50505062000309565b600080546001600160a01b038381166001600160a01b0319831681178455604051919092169283917f8be0079c531659141344cd1fd0a4f28419497f9722a3daafe3b4186f6b6457e09190a35050565b80516001600160a01b03811681146200021257600080fd5b919050565b600080604083850312156200022a578182fd5b82516001600160401b038082111562000241578384fd5b818501915085601f83011262000255578384fd5b81516020828211156200026c576200026c620002f3565b8160051b604051601f19603f83011681018181108682111715620002945762000294620002f3565b604052838152828101945085830182870184018b1015620002b3578889fd5b8896505b84871015620002e057620002cb81620001fa565b865260019690960195948301948301620002b7565b5097909101519698969750505050505050565b634e487b7160e01b600052604160045260246000fd5b6112a880620003196000396000f3fe608060405234801561001057600080fd5b50600436106101005760003560e01c806370a08231116100975780639b19251a116100665780639b19251a14610266578063ab63385c14610286578063d89d1510146102e2578063f2fde38b146102f557600080fd5b806370a0823114610209578063715018a6146102325780638da5cb5b1461023a5780639a9f83831461025f57600080fd5b806327e235e3116100d357806327e235e3146101695780634e86eb161461018957806356b8c7241461019c5780635de45813146101bf57600080fd5b806318160ddd146101055780631d6a171114610121578063214405fc1461014157806327df565a14610156575b600080fd5b61010e60015481565b6040519081526020015b60405180910390f35b61013461012f366004610fda565b610308565b604051610118919061119d565b61015461014f366004610ffb565b610403565b005b6101546101643660046110a6565b61051d565b61010e610177366004610fda565b60026020526000908152604090205481565b610154610197366004611139565b6106bc565b6101af6101aa366004611024565b610ad5565b6040519015158152602001610118565b6101ee6101cd366004610fda565b600b6020526000908152604090208054600182015460029092015490919083565b60408051938452602084019290925290820152606001610118565b61010e610217366004610fda565b6001600160a01b031660009081526002602052604090205490565b610154610da8565b6000546001600160a01b03165b6040516001600160a01b039091168152602001610118565b60016101af565b61010e610274366004610fda565b60046020526000908152604090205481565b610299610294366004610ffb565b610dbc565b6040805160ff909716875294151560208701526001600160c01b0319909316938501939093526001600160a01b03166060840152608083019190915260a082015260c001610118565b6102476102f0366004611185565b610e2b565b610154610303366004610fda565b610e4b565b60606001600160a01b03821661033157604051631326d6d560e01b815260040160405180910390fd5b6001600160a01b038216600090815260036020908152604080832080548251818502810185019093528083529193909284015b828210156103f85760008481526020908190206040805160c0808201835260038702909301805460ff808216845261010082041615158387015262010000810490941b6001600160c01b031916928201929092526a01000000000000000000009092046001600160a01b03166060830152600180820154608084015260029091015460a08301529083529092019101610364565b505050509050919050565b6000546001600160a01b03163314156104795760ff811015610432578160005260046020526040600020818155505b604080516001600160a01b0384168152602081018390527f62c1e066774519db9fe35767c15fc33df2f016675b7cc0c330ed185f286a2d5291015b60405180910390a15050565b3360009081526005602052604090205460ff16156104eb5760ff8110156104325760008281526004602090815260409182902083905581516001600160a01b03851681529081018390527f62c1e066774519db9fe35767c15fc33df2f016675b7cc0c330ed185f286a2d52910161046d565b6040517f61685c2b00000000000000000000000000000000000000000000000000000000815260040160405180910390fd5b336000818152600460205260409020546001811015610568576040517f2ba75b2500000000000000000000000000000000000000000000000000000000815260040160405180910390fd5b60038111156105a3576040517f9fdf115e00000000000000000000000000000000000000000000000000000000815260040160405180910390fd5b33600090815260026020526040902054848110156105d457604051631e9acf1760e31b815260040160405180910390fd5b6003851161060e576040517ff672dfca00000000000000000000000000000000000000000000000000000000815260040160405180910390fd5b33600090815260046020526040902054816106298782611245565b9050610635828261122d565b33600090815260026020526040808220929092556001600160a01b038a16815220549050610663878261122d565b905061066f8282611245565b6001600160a01b0390981660009081526002602081815260408084209b909b55338352600b8152918a90208851815591880151600183015596909801519790950196909655505050505050565b6000546001600160a01b03163314156108c65760018310156106f15760405163ee7efd5760e01b815260040160405180910390fd5b6001821015610713576040516310eb483f60e21b815260040160405180910390fd5b6001600160a01b03841661073a57604051631326d6d560e01b815260040160405180910390fd5b60005b6001600160a01b0385166000908152600360205260409020548110156108c0576001600160a01b038516600090815260036020526040902080548591908390811061079857634e487b7160e01b600052603260045260246000fd5b90600052602060002090600302016001015414156108b8576001600160a01b0385166000908152600360205260409020805460019190839081106107ec57634e487b7160e01b600052603260045260246000fd5b6000918252602080832060039283020180549415156101000261ff0019909516949094179093556001600160a01b03881682529091526040902080548391908390811061084957634e487b7160e01b600052603260045260246000fd5b60009182526020808320600392830201805460ff191660ff95909516949094179093556001600160a01b0388168252909152604090208054849190839081106108a257634e487b7160e01b600052603260045260246000fd5b9060005260206000209060030201600201819055505b60010161073d565b50610acf565b3360009081526005602052604090205460ff16156104eb5760018310156109005760405163ee7efd5760e01b815260040160405180910390fd5b6001821015610922576040516310eb483f60e21b815260040160405180910390fd5b6001600160a01b03841661094957604051631326d6d560e01b815260040160405180910390fd5b60005b6001600160a01b0385166000908152600360205260409020548110156108c0576001600160a01b03851660009081526003602052604090208054859190839081106109a757634e487b7160e01b600052603260045260246000fd5b9060005260206000209060030201600101541415610ac7576001600160a01b0385166000908152600360205260409020805460019190839081106109fb57634e487b7160e01b600052603260045260246000fd5b6000918252602080832060039283020180549415156101000261ff0019909516949094179093556001600160a01b038816825290915260409020805483919083908110610a5857634e487b7160e01b600052603260045260246000fd5b60009182526020808320600392830201805460ff191660ff95909516949094179093556001600160a01b038816825290915260409020805484919083908110610ab157634e487b7160e01b600052603260045260246000fd5b9060005260206000209060030201600201819055505b60010161094c565b50505050565b3360009081526002602052604081205484811015610b0657604051631e9acf1760e31b815260040160405180910390fd5b6008831115610b41576040517f4ebd961a00000000000000000000000000000000000000000000000000000000815260040160405180910390fd5b610b4b8582611245565b33600090815260026020526040808220929092556001600160a01b03881681529081208054879290610b7e90849061122d565b9091555050604080516001600160a01b0388168152602081018790527f69ca02dd4edd7bf0a4abb9ed3b7af3f14778db5d61921c7dc7cd545266326de2910160405180910390a13360009081526003602052604081205415610c3e573360009081526003602052604081208054610bf790600190611245565b81548110610c1557634e487b7160e01b600052603260045260246000fd5b9060005260206000209060030201905080600101546001610c36919061122d565b915050610c42565b5060015b6040805160c08101825260018152600060208083018290528351601f890182900482028101820185528881529193830191610c97918a908a9081908401838280828437600092019190915250610ee092505050565b6001600160c01b03191681526001600160a01b03808b1660208084019190915260408084019690965260609283018b905233600090815260038083528782208054600181810183559184529284902087519390920290910180549387015198870151958701519094166a0100000000000000000000027fffff0000000000000000000000000000000000000000ffffffffffffffffffff60c09690961c6201000002959095167fffff00000000000000000000000000000000000000000000000000000000ffff9815156101000261ffff1990941660ff9093169290921792909217969096169590951791909117815560808201518185015560a09091015160029091015550915050949350505050565b610db0610efc565b610dba6000610f56565b565b60036020528160005260406000208181548110610dd857600080fd5b600091825260209091206003909102018054600182015460029092015460ff8083169550610100830416935062010000820460c01b926a01000000000000000000009092046001600160a01b0316919086565b60068160058110610e3b57600080fd5b01546001600160a01b0316905081565b610e53610efc565b6001600160a01b038116610ed45760405162461bcd60e51b815260206004820152602660248201527f4f776e61626c653a206e6577206f776e657220697320746865207a65726f206160448201527f646472657373000000000000000000000000000000000000000000000000000060648201526084015b60405180910390fd5b610edd81610f56565b50565b6000815160001415610ef457506000919050565b506020015190565b6000546001600160a01b03163314610dba5760405162461bcd60e51b815260206004820181905260248201527f4f776e61626c653a2063616c6c6572206973206e6f7420746865206f776e65726044820152606401610ecb565b600080546001600160a01b038381167fffffffffffffffffffffffff0000000000000000000000000000000000000000831681178455604051919092169283917f8be0079c531659141344cd1fd0a4f28419497f9722a3daafe3b4186f6b6457e09190a35050565b80356001600160a01b0381168114610fd557600080fd5b919050565b600060208284031215610feb578081fd5b610ff482610fbe565b9392505050565b6000806040838503121561100d578081fd5b61101683610fbe565b946020939093013593505050565b60008060008060608587031215611039578182fd5b61104285610fbe565b935060208501359250604085013567ffffffffffffffff80821115611065578384fd5b818701915087601f830112611078578384fd5b813581811115611086578485fd5b886020828501011115611097578485fd5b95989497505060200194505050565b600080600083850360a08112156110bb578384fd5b6110c485610fbe565b9350602085013592506060603f19820112156110de578182fd5b506040516060810181811067ffffffffffffffff8211171561110e57634e487b7160e01b83526041600452602483fd5b8060405250604085013581526060850135602082015260808501356040820152809150509250925092565b6000806000806080858703121561114e578384fd5b61115785610fbe565b93506020850135925060408501359150606085013560ff8116811461117a578182fd5b939692955090935050565b600060208284031215611196578081fd5b5035919050565b602080825282518282018190526000919060409081850190868401855b82811015611220578151805160ff16855286810151151587860152858101516001600160c01b031916868601526060808201516001600160a01b0316908601526080808201519086015260a0908101519085015260c090930192908501906001016111ba565b5091979650505050505050565b600082198211156112405761124061125c565b500190565b6000828210156112575761125761125c565b500390565b634e487b7160e01b600052601160045260246000fdfea2646970667358221220bd240c5a87b1cb24a69a29a90fcbfa580dca7d67bca1d1423726ab291a04331a64736f6c63430008040033fbd610cf0373947747ba15effd5e459c81db984f8723671458c0e8624428ab04",
          "opcodes": "PUSH1 0x80 PUSH1 0x40 MSTORE PUSH1 0x0 PUSH1 0x1 SSTORE CALLVALUE DUP1 ISZERO PUSH3 0x16 JUMPI PUSH1 0x0 DUP1 REVERT JUMPDEST POP PUSH1 0x40 MLOAD PUSH3 0x15E1 CODESIZE SUB DUP1 PUSH3 0x15E1 DUP4 CODECOPY DUP2 ADD PUSH1 0x40 DUP2 SWAP1 MSTORE PUSH3 0x39 SWAP2 PUSH3 0x217 JUMP JUMPDEST PUSH3 0x44 CALLER PUSH3 0x1AA JUMP JUMPDEST PUSH1 0x1 DUP2 SWAP1 SSTORE PUSH1 0x0 JUMPDEST PUSH1 0x5 DUP2 LT ISZERO PUSH3 0x1A1 JUMPI PUSH1 0x0 PUSH1 0x1 PUSH1 0x1 PUSH1 0xA0 SHL SUB AND DUP4 DUP3 DUP2 MLOAD DUP2 LT PUSH3 0x82 JUMPI PUSH4 0x4E487B71 PUSH1 0xE0 SHL PUSH1 0x0 MSTORE PUSH1 0x32 PUSH1 0x4 MSTORE PUSH1 0x24 PUSH1 0x0 REVERT JUMPDEST PUSH1 0x20 MUL PUSH1 0x20 ADD ADD MLOAD PUSH1 0x1 PUSH1 0x1 PUSH1 0xA0 SHL SUB AND EQ PUSH3 0x198 JUMPI PUSH1 0x0 DUP4 DUP3 DUP2 MLOAD DUP2 LT PUSH3 0xBC JUMPI PUSH4 0x4E487B71 PUSH1 0xE0 SHL PUSH1 0x0 MSTORE PUSH1 0x32 PUSH1 0x4 MSTORE PUSH1 0x24 PUSH1 0x0 REVERT JUMPDEST PUSH1 0x20 MUL PUSH1 0x20 ADD ADD MLOAD SWAP1 POP DUP1 PUSH1 0x6 DUP4 PUSH1 0x5 DUP2 LT PUSH3 0xE9 JUMPI PUSH4 0x4E487B71 PUSH1 0xE0 SHL PUSH1 0x0 MSTORE PUSH1 0x32 PUSH1 0x4 MSTORE PUSH1 0x24 PUSH1 0x0 REVERT JUMPDEST ADD DUP1 SLOAD PUSH1 0x1 PUSH1 0x1 PUSH1 0xA0 SHL SUB NOT AND PUSH1 0x1 PUSH1 0x1 PUSH1 0xA0 SHL SUB SWAP3 DUP4 AND OR SWAP1 SSTORE DUP2 AND PUSH1 0x0 DUP2 DUP2 MSTORE PUSH1 0x5 PUSH1 0x20 MSTORE PUSH1 0x40 SWAP1 KECCAK256 DUP1 SLOAD PUSH1 0xFF NOT AND PUSH1 0x1 OR SWAP1 SSTORE CALLER EQ ISZERO PUSH3 0x161 JUMPI CALLER PUSH1 0x0 SWAP1 DUP2 MSTORE PUSH1 0x2 PUSH1 0x20 MSTORE PUSH1 0x40 DUP1 DUP3 KECCAK256 DUP6 SWAP1 SSTORE MLOAD DUP5 SWAP2 PUSH1 0x1 PUSH1 0x1 PUSH1 0xA0 SHL SUB DUP5 AND SWAP2 PUSH1 0x0 DUP1 MLOAD PUSH1 0x20 PUSH3 0x15C1 DUP4 CODECOPY DUP2 MLOAD SWAP2 MSTORE SWAP2 SWAP1 LOG3 PUSH3 0x196 JUMP JUMPDEST PUSH1 0x1 PUSH1 0x1 PUSH1 0xA0 SHL SUB DUP2 AND PUSH1 0x0 DUP2 DUP2 MSTORE PUSH1 0x2 PUSH1 0x20 MSTORE PUSH1 0x40 DUP1 DUP3 KECCAK256 DUP3 SWAP1 SSTORE MLOAD SWAP1 SWAP2 SWAP1 PUSH1 0x0 DUP1 MLOAD PUSH1 0x20 PUSH3 0x15C1 DUP4 CODECOPY DUP2 MLOAD SWAP2 MSTORE SWAP1 DUP4 SWAP1 LOG3 JUMPDEST POP JUMPDEST PUSH1 0x1 ADD PUSH3 0x4C JUMP JUMPDEST POP POP POP PUSH3 0x309 JUMP JUMPDEST PUSH1 0x0 DUP1 SLOAD PUSH1 0x1 PUSH1 0x1 PUSH1 0xA0 SHL SUB DUP4 DUP2 AND PUSH1 0x1 PUSH1 0x1 PUSH1 0xA0 SHL SUB NOT DUP4 AND DUP2 OR DUP5 SSTORE PUSH1 0x40 MLOAD SWAP2 SWAP1 SWAP3 AND SWAP3 DUP4 SWAP2 PUSH32 0x8BE0079C531659141344CD1FD0A4F28419497F9722A3DAAFE3B4186F6B6457E0 SWAP2 SWAP1 LOG3 POP POP JUMP JUMPDEST DUP1 MLOAD PUSH1 0x1 PUSH1 0x1 PUSH1 0xA0 SHL SUB DUP2 AND DUP2 EQ PUSH3 0x212 JUMPI PUSH1 0x0 DUP1 REVERT JUMPDEST SWAP2 SWAP1 POP JUMP JUMPDEST PUSH1 0x0 DUP1 PUSH1 0x40 DUP4 DUP6 SUB SLT ISZERO PUSH3 0x22A JUMPI DUP2 DUP3 REVERT JUMPDEST DUP3 MLOAD PUSH1 0x1 PUSH1 0x1 PUSH1 0x40 SHL SUB DUP1 DUP3 GT ISZERO PUSH3 0x241 JUMPI DUP4 DUP5 REVERT JUMPDEST DUP2 DUP6 ADD SWAP2 POP DUP6 PUSH1 0x1F DUP4 ADD SLT PUSH3 0x255 JUMPI DUP4 DUP5 REVERT JUMPDEST DUP2 MLOAD PUSH1 0x20 DUP3 DUP3 GT ISZERO PUSH3 0x26C JUMPI PUSH3 0x26C PUSH3 0x2F3 JUMP JUMPDEST DUP2 PUSH1 0x5 SHL PUSH1 0x40 MLOAD PUSH1 0x1F NOT PUSH1 0x3F DUP4 ADD AND DUP2 ADD DUP2 DUP2 LT DUP7 DUP3 GT OR ISZERO PUSH3 0x294 JUMPI PUSH3 0x294 PUSH3 0x2F3 JUMP JUMPDEST PUSH1 0x40 MSTORE DUP4 DUP2 MSTORE DUP3 DUP2 ADD SWAP5 POP DUP6 DUP4 ADD DUP3 DUP8 ADD DUP5 ADD DUP12 LT ISZERO PUSH3 0x2B3 JUMPI DUP9 DUP10 REVERT JUMPDEST DUP9 SWAP7 POP JUMPDEST DUP5 DUP8 LT ISZERO PUSH3 0x2E0 JUMPI PUSH3 0x2CB DUP2 PUSH3 0x1FA JUMP JUMPDEST DUP7 MSTORE PUSH1 0x1 SWAP7 SWAP1 SWAP7 ADD SWAP6 SWAP5 DUP4 ADD SWAP5 DUP4 ADD PUSH3 0x2B7 JUMP JUMPDEST POP SWAP8 SWAP1 SWAP2 ADD MLOAD SWAP7 SWAP9 SWAP7 SWAP8 POP POP POP POP POP POP POP JUMP JUMPDEST PUSH4 0x4E487B71 PUSH1 0xE0 SHL PUSH1 0x0 MSTORE PUSH1 0x41 PUSH1 0x4 MSTORE PUSH1 0x24 PUSH1 0x0 REVERT JUMPDEST PUSH2 0x12A8 DUP1 PUSH3 0x319 PUSH1 0x0 CODECOPY PUSH1 0x0 RETURN INVALID PUSH1 0x80 PUSH1 0x40 MSTORE CALLVALUE DUP1 ISZERO PUSH2 0x10 JUMPI PUSH1 0x0 DUP1 REVERT JUMPDEST POP PUSH1 0x4 CALLDATASIZE LT PUSH2 0x100 JUMPI PUSH1 0x0 CALLDATALOAD PUSH1 0xE0 SHR DUP1 PUSH4 0x70A08231 GT PUSH2 0x97 JUMPI DUP1 PUSH4 0x9B19251A GT PUSH2 0x66 JUMPI DUP1 PUSH4 0x9B19251A EQ PUSH2 0x266 JUMPI DUP1 PUSH4 0xAB63385C EQ PUSH2 0x286 JUMPI DUP1 PUSH4 0xD89D1510 EQ PUSH2 0x2E2 JUMPI DUP1 PUSH4 0xF2FDE38B EQ PUSH2 0x2F5 JUMPI PUSH1 0x0 DUP1 REVERT JUMPDEST DUP1 PUSH4 0x70A08231 EQ PUSH2 0x209 JUMPI DUP1 PUSH4 0x715018A6 EQ PUSH2 0x232 JUMPI DUP1 PUSH4 0x8DA5CB5B EQ PUSH2 0x23A JUMPI DUP1 PUSH4 0x9A9F8383 EQ PUSH2 0x25F JUMPI PUSH1 0x0 DUP1 REVERT JUMPDEST DUP1 PUSH4 0x27E235E3 GT PUSH2 0xD3 JUMPI DUP1 PUSH4 0x27E235E3 EQ PUSH2 0x169 JUMPI DUP1 PUSH4 0x4E86EB16 EQ PUSH2 0x189 JUMPI DUP1 PUSH4 0x56B8C724 EQ PUSH2 0x19C JUMPI DUP1 PUSH4 0x5DE45813 EQ PUSH2 0x1BF JUMPI PUSH1 0x0 DUP1 REVERT JUMPDEST DUP1 PUSH4 0x18160DDD EQ PUSH2 0x105 JUMPI DUP1 PUSH4 0x1D6A1711 EQ PUSH2 0x121 JUMPI DUP1 PUSH4 0x214405FC EQ PUSH2 0x141 JUMPI DUP1 PUSH4 0x27DF565A EQ PUSH2 0x156 JUMPI JUMPDEST PUSH1 0x0 DUP1 REVERT JUMPDEST PUSH2 0x10E PUSH1 0x1 SLOAD DUP2 JUMP JUMPDEST PUSH1 0x40 MLOAD SWAP1 DUP2 MSTORE PUSH1 0x20 ADD JUMPDEST PUSH1 0x40 MLOAD DUP1 SWAP2 SUB SWAP1 RETURN JUMPDEST PUSH2 0x134 PUSH2 0x12F CALLDATASIZE PUSH1 0x4 PUSH2 0xFDA JUMP JUMPDEST PUSH2 0x308 JUMP JUMPDEST PUSH1 0x40 MLOAD PUSH2 0x118 SWAP2 SWAP1 PUSH2 0x119D JUMP JUMPDEST PUSH2 0x154 PUSH2 0x14F CALLDATASIZE PUSH1 0x4 PUSH2 0xFFB JUMP JUMPDEST PUSH2 0x403 JUMP JUMPDEST STOP JUMPDEST PUSH2 0x154 PUSH2 0x164 CALLDATASIZE PUSH1 0x4 PUSH2 0x10A6 JUMP JUMPDEST PUSH2 0x51D JUMP JUMPDEST PUSH2 0x10E PUSH2 0x177 CALLDATASIZE PUSH1 0x4 PUSH2 0xFDA JUMP JUMPDEST PUSH1 0x2 PUSH1 0x20 MSTORE PUSH1 0x0 SWAP1 DUP2 MSTORE PUSH1 0x40 SWAP1 KECCAK256 SLOAD DUP2 JUMP JUMPDEST PUSH2 0x154 PUSH2 0x197 CALLDATASIZE PUSH1 0x4 PUSH2 0x1139 JUMP JUMPDEST PUSH2 0x6BC JUMP JUMPDEST PUSH2 0x1AF PUSH2 0x1AA CALLDATASIZE PUSH1 0x4 PUSH2 0x1024 JUMP JUMPDEST PUSH2 0xAD5 JUMP JUMPDEST PUSH1 0x40 MLOAD SWAP1 ISZERO ISZERO DUP2 MSTORE PUSH1 0x20 ADD PUSH2 0x118 JUMP JUMPDEST PUSH2 0x1EE PUSH2 0x1CD CALLDATASIZE PUSH1 0x4 PUSH2 0xFDA JUMP JUMPDEST PUSH1 0xB PUSH1 0x20 MSTORE PUSH1 0x0 SWAP1 DUP2 MSTORE PUSH1 0x40 SWAP1 KECCAK256 DUP1 SLOAD PUSH1 0x1 DUP3 ADD SLOAD PUSH1 0x2 SWAP1 SWAP3 ADD SLOAD SWAP1 SWAP2 SWAP1 DUP4 JUMP JUMPDEST PUSH1 0x40 DUP1 MLOAD SWAP4 DUP5 MSTORE PUSH1 0x20 DUP5 ADD SWAP3 SWAP1 SWAP3 MSTORE SWAP1 DUP3 ADD MSTORE PUSH1 0x60 ADD PUSH2 0x118 JUMP JUMPDEST PUSH2 0x10E PUSH2 0x217 CALLDATASIZE PUSH1 0x4 PUSH2 0xFDA JUMP JUMPDEST PUSH1 0x1 PUSH1 0x1 PUSH1 0xA0 SHL SUB AND PUSH1 0x0 SWAP1 DUP2 MSTORE PUSH1 0x2 PUSH1 0x20 MSTORE PUSH1 0x40 SWAP1 KECCAK256 SLOAD SWAP1 JUMP JUMPDEST PUSH2 0x154 PUSH2 0xDA8 JUMP JUMPDEST PUSH1 0x0 SLOAD PUSH1 0x1 PUSH1 0x1 PUSH1 0xA0 SHL SUB AND JUMPDEST PUSH1 0x40 MLOAD PUSH1 0x1 PUSH1 0x1 PUSH1 0xA0 SHL SUB SWAP1 SWAP2 AND DUP2 MSTORE PUSH1 0x20 ADD PUSH2 0x118 JUMP JUMPDEST PUSH1 0x1 PUSH2 0x1AF JUMP JUMPDEST PUSH2 0x10E PUSH2 0x274 CALLDATASIZE PUSH1 0x4 PUSH2 0xFDA JUMP JUMPDEST PUSH1 0x4 PUSH1 0x20 MSTORE PUSH1 0x0 SWAP1 DUP2 MSTORE PUSH1 0x40 SWAP1 KECCAK256 SLOAD DUP2 JUMP JUMPDEST PUSH2 0x299 PUSH2 0x294 CALLDATASIZE PUSH1 0x4 PUSH2 0xFFB JUMP JUMPDEST PUSH2 0xDBC JUMP JUMPDEST PUSH1 0x40 DUP1 MLOAD PUSH1 0xFF SWAP1 SWAP8 AND DUP8 MSTORE SWAP5 ISZERO ISZERO PUSH1 0x20 DUP8 ADD MSTORE PUSH1 0x1 PUSH1 0x1 PUSH1 0xC0 SHL SUB NOT SWAP1 SWAP4 AND SWAP4 DUP6 ADD SWAP4 SWAP1 SWAP4 MSTORE PUSH1 0x1 PUSH1 0x1 PUSH1 0xA0 SHL SUB AND PUSH1 0x60 DUP5 ADD MSTORE PUSH1 0x80 DUP4 ADD SWAP2 SWAP1 SWAP2 MSTORE PUSH1 0xA0 DUP3 ADD MSTORE PUSH1 0xC0 ADD PUSH2 0x118 JUMP JUMPDEST PUSH2 0x247 PUSH2 0x2F0 CALLDATASIZE PUSH1 0x4 PUSH2 0x1185 JUMP JUMPDEST PUSH2 0xE2B JUMP JUMPDEST PUSH2 0x154 PUSH2 0x303 CALLDATASIZE PUSH1 0x4 PUSH2 0xFDA JUMP JUMPDEST PUSH2 0xE4B JUMP JUMPDEST PUSH1 0x60 PUSH1 0x1 PUSH1 0x1 PUSH1 0xA0 SHL SUB DUP3 AND PUSH2 0x331 JUMPI PUSH1 0x40 MLOAD PUSH4 0x1326D6D5 PUSH1 0xE0 SHL DUP2 MSTORE PUSH1 0x4 ADD PUSH1 0x40 MLOAD DUP1 SWAP2 SUB SWAP1 REVERT JUMPDEST PUSH1 0x1 PUSH1 0x1 PUSH1 0xA0 SHL SUB DUP3 AND PUSH1 0x0 SWAP1 DUP2 MSTORE PUSH1 0x3 PUSH1 0x20 SWAP1 DUP2 MSTORE PUSH1 0x40 DUP1 DUP4 KECCAK256 DUP1 SLOAD DUP3 MLOAD DUP2 DUP6 MUL DUP2 ADD DUP6 ADD SWAP1 SWAP4 MSTORE DUP1 DUP4 MSTORE SWAP2 SWAP4 SWAP1 SWAP3 DUP5 ADD JUMPDEST DUP3 DUP3 LT ISZERO PUSH2 0x3F8 JUMPI PUSH1 0x0 DUP5 DUP2 MSTORE PUSH1 0x20 SWAP1 DUP2 SWAP1 KECCAK256 PUSH1 0x40 DUP1 MLOAD PUSH1 0xC0 DUP1 DUP3 ADD DUP4 MSTORE PUSH1 0x3 DUP8 MUL SWAP1 SWAP4 ADD DUP1 SLOAD PUSH1 0xFF DUP1 DUP3 AND DUP5 MSTORE PUSH2 0x100 DUP3 DIV AND ISZERO ISZERO DUP4 DUP8 ADD MSTORE PUSH3 0x10000 DUP2 DIV SWAP1 SWAP5 SHL PUSH1 0x1 PUSH1 0x1 PUSH1 0xC0 SHL SUB NOT AND SWAP3 DUP3 ADD SWAP3 SWAP1 SWAP3 MSTORE PUSH11 0x100000000000000000000 SWAP1 SWAP3 DIV PUSH1 0x1 PUSH1 0x1 PUSH1 0xA0 SHL SUB AND PUSH1 0x60 DUP4 ADD MSTORE PUSH1 0x1 DUP1 DUP3 ADD SLOAD PUSH1 0x80 DUP5 ADD MSTORE PUSH1 0x2 SWAP1 SWAP2 ADD SLOAD PUSH1 0xA0 DUP4 ADD MSTORE SWAP1 DUP4 MSTORE SWAP1 SWAP3 ADD SWAP2 ADD PUSH2 0x364 JUMP JUMPDEST POP POP POP POP SWAP1 POP SWAP2 SWAP1 POP JUMP JUMPDEST PUSH1 0x0 SLOAD PUSH1 0x1 PUSH1 0x1 PUSH1 0xA0 SHL SUB AND CALLER EQ ISZERO PUSH2 0x479 JUMPI PUSH1 0xFF DUP2 LT ISZERO PUSH2 0x432 JUMPI DUP2 PUSH1 0x0 MSTORE PUSH1 0x4 PUSH1 0x20 MSTORE PUSH1 0x40 PUSH1 0x0 KECCAK256 DUP2 DUP2 SSTORE POP JUMPDEST PUSH1 0x40 DUP1 MLOAD PUSH1 0x1 PUSH1 0x1 PUSH1 0xA0 SHL SUB DUP5 AND DUP2 MSTORE PUSH1 0x20 DUP2 ADD DUP4 SWAP1 MSTORE PUSH32 0x62C1E066774519DB9FE35767C15FC33DF2F016675B7CC0C330ED185F286A2D52 SWAP2 ADD JUMPDEST PUSH1 0x40 MLOAD DUP1 SWAP2 SUB SWAP1 LOG1 POP POP JUMP JUMPDEST CALLER PUSH1 0x0 SWAP1 DUP2 MSTORE PUSH1 0x5 PUSH1 0x20 MSTORE PUSH1 0x40 SWAP1 KECCAK256 SLOAD PUSH1 0xFF AND ISZERO PUSH2 0x4EB JUMPI PUSH1 0xFF DUP2 LT ISZERO PUSH2 0x432 JUMPI PUSH1 0x0 DUP3 DUP2 MSTORE PUSH1 0x4 PUSH1 0x20 SWAP1 DUP2 MSTORE PUSH1 0x40 SWAP2 DUP3 SWAP1 KECCAK256 DUP4 SWAP1 SSTORE DUP2 MLOAD PUSH1 0x1 PUSH1 0x1 PUSH1 0xA0 SHL SUB DUP6 AND DUP2 MSTORE SWAP1 DUP2 ADD DUP4 SWAP1 MSTORE PUSH32 0x62C1E066774519DB9FE35767C15FC33DF2F016675B7CC0C330ED185F286A2D52 SWAP2 ADD PUSH2 0x46D JUMP JUMPDEST PUSH1 0x40 MLOAD PUSH32 0x61685C2B00000000000000000000000000000000000000000000000000000000 DUP2 MSTORE PUSH1 0x4 ADD PUSH1 0x40 MLOAD DUP1 SWAP2 SUB SWAP1 REVERT JUMPDEST CALLER PUSH1 0x0 DUP2 DUP2 MSTORE PUSH1 0x4 PUSH1 0x20 MSTORE PUSH1 0x40 SWAP1 KECCAK256 SLOAD PUSH1 0x1 DUP2 LT ISZERO PUSH2 0x568 JUMPI PUSH1 0x40 MLOAD PUSH32 0x2BA75B2500000000000000000000000000000000000000000000000000000000 DUP2 MSTORE PUSH1 0x4 ADD PUSH1 0x40 MLOAD DUP1 SWAP2 SUB SWAP1 REVERT JUMPDEST PUSH1 0x3 DUP2 GT ISZERO PUSH2 0x5A3 JUMPI PUSH1 0x40 MLOAD PUSH32 0x9FDF115E00000000000000000000000000000000000000000000000000000000 DUP2 MSTORE PUSH1 0x4 ADD PUSH1 0x40 MLOAD DUP1 SWAP2 SUB SWAP1 REVERT JUMPDEST CALLER PUSH1 0x0 SWAP1 DUP2 MSTORE PUSH1 0x2 PUSH1 0x20 MSTORE PUSH1 0x40 SWAP1 KECCAK256 SLOAD DUP5 DUP2 LT ISZERO PUSH2 0x5D4 JUMPI PUSH1 0x40 MLOAD PUSH4 0x1E9ACF17 PUSH1 0xE3 SHL DUP2 MSTORE PUSH1 0x4 ADD PUSH1 0x40 MLOAD DUP1 SWAP2 SUB SWAP1 REVERT JUMPDEST PUSH1 0x3 DUP6 GT PUSH2 0x60E JUMPI PUSH1 0x40 MLOAD PUSH32 0xF672DFCA00000000000000000000000000000000000000000000000000000000 DUP2 MSTORE PUSH1 0x4 ADD PUSH1 0x40 MLOAD DUP1 SWAP2 SUB SWAP1 REVERT JUMPDEST CALLER PUSH1 0x0 SWAP1 DUP2 MSTORE PUSH1 0x4 PUSH1 0x20 MSTORE PUSH1 0x40 SWAP1 KECCAK256 SLOAD DUP2 PUSH2 0x629 DUP8 DUP3 PUSH2 0x1245 JUMP JUMPDEST SWAP1 POP PUSH2 0x635 DUP3 DUP3 PUSH2 0x122D JUMP JUMPDEST CALLER PUSH1 0x0 SWAP1 DUP2 MSTORE PUSH1 0x2 PUSH1 0x20 MSTORE PUSH1 0x40 DUP1 DUP3 KECCAK256 SWAP3 SWAP1 SWAP3 SSTORE PUSH1 0x1 PUSH1 0x1 PUSH1 0xA0 SHL SUB DUP11 AND DUP2 MSTORE KECCAK256 SLOAD SWAP1 POP PUSH2 0x663 DUP8 DUP3 PUSH2 0x122D JUMP JUMPDEST SWAP1 POP PUSH2 0x66F DUP3 DUP3 PUSH2 0x1245 JUMP JUMPDEST PUSH1 0x1 PUSH1 0x1 PUSH1 0xA0 SHL SUB SWAP1 SWAP9 AND PUSH1 0x0 SWAP1 DUP2 MSTORE PUSH1 0x2 PUSH1 0x20 DUP2 DUP2 MSTORE PUSH1 0x40 DUP1 DUP5 KECCAK256 SWAP12 SWAP1 SWAP12 SSTORE CALLER DUP4 MSTORE PUSH1 0xB DUP2 MSTORE SWAP2 DUP11 SWAP1 KECCAK256 DUP9 MLOAD DUP2 SSTORE SWAP2 DUP9 ADD MLOAD PUSH1 0x1 DUP4 ADD SSTORE SWAP7 SWAP1 SWAP9 ADD MLOAD SWAP8 SWAP1 SWAP6 ADD SWAP7 SWAP1 SWAP7 SSTORE POP POP POP POP POP POP JUMP JUMPDEST PUSH1 0x0 SLOAD PUSH1 0x1 PUSH1 0x1 PUSH1 0xA0 SHL SUB AND CALLER EQ ISZERO PUSH2 0x8C6 JUMPI PUSH1 0x1 DUP4 LT ISZERO PUSH2 0x6F1 JUMPI PUSH1 0x40 MLOAD PUSH4 0xEE7EFD57 PUSH1 0xE0 SHL DUP2 MSTORE PUSH1 0x4 ADD PUSH1 0x40 MLOAD DUP1 SWAP2 SUB SWAP1 REVERT JUMPDEST PUSH1 0x1 DUP3 LT ISZERO PUSH2 0x713 JUMPI PUSH1 0x40 MLOAD PUSH4 0x10EB483F PUSH1 0xE2 SHL DUP2 MSTORE PUSH1 0x4 ADD PUSH1 0x40 MLOAD DUP1 SWAP2 SUB SWAP1 REVERT JUMPDEST PUSH1 0x1 PUSH1 0x1 PUSH1 0xA0 SHL SUB DUP5 AND PUSH2 0x73A JUMPI PUSH1 0x40 MLOAD PUSH4 0x1326D6D5 PUSH1 0xE0 SHL DUP2 MSTORE PUSH1 0x4 ADD PUSH1 0x40 MLOAD DUP1 SWAP2 SUB SWAP1 REVERT JUMPDEST PUSH1 0x0 JUMPDEST PUSH1 0x1 PUSH1 0x1 PUSH1 0xA0 SHL SUB DUP6 AND PUSH1 0x0 SWAP1 DUP2 MSTORE PUSH1 0x3 PUSH1 0x20 MSTORE PUSH1 0x40 SWAP1 KECCAK256 SLOAD DUP2 LT ISZERO PUSH2 0x8C0 JUMPI PUSH1 0x1 PUSH1 0x1 PUSH1 0xA0 SHL SUB DUP6 AND PUSH1 0x0 SWAP1 DUP2 MSTORE PUSH1 0x3 PUSH1 0x20 MSTORE PUSH1 0x40 SWAP1 KECCAK256 DUP1 SLOAD DUP6 SWAP2 SWAP1 DUP4 SWAP1 DUP2 LT PUSH2 0x798 JUMPI PUSH4 0x4E487B71 PUSH1 0xE0 SHL PUSH1 0x0 MSTORE PUSH1 0x32 PUSH1 0x4 MSTORE PUSH1 0x24 PUSH1 0x0 REVERT JUMPDEST SWAP1 PUSH1 0x0 MSTORE PUSH1 0x20 PUSH1 0x0 KECCAK256 SWAP1 PUSH1 0x3 MUL ADD PUSH1 0x1 ADD SLOAD EQ ISZERO PUSH2 0x8B8 JUMPI PUSH1 0x1 PUSH1 0x1 PUSH1 0xA0 SHL SUB DUP6 AND PUSH1 0x0 SWAP1 DUP2 MSTORE PUSH1 0x3 PUSH1 0x20 MSTORE PUSH1 0x40 SWAP1 KECCAK256 DUP1 SLOAD PUSH1 0x1 SWAP2 SWAP1 DUP4 SWAP1 DUP2 LT PUSH2 0x7EC JUMPI PUSH4 0x4E487B71 PUSH1 0xE0 SHL PUSH1 0x0 MSTORE PUSH1 0x32 PUSH1 0x4 MSTORE PUSH1 0x24 PUSH1 0x0 REVERT JUMPDEST PUSH1 0x0 SWAP2 DUP3 MSTORE PUSH1 0x20 DUP1 DUP4 KECCAK256 PUSH1 0x3 SWAP3 DUP4 MUL ADD DUP1 SLOAD SWAP5 ISZERO ISZERO PUSH2 0x100 MUL PUSH2 0xFF00 NOT SWAP1 SWAP6 AND SWAP5 SWAP1 SWAP5 OR SWAP1 SWAP4 SSTORE PUSH1 0x1 PUSH1 0x1 PUSH1 0xA0 SHL SUB DUP9 AND DUP3 MSTORE SWAP1 SWAP2 MSTORE PUSH1 0x40 SWAP1 KECCAK256 DUP1 SLOAD DUP4 SWAP2 SWAP1 DUP4 SWAP1 DUP2 LT PUSH2 0x849 JUMPI PUSH4 0x4E487B71 PUSH1 0xE0 SHL PUSH1 0x0 MSTORE PUSH1 0x32 PUSH1 0x4 MSTORE PUSH1 0x24 PUSH1 0x0 REVERT JUMPDEST PUSH1 0x0 SWAP2 DUP3 MSTORE PUSH1 0x20 DUP1 DUP4 KECCAK256 PUSH1 0x3 SWAP3 DUP4 MUL ADD DUP1 SLOAD PUSH1 0xFF NOT AND PUSH1 0xFF SWAP6 SWAP1 SWAP6 AND SWAP5 SWAP1 SWAP5 OR SWAP1 SWAP4 SSTORE PUSH1 0x1 PUSH1 0x1 PUSH1 0xA0 SHL SUB DUP9 AND DUP3 MSTORE SWAP1 SWAP2 MSTORE PUSH1 0x40 SWAP1 KECCAK256 DUP1 SLOAD DUP5 SWAP2 SWAP1 DUP4 SWAP1 DUP2 LT PUSH2 0x8A2 JUMPI PUSH4 0x4E487B71 PUSH1 0xE0 SHL PUSH1 0x0 MSTORE PUSH1 0x32 PUSH1 0x4 MSTORE PUSH1 0x24 PUSH1 0x0 REVERT JUMPDEST SWAP1 PUSH1 0x0 MSTORE PUSH1 0x20 PUSH1 0x0 KECCAK256 SWAP1 PUSH1 0x3 MUL ADD PUSH1 0x2 ADD DUP2 SWAP1 SSTORE POP JUMPDEST PUSH1 0x1 ADD PUSH2 0x73D JUMP JUMPDEST POP PUSH2 0xACF JUMP JUMPDEST CALLER PUSH1 0x0 SWAP1 DUP2 MSTORE PUSH1 0x5 PUSH1 0x20 MSTORE PUSH1 0x40 SWAP1 KECCAK256 SLOAD PUSH1 0xFF AND ISZERO PUSH2 0x4EB JUMPI PUSH1 0x1 DUP4 LT ISZERO PUSH2 0x900 JUMPI PUSH1 0x40 MLOAD PUSH4 0xEE7EFD57 PUSH1 0xE0 SHL DUP2 MSTORE PUSH1 0x4 ADD PUSH1 0x40 MLOAD DUP1 SWAP2 SUB SWAP1 REVERT JUMPDEST PUSH1 0x1 DUP3 LT ISZERO PUSH2 0x922 JUMPI PUSH1 0x40 MLOAD PUSH4 0x10EB483F PUSH1 0xE2 SHL DUP2 MSTORE PUSH1 0x4 ADD PUSH1 0x40 MLOAD DUP1 SWAP2 SUB SWAP1 REVERT JUMPDEST PUSH1 0x1 PUSH1 0x1 PUSH1 0xA0 SHL SUB DUP5 AND PUSH2 0x949 JUMPI PUSH1 0x40 MLOAD PUSH4 0x1326D6D5 PUSH1 0xE0 SHL DUP2 MSTORE PUSH1 0x4 ADD PUSH1 0x40 MLOAD DUP1 SWAP2 SUB SWAP1 REVERT JUMPDEST PUSH1 0x0 JUMPDEST PUSH1 0x1 PUSH1 0x1 PUSH1 0xA0 SHL SUB DUP6 AND PUSH1 0x0 SWAP1 DUP2 MSTORE PUSH1 0x3 PUSH1 0x20 MSTORE PUSH1 0x40 SWAP1 KECCAK256 SLOAD DUP2 LT ISZERO PUSH2 0x8C0 JUMPI PUSH1 0x1 PUSH1 0x1 PUSH1 0xA0 SHL SUB DUP6 AND PUSH1 0x0 SWAP1 DUP2 MSTORE PUSH1 0x3 PUSH1 0x20 MSTORE PUSH1 0x40 SWAP1 KECCAK256 DUP1 SLOAD DUP6 SWAP2 SWAP1 DUP4 SWAP1 DUP2 LT PUSH2 0x9A7 JUMPI PUSH4 0x4E487B71 PUSH1 0xE0 SHL PUSH1 0x0 MSTORE PUSH1 0x32 PUSH1 0x4 MSTORE PUSH1 0x24 PUSH1 0x0 REVERT JUMPDEST SWAP1 PUSH1 0x0 MSTORE PUSH1 0x20 PUSH1 0x0 KECCAK256 SWAP1 PUSH1 0x3 MUL ADD PUSH1 0x1 ADD SLOAD EQ ISZERO PUSH2 0xAC7 JUMPI PUSH1 0x1 PUSH1 0x1 PUSH1 0xA0 SHL SUB DUP6 AND PUSH1 0x0 SWAP1 DUP2 MSTORE PUSH1 0x3 PUSH1 0x20 MSTORE PUSH1 0x40 SWAP1 KECCAK256 DUP1 SLOAD PUSH1 0x1 SWAP2 SWAP1 DUP4 SWAP1 DUP2 LT PUSH2 0x9FB JUMPI PUSH4 0x4E487B71 PUSH1 0xE0 SHL PUSH1 0x0 MSTORE PUSH1 0x32 PUSH1 0x4 MSTORE PUSH1 0x24 PUSH1 0x0 REVERT JUMPDEST PUSH1 0x0 SWAP2 DUP3 MSTORE PUSH1 0x20 DUP1 DUP4 KECCAK256 PUSH1 0x3 SWAP3 DUP4 MUL ADD DUP1 SLOAD SWAP5 ISZERO ISZERO PUSH2 0x100 MUL PUSH2 0xFF00 NOT SWAP1 SWAP6 AND SWAP5 SWAP1 SWAP5 OR SWAP1 SWAP4 SSTORE PUSH1 0x1 PUSH1 0x1 PUSH1 0xA0 SHL SUB DUP9 AND DUP3 MSTORE SWAP1 SWAP2 MSTORE PUSH1 0x40 SWAP1 KECCAK256 DUP1 SLOAD DUP4 SWAP2 SWAP1 DUP4 SWAP1 DUP2 LT PUSH2 0xA58 JUMPI PUSH4 0x4E487B71 PUSH1 0xE0 SHL PUSH1 0x0 MSTORE PUSH1 0x32 PUSH1 0x4 MSTORE PUSH1 0x24 PUSH1 0x0 REVERT JUMPDEST PUSH1 0x0 SWAP2 DUP3 MSTORE PUSH1 0x20 DUP1 DUP4 KECCAK256 PUSH1 0x3 SWAP3 DUP4 MUL ADD DUP1 SLOAD PUSH1 0xFF NOT AND PUSH1 0xFF SWAP6 SWAP1 SWAP6 AND SWAP5 SWAP1 SWAP5 OR SWAP1 SWAP4 SSTORE PUSH1 0x1 PUSH1 0x1 PUSH1 0xA0 SHL SUB DUP9 AND DUP3 MSTORE SWAP1 SWAP2 MSTORE PUSH1 0x40 SWAP1 KECCAK256 DUP1 SLOAD DUP5 SWAP2 SWAP1 DUP4 SWAP1 DUP2 LT PUSH2 0xAB1 JUMPI PUSH4 0x4E487B71 PUSH1 0xE0 SHL PUSH1 0x0 MSTORE PUSH1 0x32 PUSH1 0x4 MSTORE PUSH1 0x24 PUSH1 0x0 REVERT JUMPDEST SWAP1 PUSH1 0x0 MSTORE PUSH1 0x20 PUSH1 0x0 KECCAK256 SWAP1 PUSH1 0x3 MUL ADD PUSH1 0x2 ADD DUP2 SWAP1 SSTORE POP JUMPDEST PUSH1 0x1 ADD PUSH2 0x94C JUMP JUMPDEST POP POP POP POP JUMP JUMPDEST CALLER PUSH1 0x0 SWAP1 DUP2 MSTORE PUSH1 0x2 PUSH1 0x20 MSTORE PUSH1 0x40 DUP2 KECCAK256 SLOAD DUP5 DUP2 LT ISZERO PUSH2 0xB06 JUMPI PUSH1 0x40 MLOAD PUSH4 0x1E9ACF17 PUSH1 0xE3 SHL DUP2 MSTORE PUSH1 0x4 ADD PUSH1 0x40 MLOAD DUP1 SWAP2 SUB SWAP1 REVERT JUMPDEST PUSH1 0x8 DUP4 GT ISZERO PUSH2 0xB41 JUMPI PUSH1 0x40 MLOAD PUSH32 0x4EBD961A00000000000000000000000000000000000000000000000000000000 DUP2 MSTORE PUSH1 0x4 ADD PUSH1 0x40 MLOAD DUP1 SWAP2 SUB SWAP1 REVERT JUMPDEST PUSH2 0xB4B DUP6 DUP3 PUSH2 0x1245 JUMP JUMPDEST CALLER PUSH1 0x0 SWAP1 DUP2 MSTORE PUSH1 0x2 PUSH1 0x20 MSTORE PUSH1 0x40 DUP1 DUP3 KECCAK256 SWAP3 SWAP1 SWAP3 SSTORE PUSH1 0x1 PUSH1 0x1 PUSH1 0xA0 SHL SUB DUP9 AND DUP2 MSTORE SWAP1 DUP2 KECCAK256 DUP1 SLOAD DUP8 SWAP3 SWAP1 PUSH2 0xB7E SWAP1 DUP5 SWAP1 PUSH2 0x122D JUMP JUMPDEST SWAP1 SWAP2 SSTORE POP POP PUSH1 0x40 DUP1 MLOAD PUSH1 0x1 PUSH1 0x1 PUSH1 0xA0 SHL SUB DUP9 AND DUP2 MSTORE PUSH1 0x20 DUP2 ADD DUP8 SWAP1 MSTORE PUSH32 0x69CA02DD4EDD7BF0A4ABB9ED3B7AF3F14778DB5D61921C7DC7CD545266326DE2 SWAP2 ADD PUSH1 0x40 MLOAD DUP1 SWAP2 SUB SWAP1 LOG1 CALLER PUSH1 0x0 SWAP1 DUP2 MSTORE PUSH1 0x3 PUSH1 0x20 MSTORE PUSH1 0x40 DUP2 KECCAK256 SLOAD ISZERO PUSH2 0xC3E JUMPI CALLER PUSH1 0x0 SWAP1 DUP2 MSTORE PUSH1 0x3 PUSH1 0x20 MSTORE PUSH1 0x40 DUP2 KECCAK256 DUP1 SLOAD PUSH2 0xBF7 SWAP1 PUSH1 0x1 SWAP1 PUSH2 0x1245 JUMP JUMPDEST DUP2 SLOAD DUP2 LT PUSH2 0xC15 JUMPI PUSH4 0x4E487B71 PUSH1 0xE0 SHL PUSH1 0x0 MSTORE PUSH1 0x32 PUSH1 0x4 MSTORE PUSH1 0x24 PUSH1 0x0 REVERT JUMPDEST SWAP1 PUSH1 0x0 MSTORE PUSH1 0x20 PUSH1 0x0 KECCAK256 SWAP1 PUSH1 0x3 MUL ADD SWAP1 POP DUP1 PUSH1 0x1 ADD SLOAD PUSH1 0x1 PUSH2 0xC36 SWAP2 SWAP1 PUSH2 0x122D JUMP JUMPDEST SWAP2 POP POP PUSH2 0xC42 JUMP JUMPDEST POP PUSH1 0x1 JUMPDEST PUSH1 0x40 DUP1 MLOAD PUSH1 0xC0 DUP2 ADD DUP3 MSTORE PUSH1 0x1 DUP2 MSTORE PUSH1 0x0 PUSH1 0x20 DUP1 DUP4 ADD DUP3 SWAP1 MSTORE DUP4 MLOAD PUSH1 0x1F DUP10 ADD DUP3 SWAP1 DIV DUP3 MUL DUP2 ADD DUP3 ADD DUP6 MSTORE DUP9 DUP2 MSTORE SWAP2 SWAP4 DUP4 ADD SWAP2 PUSH2 0xC97 SWAP2 DUP11 SWAP1 DUP11 SWAP1 DUP2 SWAP1 DUP5 ADD DUP4 DUP3 DUP1 DUP3 DUP5 CALLDATACOPY PUSH1 0x0 SWAP3 ADD SWAP2 SWAP1 SWAP2 MSTORE POP PUSH2 0xEE0 SWAP3 POP POP POP JUMP JUMPDEST PUSH1 0x1 PUSH1 0x1 PUSH1 0xC0 SHL SUB NOT AND DUP2 MSTORE PUSH1 0x1 PUSH1 0x1 PUSH1 0xA0 SHL SUB DUP1 DUP12 AND PUSH1 0x20 DUP1 DUP5 ADD SWAP2 SWAP1 SWAP2 MSTORE PUSH1 0x40 DUP1 DUP5 ADD SWAP7 SWAP1 SWAP7 MSTORE PUSH1 0x60 SWAP3 DUP4 ADD DUP12 SWAP1 MSTORE CALLER PUSH1 0x0 SWAP1 DUP2 MSTORE PUSH1 0x3 DUP1 DUP4 MSTORE DUP8 DUP3 KECCAK256 DUP1 SLOAD PUSH1 0x1 DUP2 DUP2 ADD DUP4 SSTORE SWAP2 DUP5 MSTORE SWAP3 DUP5 SWAP1 KECCAK256 DUP8 MLOAD SWAP4 SWAP1 SWAP3 MUL SWAP1 SWAP2 ADD DUP1 SLOAD SWAP4 DUP8 ADD MLOAD SWAP9 DUP8 ADD MLOAD SWAP6 DUP8 ADD MLOAD SWAP1 SWAP5 AND PUSH11 0x100000000000000000000 MUL PUSH32 0xFFFF0000000000000000000000000000000000000000FFFFFFFFFFFFFFFFFFFF PUSH1 0xC0 SWAP7 SWAP1 SWAP7 SHR PUSH3 0x10000 MUL SWAP6 SWAP1 SWAP6 AND PUSH32 0xFFFF00000000000000000000000000000000000000000000000000000000FFFF SWAP9 ISZERO ISZERO PUSH2 0x100 MUL PUSH2 0xFFFF NOT SWAP1 SWAP5 AND PUSH1 0xFF SWAP1 SWAP4 AND SWAP3 SWAP1 SWAP3 OR SWAP3 SWAP1 SWAP3 OR SWAP7 SWAP1 SWAP7 AND SWAP6 SWAP1 SWAP6 OR SWAP2 SWAP1 SWAP2 OR DUP2 SSTORE PUSH1 0x80 DUP3 ADD MLOAD DUP2 DUP6 ADD SSTORE PUSH1 0xA0 SWAP1 SWAP2 ADD MLOAD PUSH1 0x2 SWAP1 SWAP2 ADD SSTORE POP SWAP2 POP POP SWAP5 SWAP4 POP POP POP POP JUMP JUMPDEST PUSH2 0xDB0 PUSH2 0xEFC JUMP JUMPDEST PUSH2 0xDBA PUSH1 0x0 PUSH2 0xF56 JUMP JUMPDEST JUMP JUMPDEST PUSH1 0x3 PUSH1 0x20 MSTORE DUP2 PUSH1 0x0 MSTORE PUSH1 0x40 PUSH1 0x0 KECCAK256 DUP2 DUP2 SLOAD DUP2 LT PUSH2 0xDD8 JUMPI PUSH1 0x0 DUP1 REVERT JUMPDEST PUSH1 0x0 SWAP2 DUP3 MSTORE PUSH1 0x20 SWAP1 SWAP2 KECCAK256 PUSH1 0x3 SWAP1 SWAP2 MUL ADD DUP1 SLOAD PUSH1 0x1 DUP3 ADD SLOAD PUSH1 0x2 SWAP1 SWAP3 ADD SLOAD PUSH1 0xFF DUP1 DUP4 AND SWAP6 POP PUSH2 0x100 DUP4 DIV AND SWAP4 POP PUSH3 0x10000 DUP3 DIV PUSH1 0xC0 SHL SWAP3 PUSH11 0x100000000000000000000 SWAP1 SWAP3 DIV PUSH1 0x1 PUSH1 0x1 PUSH1 0xA0 SHL SUB AND SWAP2 SWAP1 DUP7 JUMP JUMPDEST PUSH1 0x6 DUP2 PUSH1 0x5 DUP2 LT PUSH2 0xE3B JUMPI PUSH1 0x0 DUP1 REVERT JUMPDEST ADD SLOAD PUSH1 0x1 PUSH1 0x1 PUSH1 0xA0 SHL SUB AND SWAP1 POP DUP2 JUMP JUMPDEST PUSH2 0xE53 PUSH2 0xEFC JUMP JUMPDEST PUSH1 0x1 PUSH1 0x1 PUSH1 0xA0 SHL SUB DUP2 AND PUSH2 0xED4 JUMPI PUSH1 0x40 MLOAD PUSH3 0x461BCD PUSH1 0xE5 SHL DUP2 MSTORE PUSH1 0x20 PUSH1 0x4 DUP3 ADD MSTORE PUSH1 0x26 PUSH1 0x24 DUP3 ADD MSTORE PUSH32 0x4F776E61626C653A206E6577206F776E657220697320746865207A65726F2061 PUSH1 0x44 DUP3 ADD MSTORE PUSH32 0x6464726573730000000000000000000000000000000000000000000000000000 PUSH1 0x64 DUP3 ADD MSTORE PUSH1 0x84 ADD JUMPDEST PUSH1 0x40 MLOAD DUP1 SWAP2 SUB SWAP1 REVERT JUMPDEST PUSH2 0xEDD DUP2 PUSH2 0xF56 JUMP JUMPDEST POP JUMP JUMPDEST PUSH1 0x0 DUP2 MLOAD PUSH1 0x0 EQ ISZERO PUSH2 0xEF4 JUMPI POP PUSH1 0x0 SWAP2 SWAP1 POP JUMP JUMPDEST POP PUSH1 0x20 ADD MLOAD SWAP1 JUMP JUMPDEST PUSH1 0x0 SLOAD PUSH1 0x1 PUSH1 0x1 PUSH1 0xA0 SHL SUB AND CALLER EQ PUSH2 0xDBA JUMPI PUSH1 0x40 MLOAD PUSH3 0x461BCD PUSH1 0xE5 SHL DUP2 MSTORE PUSH1 0x20 PUSH1 0x4 DUP3 ADD DUP2 SWAP1 MSTORE PUSH1 0x24 DUP3 ADD MSTORE PUSH32 0x4F776E61626C653A2063616C6C6572206973206E6F7420746865206F776E6572 PUSH1 0x44 DUP3 ADD MSTORE PUSH1 0x64 ADD PUSH2 0xECB JUMP JUMPDEST PUSH1 0x0 DUP1 SLOAD PUSH1 0x1 PUSH1 0x1 PUSH1 0xA0 SHL SUB DUP4 DUP2 AND PUSH32 0xFFFFFFFFFFFFFFFFFFFFFFFF0000000000000000000000000000000000000000 DUP4 AND DUP2 OR DUP5 SSTORE PUSH1 0x40 MLOAD SWAP2 SWAP1 SWAP3 AND SWAP3 DUP4 SWAP2 PUSH32 0x8BE0079C531659141344CD1FD0A4F28419497F9722A3DAAFE3B4186F6B6457E0 SWAP2 SWAP1 LOG3 POP POP JUMP JUMPDEST DUP1 CALLDATALOAD PUSH1 0x1 PUSH1 0x1 PUSH1 0xA0 SHL SUB DUP2 AND DUP2 EQ PUSH2 0xFD5 JUMPI PUSH1 0x0 DUP1 REVERT JUMPDEST SWAP2 SWAP1 POP JUMP JUMPDEST PUSH1 0x0 PUSH1 0x20 DUP3 DUP5 SUB SLT ISZERO PUSH2 0xFEB JUMPI DUP1 DUP2 REVERT JUMPDEST PUSH2 0xFF4 DUP3 PUSH2 0xFBE JUMP JUMPDEST SWAP4 SWAP3 POP POP POP JUMP JUMPDEST PUSH1 0x0 DUP1 PUSH1 0x40 DUP4 DUP6 SUB SLT ISZERO PUSH2 0x100D JUMPI DUP1 DUP2 REVERT JUMPDEST PUSH2 0x1016 DUP4 PUSH2 0xFBE JUMP JUMPDEST SWAP5 PUSH1 0x20 SWAP4 SWAP1 SWAP4 ADD CALLDATALOAD SWAP4 POP POP POP JUMP JUMPDEST PUSH1 0x0 DUP1 PUSH1 0x0 DUP1 PUSH1 0x60 DUP6 DUP8 SUB SLT ISZERO PUSH2 0x1039 JUMPI DUP2 DUP3 REVERT JUMPDEST PUSH2 0x1042 DUP6 PUSH2 0xFBE JUMP JUMPDEST SWAP4 POP PUSH1 0x20 DUP6 ADD CALLDATALOAD SWAP3 POP PUSH1 0x40 DUP6 ADD CALLDATALOAD PUSH8 0xFFFFFFFFFFFFFFFF DUP1 DUP3 GT ISZERO PUSH2 0x1065 JUMPI DUP4 DUP5 REVERT JUMPDEST DUP2 DUP8 ADD SWAP2 POP DUP8 PUSH1 0x1F DUP4 ADD SLT PUSH2 0x1078 JUMPI DUP4 DUP5 REVERT JUMPDEST DUP2 CALLDATALOAD DUP2 DUP2 GT ISZERO PUSH2 0x1086 JUMPI DUP5 DUP6 REVERT JUMPDEST DUP9 PUSH1 0x20 DUP3 DUP6 ADD ADD GT ISZERO PUSH2 0x1097 JUMPI DUP5 DUP6 REVERT JUMPDEST SWAP6 SWAP9 SWAP5 SWAP8 POP POP PUSH1 0x20 ADD SWAP5 POP POP POP JUMP JUMPDEST PUSH1 0x0 DUP1 PUSH1 0x0 DUP4 DUP6 SUB PUSH1 0xA0 DUP2 SLT ISZERO PUSH2 0x10BB JUMPI DUP4 DUP5 REVERT JUMPDEST PUSH2 0x10C4 DUP6 PUSH2 0xFBE JUMP JUMPDEST SWAP4 POP PUSH1 0x20 DUP6 ADD CALLDATALOAD SWAP3 POP PUSH1 0x60 PUSH1 0x3F NOT DUP3 ADD SLT ISZERO PUSH2 0x10DE JUMPI DUP2 DUP3 REVERT JUMPDEST POP PUSH1 0x40 MLOAD PUSH1 0x60 DUP2 ADD DUP2 DUP2 LT PUSH8 0xFFFFFFFFFFFFFFFF DUP3 GT OR ISZERO PUSH2 0x110E JUMPI PUSH4 0x4E487B71 PUSH1 0xE0 SHL DUP4 MSTORE PUSH1 0x41 PUSH1 0x4 MSTORE PUSH1 0x24 DUP4 REVERT JUMPDEST DUP1 PUSH1 0x40 MSTORE POP PUSH1 0x40 DUP6 ADD CALLDATALOAD DUP2 MSTORE PUSH1 0x60 DUP6 ADD CALLDATALOAD PUSH1 0x20 DUP3 ADD MSTORE PUSH1 0x80 DUP6 ADD CALLDATALOAD PUSH1 0x40 DUP3 ADD MSTORE DUP1 SWAP2 POP POP SWAP3 POP SWAP3 POP SWAP3 JUMP JUMPDEST PUSH1 0x0 DUP1 PUSH1 0x0 DUP1 PUSH1 0x80 DUP6 DUP8 SUB SLT ISZERO PUSH2 0x114E JUMPI DUP4 DUP5 REVERT JUMPDEST PUSH2 0x1157 DUP6 PUSH2 0xFBE JUMP JUMPDEST SWAP4 POP PUSH1 0x20 DUP6 ADD CALLDATALOAD SWAP3 POP PUSH1 0x40 DUP6 ADD CALLDATALOAD SWAP2 POP PUSH1 0x60 DUP6 ADD CALLDATALOAD PUSH1 0xFF DUP2 AND DUP2 EQ PUSH2 0x117A JUMPI DUP2 DUP3 REVERT JUMPDEST SWAP4 SWAP7 SWAP3 SWAP6 POP SWAP1 SWAP4 POP POP JUMP JUMPDEST PUSH1 0x0 PUSH1 0x20 DUP3 DUP5 SUB SLT ISZERO PUSH2 0x1196 JUMPI DUP1 DUP2 REVERT JUMPDEST POP CALLDATALOAD SWAP2 SWAP1 POP JUMP JUMPDEST PUSH1 0x20 DUP1 DUP3 MSTORE DUP3 MLOAD DUP3 DUP3 ADD DUP2 SWAP1 MSTORE PUSH1 0x0 SWAP2 SWAP1 PUSH1 0x40 SWAP1 DUP2 DUP6 ADD SWAP1 DUP7 DUP5 ADD DUP6 JUMPDEST DUP3 DUP2 LT ISZERO PUSH2 0x1220 JUMPI DUP2 MLOAD DUP1 MLOAD PUSH1 0xFF AND DUP6 MSTORE DUP7 DUP2 ADD MLOAD ISZERO ISZERO DUP8 DUP7 ADD MSTORE DUP6 DUP2 ADD MLOAD PUSH1 0x1 PUSH1 0x1 PUSH1 0xC0 SHL SUB NOT AND DUP7 DUP7 ADD MSTORE PUSH1 0x60 DUP1 DUP3 ADD MLOAD PUSH1 0x1 PUSH1 0x1 PUSH1 0xA0 SHL SUB AND SWAP1 DUP7 ADD MSTORE PUSH1 0x80 DUP1 DUP3 ADD MLOAD SWAP1 DUP7 ADD MSTORE PUSH1 0xA0 SWAP1 DUP2 ADD MLOAD SWAP1 DUP6 ADD MSTORE PUSH1 0xC0 SWAP1 SWAP4 ADD SWAP3 SWAP1 DUP6 ADD SWAP1 PUSH1 0x1 ADD PUSH2 0x11BA JUMP JUMPDEST POP SWAP2 SWAP8 SWAP7 POP POP POP POP POP POP POP JUMP JUMPDEST PUSH1 0x0 DUP3 NOT DUP3 GT ISZERO PUSH2 0x1240 JUMPI PUSH2 0x1240 PUSH2 0x125C JUMP JUMPDEST POP ADD SWAP1 JUMP JUMPDEST PUSH1 0x0 DUP3 DUP3 LT ISZERO PUSH2 0x1257 JUMPI PUSH2 0x1257 PUSH2 0x125C JUMP JUMPDEST POP SUB SWAP1 JUMP JUMPDEST PUSH4 0x4E487B71 PUSH1 0xE0 SHL PUSH1 0x0 MSTORE PUSH1 0x11 PUSH1 0x4 MSTORE PUSH1 0x24 PUSH1 0x0 REVERT INVALID LOG2 PUSH5 0x6970667358 0x22 SLT KECCAK256 0xBD 0x24 0xC GAS DUP8 0xB1 0xCB 0x24 0xA6 SWAP11 0x29 0xA9 0xF 0xCB STATICCALL PC 0xD 0xCA PUSH30 0x67BCA1D1423726AB291A04331A64736F6C63430008040033FBD610CF0373 SWAP5 PUSH24 0x47BA15EFFD5E459C81DB984F8723671458C0E8624428AB04 "
        },
        "methodIdentifiers": {
          "addToWhitelist(address,uint256)": "214405fc",
          "administrators(uint256)": "d89d1510",
          "balanceOf(address)": "70a08231",
          "balances(address)": "27e235e3",
          "getPayments(address)": "1d6a1711",
          "getTradingMode()": "9a9f8383",
          "owner()": "8da5cb5b",
          "payments(address,uint256)": "ab63385c",
          "renounceOwnership()": "715018a6",
          "totalSupply()": "18160ddd",
          "transfer(address,uint256,string)": "56b8c724",
          "transferOwnership(address)": "f2fde38b",
          "updatePayment(address,uint256,uint256,uint8)": "4e86eb16",
          "whiteListStruct(address)": "5de45813",
          "whiteTransfer(address,uint256,(uint256,uint256,uint256))": "27df565a",
          "whitelist(address)": "9b19251a"
        }
      }
    }
  }
}