{
  "_format": "hh-sol-artifact-1",
  "contractName": "Constants",
  "sourceName": "contracts/Gas.sol",
  "abi": [
    {
      "inputs": [],
      "name": "basicFlag",
      "outputs": [
        {
          "internalType": "uint256",
          "name": "",
          "type": "uint256"
        }
      ],
      "stateMutability": "view",
      "type": "function"
    },
    {
      "inputs": [],
      "name": "dividendFlag",
      "outputs": [
        {
          "internalType": "uint256",
          "name": "",
          "type": "uint256"
        }
      ],
      "stateMutability": "view",
      "type": "function"
    },
    {
      "inputs": [],
      "name": "tradeFlag",
      "outputs": [
        {
          "internalType": "uint256",
          "name": "",
          "type": "uint256"
        }
      ],
      "stateMutability": "view",
      "type": "function"
    }
  ],
  "bytecode": "0x608060405260016000556000600155600160025534801561001f57600080fd5b506101078061002f6000396000f3fe6080604052348015600f57600080fd5b5060043610603c5760003560e01c80632c01c922146041578063745b07c814605b578063c43982cc146075575b600080fd5b6047608f565b6040516052919060ae565b60405180910390f35b60616095565b604051606c919060ae565b60405180910390f35b607b609b565b6040516086919060ae565b60405180910390f35b60015481565b60025481565b60005481565b60a88160c7565b82525050565b600060208201905060c1600083018460a1565b92915050565b600081905091905056fea26469706673582212207b50a62864a18addb624a4841ace5d37cce9c241054d1f0134e94856c76a27d564736f6c63430008000033",
  "linkReferences": {},
  "deployedLinkReferences": {}
}