{
  "_format": "hh-sol-artifact-1",
  "contractName": "GasContract",
  "sourceName": "contracts/Gas.sol",
  "abi": [
    {
      "inputs": [
        {
          "internalType": "address[]",
          "name": "_admins",
          "type": "address[]"
        },
        {
          "internalType": "uint256",
          "name": "_totalSupply",
          "type": "uint256"
        }
      ],
      "stateMutability": "nonpayable",
      "type": "constructor"
    },
    {
      "inputs": [],
      "name": "AmountIsZero",
      "type": "error"
    },
    {
      "inputs": [],
      "name": "AmountSmallerThan3",
      "type": "error"
    },
    {
      "inputs": [],
      "name": "IdIsZero",
      "type": "error"
    },
    {
      "inputs": [],
      "name": "IncorrectWhitelistTier",
      "type": "error"
    },
    {
      "inputs": [],
      "name": "InsufficientBalance",
      "type": "error"
    },
    {
      "inputs": [],
      "name": "IsZeroAddress",
      "type": "error"
    },
    {
      "inputs": [],
      "name": "OnlyAdminOrOwner",
      "type": "error"
    },
    {
      "inputs": [],
      "name": "OriginatorNotSender",
      "type": "error"
    },
    {
      "inputs": [],
      "name": "RecipientNameTooLong",
      "type": "error"
    },
    {
      "inputs": [],
      "name": "UserNotWhitelisted",
      "type": "error"
    },
    {
      "anonymous": false,
      "inputs": [
        {
          "indexed": false,
          "internalType": "address",
          "name": "userAddress",
          "type": "address"
        },
        {
          "indexed": false,
          "internalType": "uint256",
          "name": "tier",
          "type": "uint256"
        }
      ],
      "name": "AddedToWhitelist",
      "type": "event"
    },
    {
      "anonymous": false,
      "inputs": [
        {
          "indexed": true,
          "internalType": "address",
          "name": "previousOwner",
          "type": "address"
        },
        {
          "indexed": true,
          "internalType": "address",
          "name": "newOwner",
          "type": "address"
        }
      ],
      "name": "OwnershipTransferred",
      "type": "event"
    },
    {
      "anonymous": false,
      "inputs": [
        {
          "indexed": false,
          "internalType": "address",
          "name": "recipient",
          "type": "address"
        },
        {
          "indexed": false,
          "internalType": "uint256",
          "name": "amount",
          "type": "uint256"
        }
      ],
      "name": "Transfer",
      "type": "event"
    },
    {
      "anonymous": false,
      "inputs": [
        {
          "indexed": true,
          "internalType": "address",
          "name": "",
          "type": "address"
        },
        {
          "indexed": true,
          "internalType": "uint256",
          "name": "",
          "type": "uint256"
        }
      ],
      "name": "supplyChanged",
      "type": "event"
    },
    {
      "inputs": [
        {
          "internalType": "address",
          "name": "_userAddrs",
          "type": "address"
        },
        {
          "internalType": "uint256",
          "name": "_tier",
          "type": "uint256"
        }
      ],
      "name": "addToWhitelist",
      "outputs": [],
      "stateMutability": "nonpayable",
      "type": "function"
    },
    {
      "inputs": [
        {
          "internalType": "uint256",
          "name": "",
          "type": "uint256"
        }
      ],
      "name": "administrators",
      "outputs": [
        {
          "internalType": "address",
          "name": "",
          "type": "address"
        }
      ],
      "stateMutability": "view",
      "type": "function"
    },
    {
      "inputs": [
        {
          "internalType": "address",
          "name": "_user",
          "type": "address"
        }
      ],
      "name": "balanceOf",
      "outputs": [
        {
          "internalType": "uint256",
          "name": "balance_",
          "type": "uint256"
        }
      ],
      "stateMutability": "view",
      "type": "function"
    },
    {
      "inputs": [
        {
          "internalType": "address",
          "name": "",
          "type": "address"
        }
      ],
      "name": "balances",
      "outputs": [
        {
          "internalType": "uint256",
          "name": "",
          "type": "uint256"
        }
      ],
      "stateMutability": "view",
      "type": "function"
    },
    {
      "inputs": [
        {
          "internalType": "address",
          "name": "_user",
          "type": "address"
        }
      ],
      "name": "getPayments",
      "outputs": [
        {
          "components": [
            {
              "internalType": "uint8",
              "name": "paymentType",
              "type": "uint8"
            },
            {
              "internalType": "bool",
              "name": "adminUpdated",
              "type": "bool"
            },
            {
              "internalType": "bytes8",
              "name": "recipientName",
              "type": "bytes8"
            },
            {
              "internalType": "address",
              "name": "recipient",
              "type": "address"
            },
            {
              "internalType": "uint256",
              "name": "paymentID",
              "type": "uint256"
            },
            {
              "internalType": "uint256",
              "name": "amount",
              "type": "uint256"
            }
          ],
          "internalType": "struct GasContract.Payment[]",
          "name": "payments_",
          "type": "tuple[]"
        }
      ],
      "stateMutability": "view",
      "type": "function"
    },
    {
      "inputs": [],
      "name": "getTradingMode",
      "outputs": [
        {
          "internalType": "bool",
          "name": "mode_",
          "type": "bool"
        }
      ],
      "stateMutability": "pure",
      "type": "function"
    },
    {
      "inputs": [],
      "name": "owner",
      "outputs": [
        {
          "internalType": "address",
          "name": "",
          "type": "address"
        }
      ],
      "stateMutability": "view",
      "type": "function"
    },
    {
      "inputs": [
        {
          "internalType": "address",
          "name": "",
          "type": "address"
        },
        {
          "internalType": "uint256",
          "name": "",
          "type": "uint256"
        }
      ],
      "name": "payments",
      "outputs": [
        {
          "internalType": "uint8",
          "name": "paymentType",
          "type": "uint8"
        },
        {
          "internalType": "bool",
          "name": "adminUpdated",
          "type": "bool"
        },
        {
          "internalType": "bytes8",
          "name": "recipientName",
          "type": "bytes8"
        },
        {
          "internalType": "address",
          "name": "recipient",
          "type": "address"
        },
        {
          "internalType": "uint256",
          "name": "paymentID",
          "type": "uint256"
        },
        {
          "internalType": "uint256",
          "name": "amount",
          "type": "uint256"
        }
      ],
      "stateMutability": "view",
      "type": "function"
    },
    {
      "inputs": [],
      "name": "renounceOwnership",
      "outputs": [],
      "stateMutability": "nonpayable",
      "type": "function"
    },
    {
      "inputs": [],
      "name": "totalSupply",
      "outputs": [
        {
          "internalType": "uint256",
          "name": "",
          "type": "uint256"
        }
      ],
      "stateMutability": "view",
      "type": "function"
    },
    {
      "inputs": [
        {
          "internalType": "address",
          "name": "_recipient",
          "type": "address"
        },
        {
          "internalType": "uint256",
          "name": "_amount",
          "type": "uint256"
        },
        {
          "internalType": "string",
          "name": "_name",
          "type": "string"
        }
      ],
      "name": "transfer",
      "outputs": [
        {
          "internalType": "bool",
          "name": "status_",
          "type": "bool"
        }
      ],
      "stateMutability": "nonpayable",
      "type": "function"
    },
    {
      "inputs": [
        {
          "internalType": "address",
          "name": "newOwner",
          "type": "address"
        }
      ],
      "name": "transferOwnership",
      "outputs": [],
      "stateMutability": "nonpayable",
      "type": "function"
    },
    {
      "inputs": [
        {
          "internalType": "address",
          "name": "_user",
          "type": "address"
        },
        {
          "internalType": "uint256",
          "name": "_ID",
          "type": "uint256"
        },
        {
          "internalType": "uint256",
          "name": "_amount",
          "type": "uint256"
        },
        {
          "internalType": "uint8",
          "name": "_type",
          "type": "uint8"
        }
      ],
      "name": "updatePayment",
      "outputs": [],
      "stateMutability": "nonpayable",
      "type": "function"
    },
    {
      "inputs": [
        {
          "internalType": "address",
          "name": "",
          "type": "address"
        }
      ],
      "name": "whiteListStruct",
      "outputs": [
        {
          "internalType": "uint256",
          "name": "valueA",
          "type": "uint256"
        },
        {
          "internalType": "uint256",
          "name": "bigValue",
          "type": "uint256"
        },
        {
          "internalType": "uint256",
          "name": "valueB",
          "type": "uint256"
        }
      ],
      "stateMutability": "view",
      "type": "function"
    },
    {
      "inputs": [
        {
          "internalType": "address",
          "name": "_recipient",
          "type": "address"
        },
        {
          "internalType": "uint256",
          "name": "_amount",
          "type": "uint256"
        },
        {
          "components": [
            {
              "internalType": "uint256",
              "name": "valueA",
              "type": "uint256"
            },
            {
              "internalType": "uint256",
              "name": "bigValue",
              "type": "uint256"
            },
            {
              "internalType": "uint256",
              "name": "valueB",
              "type": "uint256"
            }
          ],
          "internalType": "struct GasContract.ImportantStruct",
          "name": "_struct",
          "type": "tuple"
        }
      ],
      "name": "whiteTransfer",
      "outputs": [],
      "stateMutability": "nonpayable",
      "type": "function"
    },
    {
      "inputs": [
        {
          "internalType": "address",
          "name": "",
          "type": "address"
        }
      ],
      "name": "whitelist",
      "outputs": [
        {
          "internalType": "uint256",
          "name": "",
          "type": "uint256"
        }
      ],
      "stateMutability": "view",
      "type": "function"
    }
  ],
  "bytecode": "0x608060405260006001553480156200001657600080fd5b50604051620015e1380380620015e1833981016040819052620000399162000217565b6200004433620001aa565b600181905560005b6005811015620001a15760006001600160a01b03168382815181106200008257634e487b7160e01b600052603260045260246000fd5b60200260200101516001600160a01b03161462000198576000838281518110620000bc57634e487b7160e01b600052603260045260246000fd5b602002602001015190508060068360058110620000e957634e487b7160e01b600052603260045260246000fd5b0180546001600160a01b0319166001600160a01b0392831617905581166000818152600560205260409020805460ff191660011790553314156200016157336000908152600260205260408082208590555184916001600160a01b03841691600080516020620015c18339815191529190a362000196565b6001600160a01b03811660008181526002602052604080822082905551909190600080516020620015c1833981519152908390a35b505b6001016200004c565b50505062000309565b600080546001600160a01b038381166001600160a01b0319831681178455604051919092169283917f8be0079c531659141344cd1fd0a4f28419497f9722a3daafe3b4186f6b6457e09190a35050565b80516001600160a01b03811681146200021257600080fd5b919050565b600080604083850312156200022a578182fd5b82516001600160401b038082111562000241578384fd5b818501915085601f83011262000255578384fd5b81516020828211156200026c576200026c620002f3565b8160051b604051601f19603f83011681018181108682111715620002945762000294620002f3565b604052838152828101945085830182870184018b1015620002b3578889fd5b8896505b84871015620002e057620002cb81620001fa565b865260019690960195948301948301620002b7565b5097909101519698969750505050505050565b634e487b7160e01b600052604160045260246000fd5b6112a880620003196000396000f3fe608060405234801561001057600080fd5b50600436106101005760003560e01c806370a08231116100975780639b19251a116100665780639b19251a14610266578063ab63385c14610286578063d89d1510146102e2578063f2fde38b146102f557600080fd5b806370a0823114610209578063715018a6146102325780638da5cb5b1461023a5780639a9f83831461025f57600080fd5b806327e235e3116100d357806327e235e3146101695780634e86eb161461018957806356b8c7241461019c5780635de45813146101bf57600080fd5b806318160ddd146101055780631d6a171114610121578063214405fc1461014157806327df565a14610156575b600080fd5b61010e60015481565b6040519081526020015b60405180910390f35b61013461012f366004610fda565b610308565b604051610118919061119d565b61015461014f366004610ffb565b610403565b005b6101546101643660046110a6565b61051d565b61010e610177366004610fda565b60026020526000908152604090205481565b610154610197366004611139565b6106bc565b6101af6101aa366004611024565b610ad5565b6040519015158152602001610118565b6101ee6101cd366004610fda565b600b6020526000908152604090208054600182015460029092015490919083565b60408051938452602084019290925290820152606001610118565b61010e610217366004610fda565b6001600160a01b031660009081526002602052604090205490565b610154610da8565b6000546001600160a01b03165b6040516001600160a01b039091168152602001610118565b60016101af565b61010e610274366004610fda565b60046020526000908152604090205481565b610299610294366004610ffb565b610dbc565b6040805160ff909716875294151560208701526001600160c01b0319909316938501939093526001600160a01b03166060840152608083019190915260a082015260c001610118565b6102476102f0366004611185565b610e2b565b610154610303366004610fda565b610e4b565b60606001600160a01b03821661033157604051631326d6d560e01b815260040160405180910390fd5b6001600160a01b038216600090815260036020908152604080832080548251818502810185019093528083529193909284015b828210156103f85760008481526020908190206040805160c0808201835260038702909301805460ff808216845261010082041615158387015262010000810490941b6001600160c01b031916928201929092526a01000000000000000000009092046001600160a01b03166060830152600180820154608084015260029091015460a08301529083529092019101610364565b505050509050919050565b6000546001600160a01b03163314156104795760ff811015610432578160005260046020526040600020818155505b604080516001600160a01b0384168152602081018390527f62c1e066774519db9fe35767c15fc33df2f016675b7cc0c330ed185f286a2d5291015b60405180910390a15050565b3360009081526005602052604090205460ff16156104eb5760ff8110156104325760008281526004602090815260409182902083905581516001600160a01b03851681529081018390527f62c1e066774519db9fe35767c15fc33df2f016675b7cc0c330ed185f286a2d52910161046d565b6040517f61685c2b00000000000000000000000000000000000000000000000000000000815260040160405180910390fd5b336000818152600460205260409020546001811015610568576040517f2ba75b2500000000000000000000000000000000000000000000000000000000815260040160405180910390fd5b60038111156105a3576040517f9fdf115e00000000000000000000000000000000000000000000000000000000815260040160405180910390fd5b33600090815260026020526040902054848110156105d457604051631e9acf1760e31b815260040160405180910390fd5b6003851161060e576040517ff672dfca00000000000000000000000000000000000000000000000000000000815260040160405180910390fd5b33600090815260046020526040902054816106298782611245565b9050610635828261122d565b33600090815260026020526040808220929092556001600160a01b038a16815220549050610663878261122d565b905061066f8282611245565b6001600160a01b0390981660009081526002602081815260408084209b909b55338352600b8152918a90208851815591880151600183015596909801519790950196909655505050505050565b6000546001600160a01b03163314156108c65760018310156106f15760405163ee7efd5760e01b815260040160405180910390fd5b6001821015610713576040516310eb483f60e21b815260040160405180910390fd5b6001600160a01b03841661073a57604051631326d6d560e01b815260040160405180910390fd5b60005b6001600160a01b0385166000908152600360205260409020548110156108c0576001600160a01b038516600090815260036020526040902080548591908390811061079857634e487b7160e01b600052603260045260246000fd5b90600052602060002090600302016001015414156108b8576001600160a01b0385166000908152600360205260409020805460019190839081106107ec57634e487b7160e01b600052603260045260246000fd5b6000918252602080832060039283020180549415156101000261ff0019909516949094179093556001600160a01b03881682529091526040902080548391908390811061084957634e487b7160e01b600052603260045260246000fd5b60009182526020808320600392830201805460ff191660ff95909516949094179093556001600160a01b0388168252909152604090208054849190839081106108a257634e487b7160e01b600052603260045260246000fd5b9060005260206000209060030201600201819055505b60010161073d565b50610acf565b3360009081526005602052604090205460ff16156104eb5760018310156109005760405163ee7efd5760e01b815260040160405180910390fd5b6001821015610922576040516310eb483f60e21b815260040160405180910390fd5b6001600160a01b03841661094957604051631326d6d560e01b815260040160405180910390fd5b60005b6001600160a01b0385166000908152600360205260409020548110156108c0576001600160a01b03851660009081526003602052604090208054859190839081106109a757634e487b7160e01b600052603260045260246000fd5b9060005260206000209060030201600101541415610ac7576001600160a01b0385166000908152600360205260409020805460019190839081106109fb57634e487b7160e01b600052603260045260246000fd5b6000918252602080832060039283020180549415156101000261ff0019909516949094179093556001600160a01b038816825290915260409020805483919083908110610a5857634e487b7160e01b600052603260045260246000fd5b60009182526020808320600392830201805460ff191660ff95909516949094179093556001600160a01b038816825290915260409020805484919083908110610ab157634e487b7160e01b600052603260045260246000fd5b9060005260206000209060030201600201819055505b60010161094c565b50505050565b3360009081526002602052604081205484811015610b0657604051631e9acf1760e31b815260040160405180910390fd5b6008831115610b41576040517f4ebd961a00000000000000000000000000000000000000000000000000000000815260040160405180910390fd5b610b4b8582611245565b33600090815260026020526040808220929092556001600160a01b03881681529081208054879290610b7e90849061122d565b9091555050604080516001600160a01b0388168152602081018790527f69ca02dd4edd7bf0a4abb9ed3b7af3f14778db5d61921c7dc7cd545266326de2910160405180910390a13360009081526003602052604081205415610c3e573360009081526003602052604081208054610bf790600190611245565b81548110610c1557634e487b7160e01b600052603260045260246000fd5b9060005260206000209060030201905080600101546001610c36919061122d565b915050610c42565b5060015b6040805160c08101825260018152600060208083018290528351601f890182900482028101820185528881529193830191610c97918a908a9081908401838280828437600092019190915250610ee092505050565b6001600160c01b03191681526001600160a01b03808b1660208084019190915260408084019690965260609283018b905233600090815260038083528782208054600181810183559184529284902087519390920290910180549387015198870151958701519094166a0100000000000000000000027fffff0000000000000000000000000000000000000000ffffffffffffffffffff60c09690961c6201000002959095167fffff00000000000000000000000000000000000000000000000000000000ffff9815156101000261ffff1990941660ff9093169290921792909217969096169590951791909117815560808201518185015560a09091015160029091015550915050949350505050565b610db0610efc565b610dba6000610f56565b565b60036020528160005260406000208181548110610dd857600080fd5b600091825260209091206003909102018054600182015460029092015460ff8083169550610100830416935062010000820460c01b926a01000000000000000000009092046001600160a01b0316919086565b60068160058110610e3b57600080fd5b01546001600160a01b0316905081565b610e53610efc565b6001600160a01b038116610ed45760405162461bcd60e51b815260206004820152602660248201527f4f776e61626c653a206e6577206f776e657220697320746865207a65726f206160448201527f646472657373000000000000000000000000000000000000000000000000000060648201526084015b60405180910390fd5b610edd81610f56565b50565b6000815160001415610ef457506000919050565b506020015190565b6000546001600160a01b03163314610dba5760405162461bcd60e51b815260206004820181905260248201527f4f776e61626c653a2063616c6c6572206973206e6f7420746865206f776e65726044820152606401610ecb565b600080546001600160a01b038381167fffffffffffffffffffffffff0000000000000000000000000000000000000000831681178455604051919092169283917f8be0079c531659141344cd1fd0a4f28419497f9722a3daafe3b4186f6b6457e09190a35050565b80356001600160a01b0381168114610fd557600080fd5b919050565b600060208284031215610feb578081fd5b610ff482610fbe565b9392505050565b6000806040838503121561100d578081fd5b61101683610fbe565b946020939093013593505050565b60008060008060608587031215611039578182fd5b61104285610fbe565b935060208501359250604085013567ffffffffffffffff80821115611065578384fd5b818701915087601f830112611078578384fd5b813581811115611086578485fd5b886020828501011115611097578485fd5b95989497505060200194505050565b600080600083850360a08112156110bb578384fd5b6110c485610fbe565b9350602085013592506060603f19820112156110de578182fd5b506040516060810181811067ffffffffffffffff8211171561110e57634e487b7160e01b83526041600452602483fd5b8060405250604085013581526060850135602082015260808501356040820152809150509250925092565b6000806000806080858703121561114e578384fd5b61115785610fbe565b93506020850135925060408501359150606085013560ff8116811461117a578182fd5b939692955090935050565b600060208284031215611196578081fd5b5035919050565b602080825282518282018190526000919060409081850190868401855b82811015611220578151805160ff16855286810151151587860152858101516001600160c01b031916868601526060808201516001600160a01b0316908601526080808201519086015260a0908101519085015260c090930192908501906001016111ba565b5091979650505050505050565b600082198211156112405761124061125c565b500190565b6000828210156112575761125761125c565b500390565b634e487b7160e01b600052601160045260246000fdfea2646970667358221220bd240c5a87b1cb24a69a29a90fcbfa580dca7d67bca1d1423726ab291a04331a64736f6c63430008040033fbd610cf0373947747ba15effd5e459c81db984f8723671458c0e8624428ab04",
  "linkReferences": {},
  "deployedLinkReferences": {}
}