{
  "_format": "hh-sol-artifact-1",
  "contractName": "GasContract",
  "sourceName": "contracts/Gas.sol",
  "abi": [
    {
      "inputs": [
        {
          "internalType": "address[]",
          "name": "_admins",
          "type": "address[]"
        },
        {
          "internalType": "uint256",
          "name": "_totalSupply",
          "type": "uint256"
        }
      ],
      "stateMutability": "nonpayable",
      "type": "constructor"
    },
    {
      "inputs": [],
      "name": "AmountIsZero",
      "type": "error"
    },
    {
      "inputs": [],
      "name": "AmountSmallerThan3",
      "type": "error"
    },
    {
      "inputs": [],
      "name": "IdIsZero",
      "type": "error"
    },
    {
      "inputs": [],
      "name": "IncorrectWhitelistTier",
      "type": "error"
    },
    {
      "inputs": [],
      "name": "InsufficientBalance",
      "type": "error"
    },
    {
      "inputs": [],
      "name": "IsZeroAddress",
      "type": "error"
    },
    {
      "inputs": [],
      "name": "OnlyAdminOrOwner",
      "type": "error"
    },
    {
      "inputs": [],
      "name": "OriginatorNotSender",
      "type": "error"
    },
    {
      "inputs": [],
      "name": "RecipientNameTooLong",
      "type": "error"
    },
    {
      "inputs": [],
      "name": "TierGreaterThan255",
      "type": "error"
    },
    {
      "inputs": [],
      "name": "UserNotWhitelisted",
      "type": "error"
    },
    {
      "anonymous": false,
      "inputs": [
        {
          "indexed": false,
          "internalType": "address",
          "name": "userAddress",
          "type": "address"
        },
        {
          "indexed": false,
          "internalType": "uint256",
          "name": "tier",
          "type": "uint256"
        }
      ],
      "name": "AddedToWhitelist",
      "type": "event"
    },
    {
      "anonymous": false,
      "inputs": [
        {
          "indexed": true,
          "internalType": "address",
          "name": "previousOwner",
          "type": "address"
        },
        {
          "indexed": true,
          "internalType": "address",
          "name": "newOwner",
          "type": "address"
        }
      ],
      "name": "OwnershipTransferred",
      "type": "event"
    },
    {
      "anonymous": false,
      "inputs": [
        {
          "indexed": false,
          "internalType": "address",
          "name": "admin",
          "type": "address"
        },
        {
          "indexed": false,
          "internalType": "uint256",
          "name": "ID",
          "type": "uint256"
        },
        {
          "indexed": false,
          "internalType": "uint256",
          "name": "amount",
          "type": "uint256"
        },
        {
          "indexed": false,
          "internalType": "string",
          "name": "recipient",
          "type": "string"
        }
      ],
      "name": "PaymentUpdated",
      "type": "event"
    },
    {
      "anonymous": false,
      "inputs": [
        {
          "indexed": false,
          "internalType": "address",
          "name": "recipient",
          "type": "address"
        },
        {
          "indexed": false,
          "internalType": "uint256",
          "name": "amount",
          "type": "uint256"
        }
      ],
      "name": "Transfer",
      "type": "event"
    },
    {
      "anonymous": false,
      "inputs": [
        {
          "indexed": true,
          "internalType": "address",
          "name": "",
          "type": "address"
        }
      ],
      "name": "WhiteListTransfer",
      "type": "event"
    },
    {
      "anonymous": false,
      "inputs": [
        {
          "indexed": true,
          "internalType": "address",
          "name": "",
          "type": "address"
        },
        {
          "indexed": true,
          "internalType": "uint256",
          "name": "",
          "type": "uint256"
        }
      ],
      "name": "supplyChanged",
      "type": "event"
    },
    {
      "inputs": [
        {
          "internalType": "address",
          "name": "_updateAddress",
          "type": "address"
        },
        {
          "internalType": "bool",
          "name": "_tradeMode",
          "type": "bool"
        }
      ],
      "name": "addHistory",
      "outputs": [
        {
          "internalType": "bool",
          "name": "status_",
          "type": "bool"
        },
        {
          "internalType": "bool",
          "name": "tradeMode_",
          "type": "bool"
        }
      ],
      "stateMutability": "nonpayable",
      "type": "function"
    },
    {
      "inputs": [
        {
          "internalType": "address",
          "name": "_userAddrs",
          "type": "address"
        },
        {
          "internalType": "uint256",
          "name": "_tier",
          "type": "uint256"
        }
      ],
      "name": "addToWhitelist",
      "outputs": [],
      "stateMutability": "nonpayable",
      "type": "function"
    },
    {
      "inputs": [
        {
          "internalType": "uint256",
          "name": "",
          "type": "uint256"
        }
      ],
      "name": "administrators",
      "outputs": [
        {
          "internalType": "address",
          "name": "",
          "type": "address"
        }
      ],
      "stateMutability": "view",
      "type": "function"
    },
    {
      "inputs": [
        {
          "internalType": "address",
          "name": "_user",
          "type": "address"
        }
      ],
      "name": "balanceOf",
      "outputs": [
        {
          "internalType": "uint256",
          "name": "balance_",
          "type": "uint256"
        }
      ],
      "stateMutability": "view",
      "type": "function"
    },
    {
      "inputs": [
        {
          "internalType": "address",
          "name": "",
          "type": "address"
        }
      ],
      "name": "balances",
      "outputs": [
        {
          "internalType": "uint256",
          "name": "",
          "type": "uint256"
        }
      ],
      "stateMutability": "view",
      "type": "function"
    },
    {
      "inputs": [],
      "name": "contractOwner",
      "outputs": [
        {
          "internalType": "address",
          "name": "",
          "type": "address"
        }
      ],
      "stateMutability": "view",
      "type": "function"
    },
    {
      "inputs": [],
      "name": "getPaymentHistory",
      "outputs": [
        {
          "components": [
            {
              "internalType": "uint256",
              "name": "lastUpdate",
              "type": "uint256"
            },
            {
              "internalType": "address",
              "name": "updatedBy",
              "type": "address"
            },
            {
              "internalType": "uint256",
              "name": "blockNumber",
              "type": "uint256"
            }
          ],
          "internalType": "struct GasContract.History[]",
          "name": "paymentHistory_",
          "type": "tuple[]"
        }
      ],
      "stateMutability": "payable",
      "type": "function"
    },
    {
      "inputs": [
        {
          "internalType": "address",
          "name": "_user",
          "type": "address"
        }
      ],
      "name": "getPayments",
      "outputs": [
        {
          "components": [
            {
              "internalType": "enum GasContract.PaymentType",
              "name": "paymentType",
              "type": "uint8"
            },
            {
              "internalType": "bool",
              "name": "adminUpdated",
              "type": "bool"
            },
            {
              "internalType": "address",
              "name": "recipient",
              "type": "address"
            },
            {
              "internalType": "uint256",
              "name": "paymentID",
              "type": "uint256"
            },
            {
              "internalType": "string",
              "name": "recipientName",
              "type": "string"
            },
            {
              "internalType": "address",
              "name": "admin",
              "type": "address"
            },
            {
              "internalType": "uint256",
              "name": "amount",
              "type": "uint256"
            }
          ],
          "internalType": "struct GasContract.Payment[]",
          "name": "payments_",
          "type": "tuple[]"
        }
      ],
      "stateMutability": "view",
      "type": "function"
    },
    {
      "inputs": [],
      "name": "getTradingMode",
      "outputs": [
        {
          "internalType": "bool",
          "name": "mode_",
          "type": "bool"
        }
      ],
      "stateMutability": "pure",
      "type": "function"
    },
    {
      "inputs": [
        {
          "internalType": "address",
          "name": "",
          "type": "address"
        }
      ],
      "name": "isOddWhitelistUser",
      "outputs": [
        {
          "internalType": "uint256",
          "name": "",
          "type": "uint256"
        }
      ],
      "stateMutability": "view",
      "type": "function"
    },
    {
      "inputs": [],
      "name": "isReady",
      "outputs": [
        {
          "internalType": "bool",
          "name": "",
          "type": "bool"
        }
      ],
      "stateMutability": "view",
      "type": "function"
    },
    {
      "inputs": [],
      "name": "owner",
      "outputs": [
        {
          "internalType": "address",
          "name": "",
          "type": "address"
        }
      ],
      "stateMutability": "view",
      "type": "function"
    },
    {
      "inputs": [],
      "name": "paymentCounter",
      "outputs": [
        {
          "internalType": "uint256",
          "name": "",
          "type": "uint256"
        }
      ],
      "stateMutability": "view",
      "type": "function"
    },
    {
      "inputs": [
        {
          "internalType": "uint256",
          "name": "",
          "type": "uint256"
        }
      ],
      "name": "paymentHistory",
      "outputs": [
        {
          "internalType": "uint256",
          "name": "lastUpdate",
          "type": "uint256"
        },
        {
          "internalType": "address",
          "name": "updatedBy",
          "type": "address"
        },
        {
          "internalType": "uint256",
          "name": "blockNumber",
          "type": "uint256"
        }
      ],
      "stateMutability": "view",
      "type": "function"
    },
    {
      "inputs": [
        {
          "internalType": "address",
          "name": "",
          "type": "address"
        },
        {
          "internalType": "uint256",
          "name": "",
          "type": "uint256"
        }
      ],
      "name": "payments",
      "outputs": [
        {
          "internalType": "enum GasContract.PaymentType",
          "name": "paymentType",
          "type": "uint8"
        },
        {
          "internalType": "bool",
          "name": "adminUpdated",
          "type": "bool"
        },
        {
          "internalType": "address",
          "name": "recipient",
          "type": "address"
        },
        {
          "internalType": "uint256",
          "name": "paymentID",
          "type": "uint256"
        },
        {
          "internalType": "string",
          "name": "recipientName",
          "type": "string"
        },
        {
          "internalType": "address",
          "name": "admin",
          "type": "address"
        },
        {
          "internalType": "uint256",
          "name": "amount",
          "type": "uint256"
        }
      ],
      "stateMutability": "view",
      "type": "function"
    },
    {
      "inputs": [],
      "name": "renounceOwnership",
      "outputs": [],
      "stateMutability": "nonpayable",
      "type": "function"
    },
    {
      "inputs": [],
      "name": "totalSupply",
      "outputs": [
        {
          "internalType": "uint256",
          "name": "",
          "type": "uint256"
        }
      ],
      "stateMutability": "view",
      "type": "function"
    },
    {
      "inputs": [],
      "name": "tradeMode",
      "outputs": [
        {
          "internalType": "uint256",
          "name": "",
          "type": "uint256"
        }
      ],
      "stateMutability": "view",
      "type": "function"
    },
    {
      "inputs": [],
      "name": "tradePercent",
      "outputs": [
        {
          "internalType": "uint256",
          "name": "",
          "type": "uint256"
        }
      ],
      "stateMutability": "view",
      "type": "function"
    },
    {
      "inputs": [
        {
          "internalType": "address",
          "name": "_recipient",
          "type": "address"
        },
        {
          "internalType": "uint256",
          "name": "_amount",
          "type": "uint256"
        },
        {
          "internalType": "string",
          "name": "_name",
          "type": "string"
        }
      ],
      "name": "transfer",
      "outputs": [
        {
          "internalType": "bool",
          "name": "status_",
          "type": "bool"
        }
      ],
      "stateMutability": "nonpayable",
      "type": "function"
    },
    {
      "inputs": [
        {
          "internalType": "address",
          "name": "newOwner",
          "type": "address"
        }
      ],
      "name": "transferOwnership",
      "outputs": [],
      "stateMutability": "nonpayable",
      "type": "function"
    },
    {
      "inputs": [
        {
          "internalType": "address",
          "name": "_user",
          "type": "address"
        },
        {
          "internalType": "uint256",
          "name": "_ID",
          "type": "uint256"
        },
        {
          "internalType": "uint256",
          "name": "_amount",
          "type": "uint256"
        },
        {
          "internalType": "enum GasContract.PaymentType",
          "name": "_type",
          "type": "uint8"
        }
      ],
      "name": "updatePayment",
      "outputs": [],
      "stateMutability": "nonpayable",
      "type": "function"
    },
    {
      "inputs": [
        {
          "internalType": "address",
          "name": "",
          "type": "address"
        }
      ],
      "name": "whiteListStruct",
      "outputs": [
        {
          "internalType": "uint256",
          "name": "valueA",
          "type": "uint256"
        },
        {
          "internalType": "uint256",
          "name": "bigValue",
          "type": "uint256"
        },
        {
          "internalType": "uint256",
          "name": "valueB",
          "type": "uint256"
        }
      ],
      "stateMutability": "view",
      "type": "function"
    },
    {
      "inputs": [
        {
          "internalType": "address",
          "name": "_recipient",
          "type": "address"
        },
        {
          "internalType": "uint256",
          "name": "_amount",
          "type": "uint256"
        },
        {
          "components": [
            {
              "internalType": "uint256",
              "name": "valueA",
              "type": "uint256"
            },
            {
              "internalType": "uint256",
              "name": "bigValue",
              "type": "uint256"
            },
            {
              "internalType": "uint256",
              "name": "valueB",
              "type": "uint256"
            }
          ],
          "internalType": "struct GasContract.ImportantStruct",
          "name": "_struct",
          "type": "tuple"
        }
      ],
      "name": "whiteTransfer",
      "outputs": [],
      "stateMutability": "nonpayable",
      "type": "function"
    },
    {
      "inputs": [
        {
          "internalType": "address",
          "name": "",
          "type": "address"
        }
      ],
      "name": "whitelist",
      "outputs": [
        {
          "internalType": "uint256",
          "name": "",
          "type": "uint256"
        }
      ],
      "stateMutability": "view",
      "type": "function"
    }
  ],
  "bytecode": "0x608060405260006001556000600255600c6004556000600560146101000a81548160ff021916908315150217905550600060065560016010553480156200004557600080fd5b50604051620046453803806200464583398181016040528101906200006b9190620006fd565b6200008b6200007f6200056160201b60201c565b6200056960201b60201c565b33600560006101000a81548173ffffffffffffffffffffffffffffffffffffffff021916908373ffffffffffffffffffffffffffffffffffffffff1602179055508060018190555060005b60058110156200055857600073ffffffffffffffffffffffffffffffffffffffff1683828151811062000132577f4e487b7100000000000000000000000000000000000000000000000000000000600052603260045260246000fd5b602002602001015173ffffffffffffffffffffffffffffffffffffffff1614620005425782818151811062000190577f4e487b7100000000000000000000000000000000000000000000000000000000600052603260045260246000fd5b6020026020010151600a8260058110620001d3577f4e487b7100000000000000000000000000000000000000000000000000000000600052603260045260246000fd5b0160006101000a81548173ffffffffffffffffffffffffffffffffffffffff021916908373ffffffffffffffffffffffffffffffffffffffff16021790555060016009600085848151811062000252577f4e487b7100000000000000000000000000000000000000000000000000000000600052603260045260246000fd5b602002602001015173ffffffffffffffffffffffffffffffffffffffff1673ffffffffffffffffffffffffffffffffffffffff16815260200190815260200160002060006101000a81548160ff021916908315150217905550600560009054906101000a900473ffffffffffffffffffffffffffffffffffffffff1673ffffffffffffffffffffffffffffffffffffffff168382815181106200031e577f4e487b7100000000000000000000000000000000000000000000000000000000600052603260045260246000fd5b602002602001015173ffffffffffffffffffffffffffffffffffffffff16141562000434578160036000600560009054906101000a900473ffffffffffffffffffffffffffffffffffffffff1673ffffffffffffffffffffffffffffffffffffffff1673ffffffffffffffffffffffffffffffffffffffff1681526020019081526020016000208190555081838281518110620003e4577f4e487b7100000000000000000000000000000000000000000000000000000000600052603260045260246000fd5b602002602001015173ffffffffffffffffffffffffffffffffffffffff167ffbd610cf0373947747ba15effd5e459c81db984f8723671458c0e8624428ab0460405160405180910390a362000541565b60006003600085848151811062000474577f4e487b7100000000000000000000000000000000000000000000000000000000600052603260045260246000fd5b602002602001015173ffffffffffffffffffffffffffffffffffffffff1673ffffffffffffffffffffffffffffffffffffffff168152602001908152602001600020819055506000838281518110620004f6577f4e487b7100000000000000000000000000000000000000000000000000000000600052603260045260246000fd5b602002602001015173ffffffffffffffffffffffffffffffffffffffff167ffbd610cf0373947747ba15effd5e459c81db984f8723671458c0e8624428ab0460405160405180910390a35b5b80806200054f9062000823565b915050620000d6565b50505062000914565b600033905090565b60008060009054906101000a900473ffffffffffffffffffffffffffffffffffffffff169050816000806101000a81548173ffffffffffffffffffffffffffffffffffffffff021916908373ffffffffffffffffffffffffffffffffffffffff1602179055508173ffffffffffffffffffffffffffffffffffffffff168173ffffffffffffffffffffffffffffffffffffffff167f8be0079c531659141344cd1fd0a4f28419497f9722a3daafe3b4186f6b6457e060405160405180910390a35050565b6000620006446200063e8462000780565b62000757565b905080838252602082019050828560208602820111156200066457600080fd5b60005b858110156200069857816200067d8882620006a2565b84526020840193506020830192505060018101905062000667565b5050509392505050565b600081519050620006b381620008e0565b92915050565b600082601f830112620006cb57600080fd5b8151620006dd8482602086016200062d565b91505092915050565b600081519050620006f781620008fa565b92915050565b600080604083850312156200071157600080fd5b600083015167ffffffffffffffff8111156200072c57600080fd5b6200073a85828601620006b9565b92505060206200074d85828601620006e6565b9150509250929050565b60006200076362000776565b9050620007718282620007ed565b919050565b6000604051905090565b600067ffffffffffffffff8211156200079e576200079d620008a0565b5b602082029050602081019050919050565b6000620007bc82620007c3565b9050919050565b600073ffffffffffffffffffffffffffffffffffffffff82169050919050565b6000819050919050565b620007f882620008cf565b810181811067ffffffffffffffff821117156200081a5762000819620008a0565b5b80604052505050565b60006200083082620007e3565b91507fffffffffffffffffffffffffffffffffffffffffffffffffffffffffffffffff82141562000866576200086562000871565b5b600182019050919050565b7f4e487b7100000000000000000000000000000000000000000000000000000000600052601160045260246000fd5b7f4e487b7100000000000000000000000000000000000000000000000000000000600052604160045260246000fd5b6000601f19601f8301169050919050565b620008eb81620007af565b8114620008f757600080fd5b50565b6200090581620007e3565b81146200091157600080fd5b50565b613d2180620009246000396000f3fe6080604052600436106101665760003560e01c80638da5cb5b116100d1578063a5e047b81161008a578063cbd5d73f11610064578063cbd5d73f1461058a578063ce606ee0146105b5578063d89d1510146105e0578063f2fde38b1461061d57610166565b8063a5e047b8146104ea578063ab63385c14610529578063b651bb611461056c57610166565b80638da5cb5b146103b15780638efcf5c0146103dc5780639a9f83831461041a5780639b19251a14610445578063a094a03114610482578063a30da069146104ad57610166565b806356b8c7241161012357806356b8c7241461028b5780635de45813146102c85780636fd47b441461030757806370a0823114610332578063715018a61461036f57806376840b601461038657610166565b806318160ddd1461016b5780631d6a171114610196578063214405fc146101d357806327df565a146101fc57806327e235e3146102255780634e86eb1614610262575b600080fd5b34801561017757600080fd5b50610180610646565b60405161018d91906137b6565b60405180910390f35b3480156101a257600080fd5b506101bd60048036038101906101b89190613030565b61064c565b6040516101ca919061367a565b60405180910390f35b3480156101df57600080fd5b506101fa60048036038101906101f59190613095565b610945565b005b34801561020857600080fd5b50610223600480360381019061021e919061313d565b611197565b005b34801561023157600080fd5b5061024c60048036038101906102479190613030565b611679565b60405161025991906137b6565b60405180910390f35b34801561026e57600080fd5b506102896004803603810190610284919061318c565b611691565b005b34801561029757600080fd5b506102b260048036038101906102ad91906130d1565b612251565b6040516102bf919061369c565b60405180910390f35b3480156102d457600080fd5b506102ef60048036038101906102ea9190613030565b612721565b6040516102fe93929190613808565b60405180910390f35b34801561031357600080fd5b5061031c61274b565b60405161032991906137b6565b60405180910390f35b34801561033e57600080fd5b5061035960048036038101906103549190613030565b612751565b60405161036691906137b6565b60405180910390f35b34801561037b57600080fd5b5061038461279f565b005b34801561039257600080fd5b5061039b6127b3565b6040516103a891906137b6565b60405180910390f35b3480156103bd57600080fd5b506103c66127b9565b6040516103d391906135c8565b60405180910390f35b3480156103e857600080fd5b5061040360048036038101906103fe9190613059565b6127e2565b6040516104119291906136b7565b60405180910390f35b34801561042657600080fd5b5061042f6128d5565b60405161043c919061369c565b60405180910390f35b34801561045157600080fd5b5061046c60048036038101906104679190613030565b6128de565b60405161047991906137b6565b60405180910390f35b34801561048e57600080fd5b506104976128f6565b6040516104a4919061369c565b60405180910390f35b3480156104b957600080fd5b506104d460048036038101906104cf9190613030565b612909565b6040516104e191906137b6565b60405180910390f35b3480156104f657600080fd5b50610511600480360381019061050c91906131ef565b612921565b604051610520939291906137d1565b60405180910390f35b34801561053557600080fd5b50610550600480360381019061054b9190613095565b61297b565b60405161056397969594939291906136e0565b60405180910390f35b610574612abc565b6040516105819190613658565b60405180910390f35b34801561059657600080fd5b5061059f612b85565b6040516105ac91906137b6565b60405180910390f35b3480156105c157600080fd5b506105ca612b8b565b6040516105d791906135c8565b60405180910390f35b3480156105ec57600080fd5b50610607600480360381019061060291906131ef565b612bb1565b60405161061491906135c8565b60405180910390f35b34801561062957600080fd5b50610644600480360381019061063f9190613030565b612be7565b005b60015481565b6060600073ffffffffffffffffffffffffffffffffffffffff168273ffffffffffffffffffffffffffffffffffffffff1614156106b5576040517f1326d6d500000000000000000000000000000000000000000000000000000000815260040160405180910390fd5b600760008373ffffffffffffffffffffffffffffffffffffffff1673ffffffffffffffffffffffffffffffffffffffff168152602001908152602001600020805480602002602001604051908101604052809291908181526020016000905b8282101561093a57838290600052602060002090600502016040518060e00160405290816000820160009054906101000a900460ff166004811115610782577f4e487b7100000000000000000000000000000000000000000000000000000000600052602160045260246000fd5b60048111156107ba577f4e487b7100000000000000000000000000000000000000000000000000000000600052602160045260246000fd5b81526020016000820160019054906101000a900460ff161515151581526020016000820160029054906101000a900473ffffffffffffffffffffffffffffffffffffffff1673ffffffffffffffffffffffffffffffffffffffff1673ffffffffffffffffffffffffffffffffffffffff1681526020016001820154815260200160028201805461084990613a42565b80601f016020809104026020016040519081016040528092919081815260200182805461087590613a42565b80156108c25780601f10610897576101008083540402835291602001916108c2565b820191906000526020600020905b8154815290600101906020018083116108a557829003601f168201915b505050505081526020016003820160009054906101000a900473ffffffffffffffffffffffffffffffffffffffff1673ffffffffffffffffffffffffffffffffffffffff1673ffffffffffffffffffffffffffffffffffffffff16815260200160048201548152505081526020019060010190610714565b505050509050919050565b600560009054906101000a900473ffffffffffffffffffffffffffffffffffffffff1673ffffffffffffffffffffffffffffffffffffffff163373ffffffffffffffffffffffffffffffffffffffff161415610d555760ff8111156109d6576040517ffa40123600000000000000000000000000000000000000000000000000000000815260040160405180910390fd5b80600860008473ffffffffffffffffffffffffffffffffffffffff1673ffffffffffffffffffffffffffffffffffffffff168152602001908152602001600020819055506003811115610ac35780600860008473ffffffffffffffffffffffffffffffffffffffff1673ffffffffffffffffffffffffffffffffffffffff1681526020019081526020016000206000828254610a72919061396e565b925050819055506003600860008473ffffffffffffffffffffffffffffffffffffffff1673ffffffffffffffffffffffffffffffffffffffff16815260200190815260200160002081905550610c1f565b6001811415610b6c5780600860008473ffffffffffffffffffffffffffffffffffffffff1673ffffffffffffffffffffffffffffffffffffffff1681526020019081526020016000206000828254610b1b919061396e565b925050819055506001600860008473ffffffffffffffffffffffffffffffffffffffff1673ffffffffffffffffffffffffffffffffffffffff16815260200190815260200160002081905550610c1e565b600081118015610b7c5750600381105b15610c1d5780600860008473ffffffffffffffffffffffffffffffffffffffff1673ffffffffffffffffffffffffffffffffffffffff1681526020019081526020016000206000828254610bd0919061396e565b925050819055506002600860008473ffffffffffffffffffffffffffffffffffffffff1673ffffffffffffffffffffffffffffffffffffffff168152602001908152602001600020819055505b5b5b600060105490506001811415610c8057600060108190555080601160008573ffffffffffffffffffffffffffffffffffffffff1673ffffffffffffffffffffffffffffffffffffffff16815260200190815260200160002081905550610d16565b6000811415610cda57600160108190555080601160008573ffffffffffffffffffffffffffffffffffffffff1673ffffffffffffffffffffffffffffffffffffffff16815260200190815260200160002081905550610d15565b6040517f08c379a0000000000000000000000000000000000000000000000000000000008152600401610d0c90613776565b60405180910390fd5b5b7f62c1e066774519db9fe35767c15fc33df2f016675b7cc0c330ed185f286a2d528383604051610d479291906135e3565b60405180910390a150611193565b600960003373ffffffffffffffffffffffffffffffffffffffff1673ffffffffffffffffffffffffffffffffffffffff16815260200190815260200160002060009054906101000a900460ff16156111615760ff811115610de2576040517ffa40123600000000000000000000000000000000000000000000000000000000815260040160405180910390fd5b80600860008473ffffffffffffffffffffffffffffffffffffffff1673ffffffffffffffffffffffffffffffffffffffff168152602001908152602001600020819055506003811115610ecf5780600860008473ffffffffffffffffffffffffffffffffffffffff1673ffffffffffffffffffffffffffffffffffffffff1681526020019081526020016000206000828254610e7e919061396e565b925050819055506003600860008473ffffffffffffffffffffffffffffffffffffffff1673ffffffffffffffffffffffffffffffffffffffff1681526020019081526020016000208190555061102b565b6001811415610f785780600860008473ffffffffffffffffffffffffffffffffffffffff1673ffffffffffffffffffffffffffffffffffffffff1681526020019081526020016000206000828254610f27919061396e565b925050819055506001600860008473ffffffffffffffffffffffffffffffffffffffff1673ffffffffffffffffffffffffffffffffffffffff1681526020019081526020016000208190555061102a565b600081118015610f885750600381105b156110295780600860008473ffffffffffffffffffffffffffffffffffffffff1673ffffffffffffffffffffffffffffffffffffffff1681526020019081526020016000206000828254610fdc919061396e565b925050819055506002600860008473ffffffffffffffffffffffffffffffffffffffff1673ffffffffffffffffffffffffffffffffffffffff168152602001908152602001600020819055505b5b5b60006010549050600181141561108c57600060108190555080601160008573ffffffffffffffffffffffffffffffffffffffff1673ffffffffffffffffffffffffffffffffffffffff16815260200190815260200160002081905550611122565b60008114156110e657600160108190555080601160008573ffffffffffffffffffffffffffffffffffffffff1673ffffffffffffffffffffffffffffffffffffffff16815260200190815260200160002081905550611121565b6040517f08c379a000000000000000000000000000000000000000000000000000000000815260040161111890613776565b60405180910390fd5b5b7f62c1e066774519db9fe35767c15fc33df2f016675b7cc0c330ed185f286a2d5283836040516111539291906135e3565b60405180910390a150611193565b6040517f61685c2b00000000000000000000000000000000000000000000000000000000815260040160405180910390fd5b5050565b338073ffffffffffffffffffffffffffffffffffffffff163373ffffffffffffffffffffffffffffffffffffffff16146111fd576040517fa6d49fb600000000000000000000000000000000000000000000000000000000815260040160405180910390fd5b6000600860003373ffffffffffffffffffffffffffffffffffffffff1673ffffffffffffffffffffffffffffffffffffffff168152602001908152602001600020549050600181101561127c576040517f2ba75b2500000000000000000000000000000000000000000000000000000000815260040160405180910390fd5b60038111156112b7576040517f9fdf115e00000000000000000000000000000000000000000000000000000000815260040160405180910390fd5b600033905084600360008373ffffffffffffffffffffffffffffffffffffffff1673ffffffffffffffffffffffffffffffffffffffff168152602001908152602001600020541015611335576040517ff4d678b800000000000000000000000000000000000000000000000000000000815260040160405180910390fd5b6003851161136f576040517ff672dfca00000000000000000000000000000000000000000000000000000000815260040160405180910390fd5b84600360008373ffffffffffffffffffffffffffffffffffffffff1673ffffffffffffffffffffffffffffffffffffffff16815260200190815260200160002060008282546113be919061396e565b9250508190555084600360008873ffffffffffffffffffffffffffffffffffffffff1673ffffffffffffffffffffffffffffffffffffffff16815260200190815260200160002060008282546114149190613918565b92505081905550600860008273ffffffffffffffffffffffffffffffffffffffff1673ffffffffffffffffffffffffffffffffffffffff16815260200190815260200160002054600360008373ffffffffffffffffffffffffffffffffffffffff1673ffffffffffffffffffffffffffffffffffffffff16815260200190815260200160002060008282546114a99190613918565b92505081905550600860008273ffffffffffffffffffffffffffffffffffffffff1673ffffffffffffffffffffffffffffffffffffffff16815260200190815260200160002054600360008873ffffffffffffffffffffffffffffffffffffffff1673ffffffffffffffffffffffffffffffffffffffff168152602001908152602001600020600082825461153e919061396e565b92505081905550604051806060016040528060008152602001600081526020016000815250601260008373ffffffffffffffffffffffffffffffffffffffff1673ffffffffffffffffffffffffffffffffffffffff1681526020019081526020016000206000820151816000015560208201518160010155604082015181600201559050506000601260008373ffffffffffffffffffffffffffffffffffffffff1673ffffffffffffffffffffffffffffffffffffffff16815260200190815260200160002090508460000151816000018190555084602001518160010181905550846040015181600201819055508673ffffffffffffffffffffffffffffffffffffffff167f98eaee7299e9cbfa56cf530fd3a0c6dfa0ccddf4f837b8f025651ad9594647b360405160405180910390a250505050505050565b60036020528060005260406000206000915090505481565b600560009054906101000a900473ffffffffffffffffffffffffffffffffffffffff1673ffffffffffffffffffffffffffffffffffffffff163373ffffffffffffffffffffffffffffffffffffffff161415611c57576001831015611722576040517fee7efd5700000000000000000000000000000000000000000000000000000000815260040160405180910390fd5b600182101561175d576040517f43ad20fc00000000000000000000000000000000000000000000000000000000815260040160405180910390fd5b600073ffffffffffffffffffffffffffffffffffffffff168473ffffffffffffffffffffffffffffffffffffffff1614156117c4576040517f1326d6d500000000000000000000000000000000000000000000000000000000815260040160405180910390fd5b60005b600760008673ffffffffffffffffffffffffffffffffffffffff1673ffffffffffffffffffffffffffffffffffffffff16815260200190815260200160002080549050811015611c515783600760008773ffffffffffffffffffffffffffffffffffffffff1673ffffffffffffffffffffffffffffffffffffffff1681526020019081526020016000208281548110611889577f4e487b7100000000000000000000000000000000000000000000000000000000600052603260045260246000fd5b9060005260206000209060050201600101541415611c3e576001600760008773ffffffffffffffffffffffffffffffffffffffff1673ffffffffffffffffffffffffffffffffffffffff168152602001908152602001600020828154811061191a577f4e487b7100000000000000000000000000000000000000000000000000000000600052603260045260246000fd5b906000526020600020906005020160000160016101000a81548160ff02191690831515021790555084600760008773ffffffffffffffffffffffffffffffffffffffff1673ffffffffffffffffffffffffffffffffffffffff16815260200190815260200160002082815481106119ba577f4e487b7100000000000000000000000000000000000000000000000000000000600052603260045260246000fd5b906000526020600020906005020160030160006101000a81548173ffffffffffffffffffffffffffffffffffffffff021916908373ffffffffffffffffffffffffffffffffffffffff16021790555081600760008773ffffffffffffffffffffffffffffffffffffffff1673ffffffffffffffffffffffffffffffffffffffff1681526020019081526020016000208281548110611a81577f4e487b7100000000000000000000000000000000000000000000000000000000600052603260045260246000fd5b906000526020600020906005020160000160006101000a81548160ff02191690836004811115611ada577f4e487b7100000000000000000000000000000000000000000000000000000000600052602160045260246000fd5b021790555082600760008773ffffffffffffffffffffffffffffffffffffffff1673ffffffffffffffffffffffffffffffffffffffff1681526020019081526020016000208281548110611b57577f4e487b7100000000000000000000000000000000000000000000000000000000600052603260045260246000fd5b906000526020600020906005020160040181905550611b778560016127e2565b50507ff41efc8c6b66b2a03b14fd69b985ad19a0b9245f24936163018e9ad06d4c143e338585600760008a73ffffffffffffffffffffffffffffffffffffffff1673ffffffffffffffffffffffffffffffffffffffff1681526020019081526020016000208581548110611c14577f4e487b7100000000000000000000000000000000000000000000000000000000600052603260045260246000fd5b9060005260206000209060050201600201604051611c35949392919061360c565b60405180910390a15b8080611c4990613aa5565b9150506117c7565b5061224b565b600960003373ffffffffffffffffffffffffffffffffffffffff1673ffffffffffffffffffffffffffffffffffffffff16815260200190815260200160002060009054906101000a900460ff1615612219576001831015611ce4576040517fee7efd5700000000000000000000000000000000000000000000000000000000815260040160405180910390fd5b6001821015611d1f576040517f43ad20fc00000000000000000000000000000000000000000000000000000000815260040160405180910390fd5b600073ffffffffffffffffffffffffffffffffffffffff168473ffffffffffffffffffffffffffffffffffffffff161415611d86576040517f1326d6d500000000000000000000000000000000000000000000000000000000815260040160405180910390fd5b60005b600760008673ffffffffffffffffffffffffffffffffffffffff1673ffffffffffffffffffffffffffffffffffffffff168152602001908152602001600020805490508110156122135783600760008773ffffffffffffffffffffffffffffffffffffffff1673ffffffffffffffffffffffffffffffffffffffff1681526020019081526020016000208281548110611e4b577f4e487b7100000000000000000000000000000000000000000000000000000000600052603260045260246000fd5b9060005260206000209060050201600101541415612200576001600760008773ffffffffffffffffffffffffffffffffffffffff1673ffffffffffffffffffffffffffffffffffffffff1681526020019081526020016000208281548110611edc577f4e487b7100000000000000000000000000000000000000000000000000000000600052603260045260246000fd5b906000526020600020906005020160000160016101000a81548160ff02191690831515021790555084600760008773ffffffffffffffffffffffffffffffffffffffff1673ffffffffffffffffffffffffffffffffffffffff1681526020019081526020016000208281548110611f7c577f4e487b7100000000000000000000000000000000000000000000000000000000600052603260045260246000fd5b906000526020600020906005020160030160006101000a81548173ffffffffffffffffffffffffffffffffffffffff021916908373ffffffffffffffffffffffffffffffffffffffff16021790555081600760008773ffffffffffffffffffffffffffffffffffffffff1673ffffffffffffffffffffffffffffffffffffffff1681526020019081526020016000208281548110612043577f4e487b7100000000000000000000000000000000000000000000000000000000600052603260045260246000fd5b906000526020600020906005020160000160006101000a81548160ff0219169083600481111561209c577f4e487b7100000000000000000000000000000000000000000000000000000000600052602160045260246000fd5b021790555082600760008773ffffffffffffffffffffffffffffffffffffffff1673ffffffffffffffffffffffffffffffffffffffff1681526020019081526020016000208281548110612119577f4e487b7100000000000000000000000000000000000000000000000000000000600052603260045260246000fd5b9060005260206000209060050201600401819055506121398560016127e2565b50507ff41efc8c6b66b2a03b14fd69b985ad19a0b9245f24936163018e9ad06d4c143e338585600760008a73ffffffffffffffffffffffffffffffffffffffff1673ffffffffffffffffffffffffffffffffffffffff16815260200190815260200160002085815481106121d6577f4e487b7100000000000000000000000000000000000000000000000000000000600052603260045260246000fd5b90600052602060002090600502016002016040516121f7949392919061360c565b60405180910390a15b808061220b90613aa5565b915050611d89565b5061224b565b6040517f61685c2b00000000000000000000000000000000000000000000000000000000815260040160405180910390fd5b50505050565b60008033905084600360008373ffffffffffffffffffffffffffffffffffffffff1673ffffffffffffffffffffffffffffffffffffffff1681526020019081526020016000205410156122d0576040517ff4d678b800000000000000000000000000000000000000000000000000000000815260040160405180910390fd5b600884849050111561230e576040517f4ebd961a00000000000000000000000000000000000000000000000000000000815260040160405180910390fd5b84600360008373ffffffffffffffffffffffffffffffffffffffff1673ffffffffffffffffffffffffffffffffffffffff168152602001908152602001600020600082825461235d919061396e565b9250508190555084600360008873ffffffffffffffffffffffffffffffffffffffff1673ffffffffffffffffffffffffffffffffffffffff16815260200190815260200160002060008282546123b39190613918565b925050819055507f69ca02dd4edd7bf0a4abb9ed3b7af3f14778db5d61921c7dc7cd545266326de286866040516123eb9291906135e3565b60405180910390a16123fb612db5565b60008160a0019073ffffffffffffffffffffffffffffffffffffffff16908173ffffffffffffffffffffffffffffffffffffffff16815250506000816020019015159081151581525050600181600001906004811115612484577f4e487b7100000000000000000000000000000000000000000000000000000000600052602160045260246000fd5b908160048111156124be577f4e487b7100000000000000000000000000000000000000000000000000000000600052602160045260246000fd5b8152505086816040019073ffffffffffffffffffffffffffffffffffffffff16908173ffffffffffffffffffffffffffffffffffffffff1681525050858160c001818152505084848080601f016020809104026020016040519081016040528093929190818152602001838380828437600081840152601f19601f82011690508083019250505050505050816080018190525060026000815461256090613aa5565b919050819055816060018181525050600760008373ffffffffffffffffffffffffffffffffffffffff1673ffffffffffffffffffffffffffffffffffffffff16815260200190815260200160002081908060018154018082558091505060019003906000526020600020906005020160009091909190915060008201518160000160006101000a81548160ff02191690836004811115612629577f4e487b7100000000000000000000000000000000000000000000000000000000600052602160045260246000fd5b021790555060208201518160000160016101000a81548160ff02191690831515021790555060408201518160000160026101000a81548173ffffffffffffffffffffffffffffffffffffffff021916908373ffffffffffffffffffffffffffffffffffffffff1602179055506060820151816001015560808201518160020190805190602001906126bb929190612e58565b5060a08201518160030160006101000a81548173ffffffffffffffffffffffffffffffffffffffff021916908373ffffffffffffffffffffffffffffffffffffffff16021790555060c08201518160040155505060006004541192505050949350505050565b60126020528060005260406000206000915090508060000154908060010154908060020154905083565b60065481565b600080600360008473ffffffffffffffffffffffffffffffffffffffff1673ffffffffffffffffffffffffffffffffffffffff16815260200190815260200160002054905080915050919050565b6127a7612c6b565b6127b16000612ce9565b565b60025481565b60008060009054906101000a900473ffffffffffffffffffffffffffffffffffffffff16905090565b6000806127ed612ede565b438160400181815250504281600001818152505084816020019073ffffffffffffffffffffffffffffffffffffffff16908173ffffffffffffffffffffffffffffffffffffffff1681525050600f8190806001815401808255809150506001900390600052602060002090600302016000909190919091506000820151816000015560208201518160010160006101000a81548173ffffffffffffffffffffffffffffffffffffffff021916908373ffffffffffffffffffffffffffffffffffffffff1602179055506040820151816002015550506000600454118492509250509250929050565b60006001905090565b60086020528060005260406000206000915090505481565b600560149054906101000a900460ff1681565b60116020528060005260406000206000915090505481565b600f818154811061293157600080fd5b90600052602060002090600302016000915090508060000154908060010160009054906101000a900473ffffffffffffffffffffffffffffffffffffffff16908060020154905083565b6007602052816000526040600020818154811061299757600080fd5b9060005260206000209060050201600091509150508060000160009054906101000a900460ff16908060000160019054906101000a900460ff16908060000160029054906101000a900473ffffffffffffffffffffffffffffffffffffffff1690806001015490806002018054612a0d90613a42565b80601f0160208091040260200160405190810160405280929190818152602001828054612a3990613a42565b8015612a865780601f10612a5b57610100808354040283529160200191612a86565b820191906000526020600020905b815481529060010190602001808311612a6957829003601f168201915b5050505050908060030160009054906101000a900473ffffffffffffffffffffffffffffffffffffffff16908060040154905087565b6060600f805480602002602001604051908101604052809291908181526020016000905b82821015612b7c5783829060005260206000209060030201604051806060016040529081600082015481526020016001820160009054906101000a900473ffffffffffffffffffffffffffffffffffffffff1673ffffffffffffffffffffffffffffffffffffffff1673ffffffffffffffffffffffffffffffffffffffff16815260200160028201548152505081526020019060010190612ae0565b50505050905090565b60045481565b600560009054906101000a900473ffffffffffffffffffffffffffffffffffffffff1681565b600a8160058110612bc157600080fd5b016000915054906101000a900473ffffffffffffffffffffffffffffffffffffffff1681565b612bef612c6b565b600073ffffffffffffffffffffffffffffffffffffffff168173ffffffffffffffffffffffffffffffffffffffff161415612c5f576040517f08c379a0000000000000000000000000000000000000000000000000000000008152600401612c5690613756565b60405180910390fd5b612c6881612ce9565b50565b612c73612dad565b73ffffffffffffffffffffffffffffffffffffffff16612c916127b9565b73ffffffffffffffffffffffffffffffffffffffff1614612ce7576040517f08c379a0000000000000000000000000000000000000000000000000000000008152600401612cde90613796565b60405180910390fd5b565b60008060009054906101000a900473ffffffffffffffffffffffffffffffffffffffff169050816000806101000a81548173ffffffffffffffffffffffffffffffffffffffff021916908373ffffffffffffffffffffffffffffffffffffffff1602179055508173ffffffffffffffffffffffffffffffffffffffff168173ffffffffffffffffffffffffffffffffffffffff167f8be0079c531659141344cd1fd0a4f28419497f9722a3daafe3b4186f6b6457e060405160405180910390a35050565b600033905090565b6040518060e0016040528060006004811115612dfa577f4e487b7100000000000000000000000000000000000000000000000000000000600052602160045260246000fd5b8152602001600015158152602001600073ffffffffffffffffffffffffffffffffffffffff1681526020016000815260200160608152602001600073ffffffffffffffffffffffffffffffffffffffff168152602001600081525090565b828054612e6490613a42565b90600052602060002090601f016020900481019282612e865760008555612ecd565b82601f10612e9f57805160ff1916838001178555612ecd565b82800160010185558215612ecd579182015b82811115612ecc578251825591602001919060010190612eb1565b5b509050612eda9190612f15565b5090565b604051806060016040528060008152602001600073ffffffffffffffffffffffffffffffffffffffff168152602001600081525090565b5b80821115612f2e576000816000905550600101612f16565b5090565b600081359050612f4181613c96565b92915050565b600081359050612f5681613cad565b92915050565b600081359050612f6b81613cc4565b92915050565b60008083601f840112612f8357600080fd5b8235905067ffffffffffffffff811115612f9c57600080fd5b602083019150836001820283011115612fb457600080fd5b9250929050565b600060608284031215612fcd57600080fd5b612fd7606061383f565b90506000612fe78482850161301b565b6000830152506020612ffb8482850161301b565b602083015250604061300f8482850161301b565b60408301525092915050565b60008135905061302a81613cd4565b92915050565b60006020828403121561304257600080fd5b600061305084828501612f32565b91505092915050565b6000806040838503121561306c57600080fd5b600061307a85828601612f32565b925050602061308b85828601612f47565b9150509250929050565b600080604083850312156130a857600080fd5b60006130b685828601612f32565b92505060206130c78582860161301b565b9150509250929050565b600080600080606085870312156130e757600080fd5b60006130f587828801612f32565b94505060206131068782880161301b565b935050604085013567ffffffffffffffff81111561312357600080fd5b61312f87828801612f71565b925092505092959194509250565b600080600060a0848603121561315257600080fd5b600061316086828701612f32565b93505060206131718682870161301b565b925050604061318286828701612fbb565b9150509250925092565b600080600080608085870312156131a257600080fd5b60006131b087828801612f32565b94505060206131c18782880161301b565b93505060406131d28782880161301b565b92505060606131e387828801612f5c565b91505092959194509250565b60006020828403121561320157600080fd5b600061320f8482850161301b565b91505092915050565b600061322483836134cc565b60608301905092915050565b600061323c838361350e565b905092915050565b61324d816139a2565b82525050565b61325c816139a2565b82525050565b600061326d82613899565b61327781856138d4565b935061328283613864565b8060005b838110156132b357815161329a8882613218565b97506132a5836138ba565b925050600181019050613286565b5085935050505092915050565b60006132cb826138a4565b6132d581856138e5565b9350836020820285016132e785613874565b8060005b8581101561332357848403895281516133048582613230565b945061330f836138c7565b925060208a019950506001810190506132eb565b50829750879550505050505092915050565b61333e816139b4565b82525050565b61334d816139b4565b82525050565b61335c816139fd565b82525050565b61336b816139fd565b82525050565b600061337c826138af565b61338681856138f6565b9350613396818560208601613a0f565b61339f81613baa565b840191505092915050565b60006133b5826138af565b6133bf8185613907565b93506133cf818560208601613a0f565b6133d881613baa565b840191505092915050565b600081546133f081613a42565b6133fa8186613907565b9450600182166000811461341557600181146134275761345a565b60ff198316865260208601935061345a565b61343085613884565b60005b8381101561345257815481890152600182019150602081019050613433565b808801955050505b50505092915050565b6000613470602683613907565b915061347b82613bbb565b604082019050919050565b6000613493602583613907565b915061349e82613c0a565b604082019050919050565b60006134b6602083613907565b91506134c182613c59565b602082019050919050565b6060820160008201516134e260008501826135aa565b5060208201516134f56020850182613244565b50604082015161350860408501826135aa565b50505050565b600060e0830160008301516135266000860182613353565b5060208301516135396020860182613335565b50604083015161354c6040860182613244565b50606083015161355f60608601826135aa565b50608083015184820360808601526135778282613371565b91505060a083015161358c60a0860182613244565b5060c083015161359f60c08601826135aa565b508091505092915050565b6135b3816139f3565b82525050565b6135c2816139f3565b82525050565b60006020820190506135dd6000830184613253565b92915050565b60006040820190506135f86000830185613253565b61360560208301846135b9565b9392505050565b60006080820190506136216000830187613253565b61362e60208301866135b9565b61363b60408301856135b9565b818103606083015261364d81846133e3565b905095945050505050565b600060208201905081810360008301526136728184613262565b905092915050565b6000602082019050818103600083015261369481846132c0565b905092915050565b60006020820190506136b16000830184613344565b92915050565b60006040820190506136cc6000830185613344565b6136d96020830184613344565b9392505050565b600060e0820190506136f5600083018a613362565b6137026020830189613344565b61370f6040830188613253565b61371c60608301876135b9565b818103608083015261372e81866133aa565b905061373d60a0830185613253565b61374a60c08301846135b9565b98975050505050505050565b6000602082019050818103600083015261376f81613463565b9050919050565b6000602082019050818103600083015261378f81613486565b9050919050565b600060208201905081810360008301526137af816134a9565b9050919050565b60006020820190506137cb60008301846135b9565b92915050565b60006060820190506137e660008301866135b9565b6137f36020830185613253565b61380060408301846135b9565b949350505050565b600060608201905061381d60008301866135b9565b61382a60208301856135b9565b61383760408301846135b9565b949350505050565b600061384961385a565b90506138558282613a74565b919050565b6000604051905090565b6000819050602082019050919050565b6000819050602082019050919050565b60008190508160005260206000209050919050565b600081519050919050565b600081519050919050565b600081519050919050565b6000602082019050919050565b6000602082019050919050565b600082825260208201905092915050565b600082825260208201905092915050565b600082825260208201905092915050565b600082825260208201905092915050565b6000613923826139f3565b915061392e836139f3565b9250827fffffffffffffffffffffffffffffffffffffffffffffffffffffffffffffffff0382111561396357613962613aee565b5b828201905092915050565b6000613979826139f3565b9150613984836139f3565b92508282101561399757613996613aee565b5b828203905092915050565b60006139ad826139d3565b9050919050565b60008115159050919050565b60008190506139ce82613c82565b919050565b600073ffffffffffffffffffffffffffffffffffffffff82169050919050565b6000819050919050565b6000613a08826139c0565b9050919050565b60005b83811015613a2d578082015181840152602081019050613a12565b83811115613a3c576000848401525b50505050565b60006002820490506001821680613a5a57607f821691505b60208210811415613a6e57613a6d613b4c565b5b50919050565b613a7d82613baa565b810181811067ffffffffffffffff82111715613a9c57613a9b613b7b565b5b80604052505050565b6000613ab0826139f3565b91507fffffffffffffffffffffffffffffffffffffffffffffffffffffffffffffffff821415613ae357613ae2613aee565b5b600182019050919050565b7f4e487b7100000000000000000000000000000000000000000000000000000000600052601160045260246000fd5b7f4e487b7100000000000000000000000000000000000000000000000000000000600052602160045260246000fd5b7f4e487b7100000000000000000000000000000000000000000000000000000000600052602260045260246000fd5b7f4e487b7100000000000000000000000000000000000000000000000000000000600052604160045260246000fd5b6000601f19601f8301169050919050565b7f4f776e61626c653a206e6577206f776e657220697320746865207a65726f206160008201527f6464726573730000000000000000000000000000000000000000000000000000602082015250565b7f436f6e7472616374206861636b65642c20696d706f7369626c652c2063616c6c60008201527f2068656c70000000000000000000000000000000000000000000000000000000602082015250565b7f4f776e61626c653a2063616c6c6572206973206e6f7420746865206f776e6572600082015250565b60058110613c9357613c92613b1d565b5b50565b613c9f816139a2565b8114613caa57600080fd5b50565b613cb6816139b4565b8114613cc157600080fd5b50565b60058110613cd157600080fd5b50565b613cdd816139f3565b8114613ce857600080fd5b5056fea264697066735822122094ab8c5a810946e198dbf12197fe3532d034e560ad23725c4fa4ff9e3976abdc64736f6c63430008040033",
  "linkReferences": {},
  "deployedLinkReferences": {}
}