{
  "_format": "hh-sol-artifact-1",
  "contractName": "GasContract",
  "sourceName": "contracts/Gas.sol",
  "abi": [
    {
      "inputs": [
        {
          "internalType": "address[]",
          "name": "_admins",
          "type": "address[]"
        },
        {
          "internalType": "uint256",
          "name": "_totalSupply",
          "type": "uint256"
        }
      ],
      "stateMutability": "nonpayable",
      "type": "constructor"
    },
    {
      "anonymous": false,
      "inputs": [
        {
          "indexed": false,
          "internalType": "address",
          "name": "userAddress",
          "type": "address"
        },
        {
          "indexed": false,
          "internalType": "uint256",
          "name": "tier",
          "type": "uint256"
        }
      ],
      "name": "AddedToWhitelist",
      "type": "event"
    },
    {
      "anonymous": false,
      "inputs": [
        {
          "indexed": true,
          "internalType": "address",
          "name": "previousOwner",
          "type": "address"
        },
        {
          "indexed": true,
          "internalType": "address",
          "name": "newOwner",
          "type": "address"
        }
      ],
      "name": "OwnershipTransferred",
      "type": "event"
    },
    {
      "anonymous": false,
      "inputs": [
        {
          "indexed": false,
          "internalType": "address",
          "name": "admin",
          "type": "address"
        },
        {
          "indexed": false,
          "internalType": "uint256",
          "name": "ID",
          "type": "uint256"
        },
        {
          "indexed": false,
          "internalType": "uint256",
          "name": "amount",
          "type": "uint256"
        },
        {
          "indexed": false,
          "internalType": "string",
          "name": "recipient",
          "type": "string"
        }
      ],
      "name": "PaymentUpdated",
      "type": "event"
    },
    {
      "anonymous": false,
      "inputs": [
        {
          "indexed": false,
          "internalType": "address",
          "name": "recipient",
          "type": "address"
        },
        {
          "indexed": false,
          "internalType": "uint256",
          "name": "amount",
          "type": "uint256"
        }
      ],
      "name": "Transfer",
      "type": "event"
    },
    {
      "anonymous": false,
      "inputs": [
        {
          "indexed": true,
          "internalType": "address",
          "name": "",
          "type": "address"
        }
      ],
      "name": "WhiteListTransfer",
      "type": "event"
    },
    {
      "anonymous": false,
      "inputs": [
        {
          "indexed": true,
          "internalType": "address",
          "name": "",
          "type": "address"
        },
        {
          "indexed": true,
          "internalType": "uint256",
          "name": "",
          "type": "uint256"
        }
      ],
      "name": "supplyChanged",
      "type": "event"
    },
    {
      "inputs": [
        {
          "internalType": "address",
          "name": "_updateAddress",
          "type": "address"
        },
        {
          "internalType": "bool",
          "name": "_tradeMode",
          "type": "bool"
        }
      ],
      "name": "addHistory",
      "outputs": [
        {
          "internalType": "bool",
          "name": "status_",
          "type": "bool"
        },
        {
          "internalType": "bool",
          "name": "tradeMode_",
          "type": "bool"
        }
      ],
      "stateMutability": "nonpayable",
      "type": "function"
    },
    {
      "inputs": [
        {
          "internalType": "address",
          "name": "_userAddrs",
          "type": "address"
        },
        {
          "internalType": "uint256",
          "name": "_tier",
          "type": "uint256"
        }
      ],
      "name": "addToWhitelist",
      "outputs": [],
      "stateMutability": "nonpayable",
      "type": "function"
    },
    {
      "inputs": [
        {
          "internalType": "uint256",
          "name": "",
          "type": "uint256"
        }
      ],
      "name": "administrators",
      "outputs": [
        {
          "internalType": "address",
          "name": "",
          "type": "address"
        }
      ],
      "stateMutability": "view",
      "type": "function"
    },
    {
      "inputs": [
        {
          "internalType": "address",
          "name": "_user",
          "type": "address"
        }
      ],
      "name": "balanceOf",
      "outputs": [
        {
          "internalType": "uint256",
          "name": "balance_",
          "type": "uint256"
        }
      ],
      "stateMutability": "view",
      "type": "function"
    },
    {
      "inputs": [
        {
          "internalType": "address",
          "name": "",
          "type": "address"
        }
      ],
      "name": "balances",
      "outputs": [
        {
          "internalType": "uint256",
          "name": "",
          "type": "uint256"
        }
      ],
      "stateMutability": "view",
      "type": "function"
    },
    {
      "inputs": [],
      "name": "basicFlag",
      "outputs": [
        {
          "internalType": "uint256",
          "name": "",
          "type": "uint256"
        }
      ],
      "stateMutability": "view",
      "type": "function"
    },
    {
      "inputs": [
        {
          "internalType": "address",
          "name": "_user",
          "type": "address"
        }
      ],
      "name": "checkForAdmin",
      "outputs": [
        {
          "internalType": "bool",
          "name": "",
          "type": "bool"
        }
      ],
      "stateMutability": "view",
      "type": "function"
    },
    {
      "inputs": [],
      "name": "contractOwner",
      "outputs": [
        {
          "internalType": "address",
          "name": "",
          "type": "address"
        }
      ],
      "stateMutability": "view",
      "type": "function"
    },
    {
      "inputs": [],
      "name": "dividendFlag",
      "outputs": [
        {
          "internalType": "uint256",
          "name": "",
          "type": "uint256"
        }
      ],
      "stateMutability": "view",
      "type": "function"
    },
    {
      "inputs": [],
      "name": "getPaymentHistory",
      "outputs": [
        {
          "components": [
            {
              "internalType": "uint256",
              "name": "lastUpdate",
              "type": "uint256"
            },
            {
              "internalType": "address",
              "name": "updatedBy",
              "type": "address"
            },
            {
              "internalType": "uint256",
              "name": "blockNumber",
              "type": "uint256"
            }
          ],
          "internalType": "struct GasContract.History[]",
          "name": "paymentHistory_",
          "type": "tuple[]"
        }
      ],
      "stateMutability": "payable",
      "type": "function"
    },
    {
      "inputs": [
        {
          "internalType": "address",
          "name": "_user",
          "type": "address"
        }
      ],
      "name": "getPayments",
      "outputs": [
        {
          "components": [
            {
              "internalType": "enum GasContract.PaymentType",
              "name": "paymentType",
              "type": "uint8"
            },
            {
              "internalType": "uint256",
              "name": "paymentID",
              "type": "uint256"
            },
            {
              "internalType": "bool",
              "name": "adminUpdated",
              "type": "bool"
            },
            {
              "internalType": "string",
              "name": "recipientName",
              "type": "string"
            },
            {
              "internalType": "address",
              "name": "recipient",
              "type": "address"
            },
            {
              "internalType": "address",
              "name": "admin",
              "type": "address"
            },
            {
              "internalType": "uint256",
              "name": "amount",
              "type": "uint256"
            }
          ],
          "internalType": "struct GasContract.Payment[]",
          "name": "payments_",
          "type": "tuple[]"
        }
      ],
      "stateMutability": "view",
      "type": "function"
    },
    {
      "inputs": [],
      "name": "getTradingMode",
      "outputs": [
        {
          "internalType": "bool",
          "name": "mode_",
          "type": "bool"
        }
      ],
      "stateMutability": "view",
      "type": "function"
    },
    {
      "inputs": [
        {
          "internalType": "address",
          "name": "",
          "type": "address"
        }
      ],
      "name": "isOddWhitelistUser",
      "outputs": [
        {
          "internalType": "uint256",
          "name": "",
          "type": "uint256"
        }
      ],
      "stateMutability": "view",
      "type": "function"
    },
    {
      "inputs": [],
      "name": "isReady",
      "outputs": [
        {
          "internalType": "bool",
          "name": "",
          "type": "bool"
        }
      ],
      "stateMutability": "view",
      "type": "function"
    },
    {
      "inputs": [],
      "name": "owner",
      "outputs": [
        {
          "internalType": "address",
          "name": "",
          "type": "address"
        }
      ],
      "stateMutability": "view",
      "type": "function"
    },
    {
      "inputs": [],
      "name": "paymentCounter",
      "outputs": [
        {
          "internalType": "uint256",
          "name": "",
          "type": "uint256"
        }
      ],
      "stateMutability": "view",
      "type": "function"
    },
    {
      "inputs": [
        {
          "internalType": "uint256",
          "name": "",
          "type": "uint256"
        }
      ],
      "name": "paymentHistory",
      "outputs": [
        {
          "internalType": "uint256",
          "name": "lastUpdate",
          "type": "uint256"
        },
        {
          "internalType": "address",
          "name": "updatedBy",
          "type": "address"
        },
        {
          "internalType": "uint256",
          "name": "blockNumber",
          "type": "uint256"
        }
      ],
      "stateMutability": "view",
      "type": "function"
    },
    {
      "inputs": [
        {
          "internalType": "address",
          "name": "",
          "type": "address"
        },
        {
          "internalType": "uint256",
          "name": "",
          "type": "uint256"
        }
      ],
      "name": "payments",
      "outputs": [
        {
          "internalType": "enum GasContract.PaymentType",
          "name": "paymentType",
          "type": "uint8"
        },
        {
          "internalType": "uint256",
          "name": "paymentID",
          "type": "uint256"
        },
        {
          "internalType": "bool",
          "name": "adminUpdated",
          "type": "bool"
        },
        {
          "internalType": "string",
          "name": "recipientName",
          "type": "string"
        },
        {
          "internalType": "address",
          "name": "recipient",
          "type": "address"
        },
        {
          "internalType": "address",
          "name": "admin",
          "type": "address"
        },
        {
          "internalType": "uint256",
          "name": "amount",
          "type": "uint256"
        }
      ],
      "stateMutability": "view",
      "type": "function"
    },
    {
      "inputs": [],
      "name": "renounceOwnership",
      "outputs": [],
      "stateMutability": "nonpayable",
      "type": "function"
    },
    {
      "inputs": [],
      "name": "totalSupply",
      "outputs": [
        {
          "internalType": "uint256",
          "name": "",
          "type": "uint256"
        }
      ],
      "stateMutability": "view",
      "type": "function"
    },
    {
      "inputs": [],
      "name": "tradeFlag",
      "outputs": [
        {
          "internalType": "uint256",
          "name": "",
          "type": "uint256"
        }
      ],
      "stateMutability": "view",
      "type": "function"
    },
    {
      "inputs": [],
      "name": "tradeMode",
      "outputs": [
        {
          "internalType": "uint256",
          "name": "",
          "type": "uint256"
        }
      ],
      "stateMutability": "view",
      "type": "function"
    },
    {
      "inputs": [],
      "name": "tradePercent",
      "outputs": [
        {
          "internalType": "uint256",
          "name": "",
          "type": "uint256"
        }
      ],
      "stateMutability": "view",
      "type": "function"
    },
    {
      "inputs": [
        {
          "internalType": "address",
          "name": "_recipient",
          "type": "address"
        },
        {
          "internalType": "uint256",
          "name": "_amount",
          "type": "uint256"
        },
        {
          "internalType": "string",
          "name": "_name",
          "type": "string"
        }
      ],
      "name": "transfer",
      "outputs": [
        {
          "internalType": "bool",
          "name": "status_",
          "type": "bool"
        }
      ],
      "stateMutability": "nonpayable",
      "type": "function"
    },
    {
      "inputs": [
        {
          "internalType": "address",
          "name": "newOwner",
          "type": "address"
        }
      ],
      "name": "transferOwnership",
      "outputs": [],
      "stateMutability": "nonpayable",
      "type": "function"
    },
    {
      "inputs": [
        {
          "internalType": "address",
          "name": "_user",
          "type": "address"
        },
        {
          "internalType": "uint256",
          "name": "_ID",
          "type": "uint256"
        },
        {
          "internalType": "uint256",
          "name": "_amount",
          "type": "uint256"
        },
        {
          "internalType": "enum GasContract.PaymentType",
          "name": "_type",
          "type": "uint8"
        }
      ],
      "name": "updatePayment",
      "outputs": [],
      "stateMutability": "nonpayable",
      "type": "function"
    },
    {
      "inputs": [
        {
          "internalType": "address",
          "name": "",
          "type": "address"
        }
      ],
      "name": "whiteListStruct",
      "outputs": [
        {
          "internalType": "uint256",
          "name": "valueA",
          "type": "uint256"
        },
        {
          "internalType": "uint256",
          "name": "bigValue",
          "type": "uint256"
        },
        {
          "internalType": "uint256",
          "name": "valueB",
          "type": "uint256"
        }
      ],
      "stateMutability": "view",
      "type": "function"
    },
    {
      "inputs": [
        {
          "internalType": "address",
          "name": "_recipient",
          "type": "address"
        },
        {
          "internalType": "uint256",
          "name": "_amount",
          "type": "uint256"
        },
        {
          "components": [
            {
              "internalType": "uint256",
              "name": "valueA",
              "type": "uint256"
            },
            {
              "internalType": "uint256",
              "name": "bigValue",
              "type": "uint256"
            },
            {
              "internalType": "uint256",
              "name": "valueB",
              "type": "uint256"
            }
          ],
          "internalType": "struct GasContract.ImportantStruct",
          "name": "_struct",
          "type": "tuple"
        }
      ],
      "name": "whiteTransfer",
      "outputs": [],
      "stateMutability": "nonpayable",
      "type": "function"
    },
    {
      "inputs": [
        {
          "internalType": "address",
          "name": "",
          "type": "address"
        }
      ],
      "name": "whitelist",
      "outputs": [
        {
          "internalType": "uint256",
          "name": "",
          "type": "uint256"
        }
      ],
      "stateMutability": "view",
      "type": "function"
    }
  ],
  "bytecode": "0x6080604052600180556000600255600160035560006004556000600555600c60075560006009556000601160006101000a81548160ff02191690831515021790555060016013553480156200005357600080fd5b5060405162005470380380620054708339818101604052810190620000799190620007ad565b620000996200008d6200061160201b60201c565b6200061960201b60201c565b33600860006101000a81548173ffffffffffffffffffffffffffffffffffffffff021916908373ffffffffffffffffffffffffffffffffffffffff1602179055508060048190555060005b60058110156200060857600073ffffffffffffffffffffffffffffffffffffffff1683828151811062000140577f4e487b7100000000000000000000000000000000000000000000000000000000600052603260045260246000fd5b602002602001015173ffffffffffffffffffffffffffffffffffffffff1614620005f2578281815181106200019e577f4e487b7100000000000000000000000000000000000000000000000000000000600052603260045260246000fd5b6020026020010151600c8260058110620001e1577f4e487b7100000000000000000000000000000000000000000000000000000000600052603260045260246000fd5b0160006101000a81548173ffffffffffffffffffffffffffffffffffffffff021916908373ffffffffffffffffffffffffffffffffffffffff160217905550600860009054906101000a900473ffffffffffffffffffffffffffffffffffffffff1673ffffffffffffffffffffffffffffffffffffffff1683828151811062000293577f4e487b7100000000000000000000000000000000000000000000000000000000600052603260045260246000fd5b602002602001015173ffffffffffffffffffffffffffffffffffffffff161415620003265760045460066000600860009054906101000a900473ffffffffffffffffffffffffffffffffffffffff1673ffffffffffffffffffffffffffffffffffffffff1673ffffffffffffffffffffffffffffffffffffffff16815260200190815260200160002081905550620003ad565b60006006600085848151811062000366577f4e487b7100000000000000000000000000000000000000000000000000000000600052603260045260246000fd5b602002602001015173ffffffffffffffffffffffffffffffffffffffff1673ffffffffffffffffffffffffffffffffffffffff168152602001908152602001600020819055505b600860009054906101000a900473ffffffffffffffffffffffffffffffffffffffff1673ffffffffffffffffffffffffffffffffffffffff1683828151811062000420577f4e487b7100000000000000000000000000000000000000000000000000000000600052603260045260246000fd5b602002602001015173ffffffffffffffffffffffffffffffffffffffff161415620004d25760045483828151811062000482577f4e487b7100000000000000000000000000000000000000000000000000000000600052603260045260246000fd5b602002602001015173ffffffffffffffffffffffffffffffffffffffff167ffbd610cf0373947747ba15effd5e459c81db984f8723671458c0e8624428ab0460405160405180910390a3620005f1565b600860009054906101000a900473ffffffffffffffffffffffffffffffffffffffff1673ffffffffffffffffffffffffffffffffffffffff1683828151811062000545577f4e487b7100000000000000000000000000000000000000000000000000000000600052603260045260246000fd5b602002602001015173ffffffffffffffffffffffffffffffffffffffff1614620005f0576000838281518110620005a5577f4e487b7100000000000000000000000000000000000000000000000000000000600052603260045260246000fd5b602002602001015173ffffffffffffffffffffffffffffffffffffffff167ffbd610cf0373947747ba15effd5e459c81db984f8723671458c0e8624428ab0460405160405180910390a35b5b5b8080620005ff90620008a8565b915050620000e4565b50505062000988565b600033905090565b60008060009054906101000a900473ffffffffffffffffffffffffffffffffffffffff169050816000806101000a81548173ffffffffffffffffffffffffffffffffffffffff021916908373ffffffffffffffffffffffffffffffffffffffff1602179055508173ffffffffffffffffffffffffffffffffffffffff168173ffffffffffffffffffffffffffffffffffffffff167f8be0079c531659141344cd1fd0a4f28419497f9722a3daafe3b4186f6b6457e060405160405180910390a35050565b6000620006f4620006ee846200083b565b62000807565b905080838252602082019050828560208602820111156200071457600080fd5b60005b858110156200074857816200072d888262000752565b84526020840193506020830192505060018101905062000717565b5050509392505050565b600081519050620007638162000954565b92915050565b600082601f8301126200077b57600080fd5b81516200078d848260208601620006dd565b91505092915050565b600081519050620007a7816200096e565b92915050565b60008060408385031215620007c157600080fd5b600083015167ffffffffffffffff811115620007dc57600080fd5b620007ea8582860162000769565b9250506020620007fd8582860162000796565b9150509250929050565b6000604051905081810181811067ffffffffffffffff8211171562000831576200083062000925565b5b8060405250919050565b600067ffffffffffffffff82111562000859576200085862000925565b5b602082029050602081019050919050565b600062000877826200087e565b9050919050565b600073ffffffffffffffffffffffffffffffffffffffff82169050919050565b6000819050919050565b6000620008b5826200089e565b91507fffffffffffffffffffffffffffffffffffffffffffffffffffffffffffffffff821415620008eb57620008ea620008f6565b5b600182019050919050565b7f4e487b7100000000000000000000000000000000000000000000000000000000600052601160045260246000fd5b7f4e487b7100000000000000000000000000000000000000000000000000000000600052604160045260246000fd5b6200095f816200086a565b81146200096b57600080fd5b50565b62000979816200089e565b81146200098557600080fd5b50565b614ad880620009986000396000f3fe6080604052600436106101c25760003560e01c80638da5cb5b116100f7578063ab63385c11610095578063cbd5d73f11610064578063cbd5d73f146106a4578063ce606ee0146106cf578063d89d1510146106fa578063f2fde38b14610737576101c2565b8063ab63385c146105db578063b52d15e21461061e578063b651bb611461065b578063c43982cc14610679576101c2565b80639b19251a116100d15780639b19251a146104f7578063a094a03114610534578063a30da0691461055f578063a5e047b81461059c576101c2565b80638da5cb5b146104635780638efcf5c01461048e5780639a9f8383146104cc576101c2565b806356b8c7241161016457806370a082311161013e57806370a08231146103b9578063715018a6146103f6578063745b07c81461040d57806376840b6014610438576101c2565b806356b8c724146103125780635de458131461034f5780636fd47b441461038e576101c2565b806327df565a116101a057806327df565a1461025857806327e235e3146102815780632c01c922146102be5780634e86eb16146102e9576101c2565b806318160ddd146101c75780631d6a1711146101f2578063214405fc1461022f575b600080fd5b3480156101d357600080fd5b506101dc610760565b6040516101e99190614659565b60405180910390f35b3480156101fe57600080fd5b5061021960048036038101906102149190613323565b610766565b604051610226919061435d565b60405180910390f35b34801561023b57600080fd5b5061025660048036038101906102519190613388565b610a68565b005b34801561026457600080fd5b5061027f600480360381019061027a9190613430565b6112dc565b005b34801561028d57600080fd5b506102a860048036038101906102a39190613323565b6117ef565b6040516102b59190614659565b60405180910390f35b3480156102ca57600080fd5b506102d3611807565b6040516102e09190614659565b60405180910390f35b3480156102f557600080fd5b50610310600480360381019061030b919061347f565b61180d565b005b34801561031e57600080fd5b50610339600480360381019061033491906133c4565b612435565b604051610346919061437f565b60405180910390f35b34801561035b57600080fd5b5061037660048036038101906103719190613323565b612916565b604051610385939291906146ab565b60405180910390f35b34801561039a57600080fd5b506103a3612940565b6040516103b09190614659565b60405180910390f35b3480156103c557600080fd5b506103e060048036038101906103db9190613323565b612946565b6040516103ed9190614659565b60405180910390f35b34801561040257600080fd5b5061040b612994565b005b34801561041957600080fd5b506104226129a8565b60405161042f9190614659565b60405180910390f35b34801561044457600080fd5b5061044d6129ae565b60405161045a9190614659565b60405180910390f35b34801561046f57600080fd5b506104786129b4565b60405161048591906142ab565b60405180910390f35b34801561049a57600080fd5b506104b560048036038101906104b0919061334c565b6129dd565b6040516104c392919061439a565b60405180910390f35b3480156104d857600080fd5b506104e1612ad0565b6040516104ee919061437f565b60405180910390f35b34801561050357600080fd5b5061051e60048036038101906105199190613323565b612b03565b60405161052b9190614659565b60405180910390f35b34801561054057600080fd5b50610549612b1b565b604051610556919061437f565b60405180910390f35b34801561056b57600080fd5b5061058660048036038101906105819190613323565b612b2e565b6040516105939190614659565b60405180910390f35b3480156105a857600080fd5b506105c360048036038101906105be91906134e2565b612b46565b6040516105d293929190614674565b60405180910390f35b3480156105e757600080fd5b5061060260048036038101906105fd9190613388565b612ba0565b60405161061597969594939291906143c3565b60405180910390f35b34801561062a57600080fd5b5061064560048036038101906106409190613323565b612ce1565b604051610652919061437f565b60405180910390f35b610663612da9565b604051610670919061433b565b60405180910390f35b34801561068557600080fd5b5061068e612e72565b60405161069b9190614659565b60405180910390f35b3480156106b057600080fd5b506106b9612e78565b6040516106c69190614659565b60405180910390f35b3480156106db57600080fd5b506106e4612e7e565b6040516106f191906142ab565b60405180910390f35b34801561070657600080fd5b50610721600480360381019061071c91906134e2565b612ea4565b60405161072e91906142ab565b60405180910390f35b34801561074357600080fd5b5061075e60048036038101906107599190613323565b612eda565b005b60045481565b6060600073ffffffffffffffffffffffffffffffffffffffff168273ffffffffffffffffffffffffffffffffffffffff1614156107d8576040517f08c379a00000000000000000000000000000000000000000000000000000000081526004016107cf90614639565b60405180910390fd5b600a60008373ffffffffffffffffffffffffffffffffffffffff1673ffffffffffffffffffffffffffffffffffffffff168152602001908152602001600020805480602002602001604051908101604052809291908181526020016000905b82821015610a5d57838290600052602060002090600702016040518060e00160405290816000820160009054906101000a900460ff1660048111156108a5577f4e487b7100000000000000000000000000000000000000000000000000000000600052602160045260246000fd5b60048111156108dd577f4e487b7100000000000000000000000000000000000000000000000000000000600052602160045260246000fd5b8152602001600182015481526020016002820160009054906101000a900460ff16151515158152602001600382018054610916906148f1565b80601f0160208091040260200160405190810160405280929190818152602001828054610942906148f1565b801561098f5780601f106109645761010080835404028352916020019161098f565b820191906000526020600020905b81548152906001019060200180831161097257829003601f168201915b505050505081526020016004820160009054906101000a900473ffffffffffffffffffffffffffffffffffffffff1673ffffffffffffffffffffffffffffffffffffffff1673ffffffffffffffffffffffffffffffffffffffff1681526020016005820160009054906101000a900473ffffffffffffffffffffffffffffffffffffffff1673ffffffffffffffffffffffffffffffffffffffff1673ffffffffffffffffffffffffffffffffffffffff16815260200160068201548152505081526020019060010190610837565b505050509050919050565b60003390506000610a7882612ce1565b90508015610e825780610ac0576040517f08c379a0000000000000000000000000000000000000000000000000000000008152600401610ab7906145d9565b60405180910390fd5b60ff8310610b03576040517f08c379a0000000000000000000000000000000000000000000000000000000008152600401610afa90614499565b60405180910390fd5b82600b60008673ffffffffffffffffffffffffffffffffffffffff1673ffffffffffffffffffffffffffffffffffffffff168152602001908152602001600020819055506003831115610bf05782600b60008673ffffffffffffffffffffffffffffffffffffffff1673ffffffffffffffffffffffffffffffffffffffff1681526020019081526020016000206000828254610b9f919061481d565b925050819055506003600b60008673ffffffffffffffffffffffffffffffffffffffff1673ffffffffffffffffffffffffffffffffffffffff16815260200190815260200160002081905550610d4c565b6001831415610c995782600b60008673ffffffffffffffffffffffffffffffffffffffff1673ffffffffffffffffffffffffffffffffffffffff1681526020019081526020016000206000828254610c48919061481d565b925050819055506001600b60008673ffffffffffffffffffffffffffffffffffffffff1673ffffffffffffffffffffffffffffffffffffffff16815260200190815260200160002081905550610d4b565b600083118015610ca95750600383105b15610d4a5782600b60008673ffffffffffffffffffffffffffffffffffffffff1673ffffffffffffffffffffffffffffffffffffffff1681526020019081526020016000206000828254610cfd919061481d565b925050819055506002600b60008673ffffffffffffffffffffffffffffffffffffffff1673ffffffffffffffffffffffffffffffffffffffff168152602001908152602001600020819055505b5b5b600060135490506001811415610dad57600060138190555080601460008773ffffffffffffffffffffffffffffffffffffffff1673ffffffffffffffffffffffffffffffffffffffff16815260200190815260200160002081905550610e43565b6000811415610e0757600160138190555080601460008773ffffffffffffffffffffffffffffffffffffffff1673ffffffffffffffffffffffffffffffffffffffff16815260200190815260200160002081905550610e42565b6040517f08c379a0000000000000000000000000000000000000000000000000000000008152600401610e39906144f9565b60405180910390fd5b5b7f62c1e066774519db9fe35767c15fc33df2f016675b7cc0c330ed185f286a2d528585604051610e749291906142c6565b60405180910390a1506112d6565b600860009054906101000a900473ffffffffffffffffffffffffffffffffffffffff1673ffffffffffffffffffffffffffffffffffffffff168273ffffffffffffffffffffffffffffffffffffffff16141561129a5760ff8310610f1b576040517f08c379a0000000000000000000000000000000000000000000000000000000008152600401610f1290614499565b60405180910390fd5b82600b60008673ffffffffffffffffffffffffffffffffffffffff1673ffffffffffffffffffffffffffffffffffffffff1681526020019081526020016000208190555060038311156110085782600b60008673ffffffffffffffffffffffffffffffffffffffff1673ffffffffffffffffffffffffffffffffffffffff1681526020019081526020016000206000828254610fb7919061481d565b925050819055506003600b60008673ffffffffffffffffffffffffffffffffffffffff1673ffffffffffffffffffffffffffffffffffffffff16815260200190815260200160002081905550611164565b60018314156110b15782600b60008673ffffffffffffffffffffffffffffffffffffffff1673ffffffffffffffffffffffffffffffffffffffff1681526020019081526020016000206000828254611060919061481d565b925050819055506001600b60008673ffffffffffffffffffffffffffffffffffffffff1673ffffffffffffffffffffffffffffffffffffffff16815260200190815260200160002081905550611163565b6000831180156110c15750600383105b156111625782600b60008673ffffffffffffffffffffffffffffffffffffffff1673ffffffffffffffffffffffffffffffffffffffff1681526020019081526020016000206000828254611115919061481d565b925050819055506002600b60008673ffffffffffffffffffffffffffffffffffffffff1673ffffffffffffffffffffffffffffffffffffffff168152602001908152602001600020819055505b5b5b6000601354905060018114156111c557600060138190555080601460008773ffffffffffffffffffffffffffffffffffffffff1673ffffffffffffffffffffffffffffffffffffffff1681526020019081526020016000208190555061125b565b600081141561121f57600160138190555080601460008773ffffffffffffffffffffffffffffffffffffffff1673ffffffffffffffffffffffffffffffffffffffff1681526020019081526020016000208190555061125a565b6040517f08c379a0000000000000000000000000000000000000000000000000000000008152600401611251906144f9565b60405180910390fd5b5b7f62c1e066774519db9fe35767c15fc33df2f016675b7cc0c330ed185f286a2d52858560405161128c9291906142c6565b60405180910390a1506112d5565b6040517f08c379a00000000000000000000000000000000000000000000000000000000081526004016112cc90614579565b60405180910390fd5b5b50505050565b3360003390508173ffffffffffffffffffffffffffffffffffffffff168173ffffffffffffffffffffffffffffffffffffffff1614611350576040517f08c379a0000000000000000000000000000000000000000000000000000000008152600401611347906145f9565b60405180910390fd5b6000600b60008373ffffffffffffffffffffffffffffffffffffffff1673ffffffffffffffffffffffffffffffffffffffff168152602001908152602001600020549050600081116113d7576040517f08c379a00000000000000000000000000000000000000000000000000000000081526004016113ce906144d9565b60405180910390fd5b6004811061141a576040517f08c379a000000000000000000000000000000000000000000000000000000000815260040161141190614479565b60405180910390fd5b600033905085600660008373ffffffffffffffffffffffffffffffffffffffff1673ffffffffffffffffffffffffffffffffffffffff1681526020019081526020016000205410156114a1576040517f08c379a000000000000000000000000000000000000000000000000000000000815260040161149890614619565b60405180910390fd5b600386116114e4576040517f08c379a00000000000000000000000000000000000000000000000000000000081526004016114db90614519565b60405180910390fd5b85600660008373ffffffffffffffffffffffffffffffffffffffff1673ffffffffffffffffffffffffffffffffffffffff1681526020019081526020016000206000828254611533919061481d565b9250508190555085600660008973ffffffffffffffffffffffffffffffffffffffff1673ffffffffffffffffffffffffffffffffffffffff168152602001908152602001600020600082825461158991906147c7565b92505081905550600b60008273ffffffffffffffffffffffffffffffffffffffff1673ffffffffffffffffffffffffffffffffffffffff16815260200190815260200160002054600660008373ffffffffffffffffffffffffffffffffffffffff1673ffffffffffffffffffffffffffffffffffffffff168152602001908152602001600020600082825461161e91906147c7565b92505081905550600b60008273ffffffffffffffffffffffffffffffffffffffff1673ffffffffffffffffffffffffffffffffffffffff16815260200190815260200160002054600660008973ffffffffffffffffffffffffffffffffffffffff1673ffffffffffffffffffffffffffffffffffffffff16815260200190815260200160002060008282546116b3919061481d565b92505081905550604051806060016040528060008152602001600081526020016000815250601560008373ffffffffffffffffffffffffffffffffffffffff1673ffffffffffffffffffffffffffffffffffffffff1681526020019081526020016000206000820151816000015560208201518160010155604082015181600201559050506000601560008373ffffffffffffffffffffffffffffffffffffffff1673ffffffffffffffffffffffffffffffffffffffff16815260200190815260200160002090508560000151816000018190555085602001518160010181905550856040015181600201819055508773ffffffffffffffffffffffffffffffffffffffff167f98eaee7299e9cbfa56cf530fd3a0c6dfa0ccddf4f837b8f025651ad9594647b360405160405180910390a25050505050505050565b60066020528060005260406000206000915090505481565b60025481565b6000339050600061181d82612ce1565b90508015611e005780611865576040517f08c379a000000000000000000000000000000000000000000000000000000000815260040161185c906145d9565b60405180910390fd5b600085116118a8576040517f08c379a000000000000000000000000000000000000000000000000000000000815260040161189f90614459565b60405180910390fd5b600084116118eb576040517f08c379a00000000000000000000000000000000000000000000000000000000081526004016118e290614539565b60405180910390fd5b600073ffffffffffffffffffffffffffffffffffffffff168673ffffffffffffffffffffffffffffffffffffffff16141561195b576040517f08c379a000000000000000000000000000000000000000000000000000000000815260040161195290614599565b60405180910390fd5b600033905060005b600a60008973ffffffffffffffffffffffffffffffffffffffff1673ffffffffffffffffffffffffffffffffffffffff16815260200190815260200160002080549050811015611df95786600a60008a73ffffffffffffffffffffffffffffffffffffffff1673ffffffffffffffffffffffffffffffffffffffff1681526020019081526020016000208281548110611a25577f4e487b7100000000000000000000000000000000000000000000000000000000600052603260045260246000fd5b9060005260206000209060070201600101541415611de6576001600a60008a73ffffffffffffffffffffffffffffffffffffffff1673ffffffffffffffffffffffffffffffffffffffff1681526020019081526020016000208281548110611ab6577f4e487b7100000000000000000000000000000000000000000000000000000000600052603260045260246000fd5b906000526020600020906007020160020160006101000a81548160ff02191690831515021790555087600a60008a73ffffffffffffffffffffffffffffffffffffffff1673ffffffffffffffffffffffffffffffffffffffff1681526020019081526020016000208281548110611b56577f4e487b7100000000000000000000000000000000000000000000000000000000600052603260045260246000fd5b906000526020600020906007020160050160006101000a81548173ffffffffffffffffffffffffffffffffffffffff021916908373ffffffffffffffffffffffffffffffffffffffff16021790555084600a60008a73ffffffffffffffffffffffffffffffffffffffff1673ffffffffffffffffffffffffffffffffffffffff1681526020019081526020016000208281548110611c1d577f4e487b7100000000000000000000000000000000000000000000000000000000600052603260045260246000fd5b906000526020600020906007020160000160006101000a81548160ff02191690836004811115611c76577f4e487b7100000000000000000000000000000000000000000000000000000000600052602160045260246000fd5b021790555085600a60008a73ffffffffffffffffffffffffffffffffffffffff1673ffffffffffffffffffffffffffffffffffffffff1681526020019081526020016000208281548110611cf3577f4e487b7100000000000000000000000000000000000000000000000000000000600052603260045260246000fd5b9060005260206000209060070201600601819055506000611d12612ad0565b9050611d1e89826129dd565b50507ff41efc8c6b66b2a03b14fd69b985ad19a0b9245f24936163018e9ad06d4c143e838989600a60008e73ffffffffffffffffffffffffffffffffffffffff1673ffffffffffffffffffffffffffffffffffffffff1681526020019081526020016000208681548110611dbb577f4e487b7100000000000000000000000000000000000000000000000000000000600052603260045260246000fd5b9060005260206000209060070201600301604051611ddc94939291906142ef565b60405180910390a1505b8080611df190614923565b915050611963565b505061242d565b600860009054906101000a900473ffffffffffffffffffffffffffffffffffffffff1673ffffffffffffffffffffffffffffffffffffffff168273ffffffffffffffffffffffffffffffffffffffff1614156123f15760008511611e99576040517f08c379a0000000000000000000000000000000000000000000000000000000008152600401611e9090614459565b60405180910390fd5b60008411611edc576040517f08c379a0000000000000000000000000000000000000000000000000000000008152600401611ed390614539565b60405180910390fd5b600073ffffffffffffffffffffffffffffffffffffffff168673ffffffffffffffffffffffffffffffffffffffff161415611f4c576040517f08c379a0000000000000000000000000000000000000000000000000000000008152600401611f4390614599565b60405180910390fd5b600033905060005b600a60008973ffffffffffffffffffffffffffffffffffffffff1673ffffffffffffffffffffffffffffffffffffffff168152602001908152602001600020805490508110156123ea5786600a60008a73ffffffffffffffffffffffffffffffffffffffff1673ffffffffffffffffffffffffffffffffffffffff1681526020019081526020016000208281548110612016577f4e487b7100000000000000000000000000000000000000000000000000000000600052603260045260246000fd5b90600052602060002090600702016001015414156123d7576001600a60008a73ffffffffffffffffffffffffffffffffffffffff1673ffffffffffffffffffffffffffffffffffffffff16815260200190815260200160002082815481106120a7577f4e487b7100000000000000000000000000000000000000000000000000000000600052603260045260246000fd5b906000526020600020906007020160020160006101000a81548160ff02191690831515021790555087600a60008a73ffffffffffffffffffffffffffffffffffffffff1673ffffffffffffffffffffffffffffffffffffffff1681526020019081526020016000208281548110612147577f4e487b7100000000000000000000000000000000000000000000000000000000600052603260045260246000fd5b906000526020600020906007020160050160006101000a81548173ffffffffffffffffffffffffffffffffffffffff021916908373ffffffffffffffffffffffffffffffffffffffff16021790555084600a60008a73ffffffffffffffffffffffffffffffffffffffff1673ffffffffffffffffffffffffffffffffffffffff168152602001908152602001600020828154811061220e577f4e487b7100000000000000000000000000000000000000000000000000000000600052603260045260246000fd5b906000526020600020906007020160000160006101000a81548160ff02191690836004811115612267577f4e487b7100000000000000000000000000000000000000000000000000000000600052602160045260246000fd5b021790555085600a60008a73ffffffffffffffffffffffffffffffffffffffff1673ffffffffffffffffffffffffffffffffffffffff16815260200190815260200160002082815481106122e4577f4e487b7100000000000000000000000000000000000000000000000000000000600052603260045260246000fd5b9060005260206000209060070201600601819055506000612303612ad0565b905061230f89826129dd565b50507ff41efc8c6b66b2a03b14fd69b985ad19a0b9245f24936163018e9ad06d4c143e838989600a60008e73ffffffffffffffffffffffffffffffffffffffff1673ffffffffffffffffffffffffffffffffffffffff16815260200190815260200160002086815481106123ac577f4e487b7100000000000000000000000000000000000000000000000000000000600052603260045260246000fd5b90600052602060002090600702016003016040516123cd94939291906142ef565b60405180910390a1505b80806123e290614923565b915050611f54565b505061242c565b6040517f08c379a000000000000000000000000000000000000000000000000000000000815260040161242390614579565b60405180910390fd5b5b505050505050565b60008033905084600660008373ffffffffffffffffffffffffffffffffffffffff1673ffffffffffffffffffffffffffffffffffffffff1681526020019081526020016000205410156124bd576040517f08c379a00000000000000000000000000000000000000000000000000000000081526004016124b4906144b9565b60405180910390fd5b60098484905010612503576040517f08c379a00000000000000000000000000000000000000000000000000000000081526004016124fa90614559565b60405180910390fd5b84600660008373ffffffffffffffffffffffffffffffffffffffff1673ffffffffffffffffffffffffffffffffffffffff1681526020019081526020016000206000828254612552919061481d565b9250508190555084600660008873ffffffffffffffffffffffffffffffffffffffff1673ffffffffffffffffffffffffffffffffffffffff16815260200190815260200160002060008282546125a891906147c7565b925050819055507f69ca02dd4edd7bf0a4abb9ed3b7af3f14778db5d61921c7dc7cd545266326de286866040516125e09291906142c6565b60405180910390a16125f06130a8565b60008160a0019073ffffffffffffffffffffffffffffffffffffffff16908173ffffffffffffffffffffffffffffffffffffffff16815250506000816040019015159081151581525050600181600001906004811115612679577f4e487b7100000000000000000000000000000000000000000000000000000000600052602160045260246000fd5b908160048111156126b3577f4e487b7100000000000000000000000000000000000000000000000000000000600052602160045260246000fd5b8152505086816080019073ffffffffffffffffffffffffffffffffffffffff16908173ffffffffffffffffffffffffffffffffffffffff1681525050858160c001818152505084848080601f016020809104026020016040519081016040528093929190818152602001838380828437600081840152601f19601f82011690508083019250505050505050816060018190525060056000815461275590614923565b919050819055816020018181525050600a60008373ffffffffffffffffffffffffffffffffffffffff1673ffffffffffffffffffffffffffffffffffffffff16815260200190815260200160002081908060018154018082558091505060019003906000526020600020906007020160009091909190915060008201518160000160006101000a81548160ff0219169083600481111561281e577f4e487b7100000000000000000000000000000000000000000000000000000000600052602160045260246000fd5b02179055506020820151816001015560408201518160020160006101000a81548160ff021916908315150217905550606082015181600301908051906020019061286992919061314b565b5060808201518160040160006101000a81548173ffffffffffffffffffffffffffffffffffffffff021916908373ffffffffffffffffffffffffffffffffffffffff16021790555060a08201518160050160006101000a81548173ffffffffffffffffffffffffffffffffffffffff021916908373ffffffffffffffffffffffffffffffffffffffff16021790555060c08201518160060155505060006007541192505050949350505050565b60156020528060005260406000206000915090508060000154908060010154908060020154905083565b60095481565b600080600660008473ffffffffffffffffffffffffffffffffffffffff1673ffffffffffffffffffffffffffffffffffffffff16815260200190815260200160002054905080915050919050565b61299c612f5e565b6129a66000612fdc565b565b60035481565b60055481565b60008060009054906101000a900473ffffffffffffffffffffffffffffffffffffffff16905090565b6000806129e86131d1565b438160400181815250504281600001818152505084816020019073ffffffffffffffffffffffffffffffffffffffff16908173ffffffffffffffffffffffffffffffffffffffff168152505060128190806001815401808255809150506001900390600052602060002090600302016000909190919091506000820151816000015560208201518160010160006101000a81548173ffffffffffffffffffffffffffffffffffffffff021916908373ffffffffffffffffffffffffffffffffffffffff1602179055506040820151816002015550506000600754118492509250509250929050565b60008060009050600180541480612ae957506001600354145b15612af75760019050612afc565b600090505b8091505090565b600b6020528060005260406000206000915090505481565b601160009054906101000a900460ff1681565b60146020528060005260406000206000915090505481565b60128181548110612b5657600080fd5b90600052602060002090600302016000915090508060000154908060010160009054906101000a900473ffffffffffffffffffffffffffffffffffffffff16908060020154905083565b600a6020528160005260406000208181548110612bbc57600080fd5b9060005260206000209060070201600091509150508060000160009054906101000a900460ff16908060010154908060020160009054906101000a900460ff1690806003018054612c0c906148f1565b80601f0160208091040260200160405190810160405280929190818152602001828054612c38906148f1565b8015612c855780601f10612c5a57610100808354040283529160200191612c85565b820191906000526020600020905b815481529060010190602001808311612c6857829003601f168201915b5050505050908060040160009054906101000a900473ffffffffffffffffffffffffffffffffffffffff16908060050160009054906101000a900473ffffffffffffffffffffffffffffffffffffffff16908060060154905087565b600080600090505b6005811015612d9e578273ffffffffffffffffffffffffffffffffffffffff16600c8260058110612d43577f4e487b7100000000000000000000000000000000000000000000000000000000600052603260045260246000fd5b0160009054906101000a900473ffffffffffffffffffffffffffffffffffffffff1673ffffffffffffffffffffffffffffffffffffffff161415612d8b576001915050612da4565b8080612d9690614923565b915050612ce9565b50600090505b919050565b60606012805480602002602001604051908101604052809291908181526020016000905b82821015612e695783829060005260206000209060030201604051806060016040529081600082015481526020016001820160009054906101000a900473ffffffffffffffffffffffffffffffffffffffff1673ffffffffffffffffffffffffffffffffffffffff1673ffffffffffffffffffffffffffffffffffffffff16815260200160028201548152505081526020019060010190612dcd565b50505050905090565b60015481565b60075481565b600860009054906101000a900473ffffffffffffffffffffffffffffffffffffffff1681565b600c8160058110612eb457600080fd5b016000915054906101000a900473ffffffffffffffffffffffffffffffffffffffff1681565b612ee2612f5e565b600073ffffffffffffffffffffffffffffffffffffffff168173ffffffffffffffffffffffffffffffffffffffff161415612f52576040517f08c379a0000000000000000000000000000000000000000000000000000000008152600401612f4990614439565b60405180910390fd5b612f5b81612fdc565b50565b612f666130a0565b73ffffffffffffffffffffffffffffffffffffffff16612f846129b4565b73ffffffffffffffffffffffffffffffffffffffff1614612fda576040517f08c379a0000000000000000000000000000000000000000000000000000000008152600401612fd1906145b9565b60405180910390fd5b565b60008060009054906101000a900473ffffffffffffffffffffffffffffffffffffffff169050816000806101000a81548173ffffffffffffffffffffffffffffffffffffffff021916908373ffffffffffffffffffffffffffffffffffffffff1602179055508173ffffffffffffffffffffffffffffffffffffffff168173ffffffffffffffffffffffffffffffffffffffff167f8be0079c531659141344cd1fd0a4f28419497f9722a3daafe3b4186f6b6457e060405160405180910390a35050565b600033905090565b6040518060e00160405280600060048111156130ed577f4e487b7100000000000000000000000000000000000000000000000000000000600052602160045260246000fd5b81526020016000815260200160001515815260200160608152602001600073ffffffffffffffffffffffffffffffffffffffff168152602001600073ffffffffffffffffffffffffffffffffffffffff168152602001600081525090565b828054613157906148f1565b90600052602060002090601f01602090048101928261317957600085556131c0565b82601f1061319257805160ff19168380011785556131c0565b828001600101855582156131c0579182015b828111156131bf5782518255916020019190600101906131a4565b5b5090506131cd9190613208565b5090565b604051806060016040528060008152602001600073ffffffffffffffffffffffffffffffffffffffff168152602001600081525090565b5b80821115613221576000816000905550600101613209565b5090565b60008135905061323481614a4d565b92915050565b60008135905061324981614a64565b92915050565b60008135905061325e81614a7b565b92915050565b60008083601f84011261327657600080fd5b8235905067ffffffffffffffff81111561328f57600080fd5b6020830191508360018202830111156132a757600080fd5b9250929050565b6000606082840312156132c057600080fd5b6132ca60606146e2565b905060006132da8482850161330e565b60008301525060206132ee8482850161330e565b60208301525060406133028482850161330e565b60408301525092915050565b60008135905061331d81614a8b565b92915050565b60006020828403121561333557600080fd5b600061334384828501613225565b91505092915050565b6000806040838503121561335f57600080fd5b600061336d85828601613225565b925050602061337e8582860161323a565b9150509250929050565b6000806040838503121561339b57600080fd5b60006133a985828601613225565b92505060206133ba8582860161330e565b9150509250929050565b600080600080606085870312156133da57600080fd5b60006133e887828801613225565b94505060206133f98782880161330e565b935050604085013567ffffffffffffffff81111561341657600080fd5b61342287828801613264565b925092505092959194509250565b600080600060a0848603121561344557600080fd5b600061345386828701613225565b93505060206134648682870161330e565b9250506040613475868287016132ae565b9150509250925092565b6000806000806080858703121561349557600080fd5b60006134a387828801613225565b94505060206134b48782880161330e565b93505060406134c58782880161330e565b92505060606134d68782880161324f565b91505092959194509250565b6000602082840312156134f457600080fd5b60006135028482850161330e565b91505092915050565b600061351783836141af565b60608301905092915050565b600061352f83836141f1565b905092915050565b61354081614851565b82525050565b61354f81614851565b82525050565b600061356082614748565b61356a8185614783565b935061357583614713565b8060005b838110156135a657815161358d888261350b565b975061359883614769565b925050600181019050613579565b5085935050505092915050565b60006135be82614753565b6135c88185614794565b9350836020820285016135da85614723565b8060005b8581101561361657848403895281516135f78582613523565b945061360283614776565b925060208a019950506001810190506135de565b50829750879550505050505092915050565b61363181614863565b82525050565b61364081614863565b82525050565b61364f816148ac565b82525050565b61365e816148ac565b82525050565b600061366f8261475e565b61367981856147a5565b93506136898185602086016148be565b61369281614a28565b840191505092915050565b60006136a88261475e565b6136b281856147b6565b93506136c28185602086016148be565b6136cb81614a28565b840191505092915050565b600081546136e3816148f1565b6136ed81866147b6565b94506001821660008114613708576001811461371a5761374d565b60ff198316865260208601935061374d565b61372385614733565b60005b8381101561374557815481890152600182019150602081019050613726565b808801955050505b50505092915050565b60006137636026836147b6565b91507f4f776e61626c653a206e6577206f776e657220697320746865207a65726f206160008301527f64647265737300000000000000000000000000000000000000000000000000006020830152604082019050919050565b60006137c96042836147b6565b91507f47617320436f6e7472616374202d20557064617465205061796d656e7420667560008301527f6e6374696f6e202d204944206d7573742062652067726561746572207468616e60208301527f20300000000000000000000000000000000000000000000000000000000000006040830152606082019050919050565b6000613856610108836147b6565b91507f47617320436f6e747261637420436865636b496657686974654c69737465642060008301527f6d6f646966696572203a207265766572742068617070656e656420626563617560208301527f73652074686520757365722773207469657220697320696e636f72726563742c60408301527f2069742063616e6e6f74206265206f766572203420617320746865206f6e6c7960608301527f20746965722077652068617665206172653a20312c20322c20333b207468657260808301527f666f7265203420697320616e20696e76616c6964207469657220666f7220746860a08301527f6520776869746c697374206f66207468697320636f6e74726163742e206d616b60c08301527f65207375726520776869746c697374207469657273207765726520736574206360e08301527f6f72726563746c7900000000000000000000000000000000000000000000000061010083015261012082019050919050565b60006139c86053836147b6565b91507f47617320436f6e7472616374202d20616464546f57686974656c69737420667560008301527f6e6374696f6e202d202074696572206c6576656c2073686f756c64206e6f742060208301527f62652067726561746572207468616e20323535000000000000000000000000006040830152606082019050919050565b6000613a546042836147b6565b91507f47617320436f6e7472616374202d205472616e736665722066756e6374696f6e60008301527f202d2053656e6465722068617320696e73756666696369656e742042616c616e60208301527f63650000000000000000000000000000000000000000000000000000000000006040830152606082019050919050565b6000613ae0605e836147b6565b91507f47617320436f6e747261637420436865636b496657686974654c69737465642060008301527f6d6f646966696572203a207265766572742068617070656e656420626563617560208301527f7365207468652075736572206973206e6f742077686974656c697374656400006040830152606082019050919050565b6000613b6c6025836147b6565b91507f436f6e7472616374206861636b65642c20696d706f7369626c652c2063616c6c60008301527f2068656c700000000000000000000000000000000000000000000000000000006020830152604082019050919050565b6000613bd26050836147b6565b91507f47617320436f6e7472616374202d2077686974655472616e736665727320667560008301527f6e6374696f6e202d20616d6f756e7420746f2073656e64206861766520746f2060208301527f626520626967676572207468616e2033000000000000000000000000000000006040830152606082019050919050565b6000613c5e6046836147b6565b91507f47617320436f6e7472616374202d20557064617465205061796d656e7420667560008301527f6e6374696f6e202d20416d6f756e74206d75737420626520677265617465722060208301527f7468616e203000000000000000000000000000000000000000000000000000006040830152606082019050919050565b6000613cea6069836147b6565b91507f47617320436f6e7472616374202d205472616e736665722066756e6374696f6e60008301527f202d202054686520726563697069656e74206e616d6520697320746f6f206c6f60208301527f6e672c2074686572652069732061206d6178206c656e677468206f662038206360408301527f68617261637465727300000000000000000000000000000000000000000000006060830152608082019050919050565b6000613d9c60d4836147b6565b91507f4572726f7220696e2047617320636f6e7472616374202d206f6e6c7941646d6960008301527f6e4f724f776e6572206d6f646966696572203a2072657665727420686170706560208301527f6e6564206265636175736520746865206f726967696e61746f72206f6620746860408301527f65207472616e73616374696f6e20776173206e6f74207468652061646d696e2c60608301527f20616e6420667572746865726d6f7265206865207761736e277420746865206f60808301527f776e6572206f662074686520636f6e74726163742c20736f2068652063616e6e60a08301527f6f742072756e20746869732066756e6374696f6e00000000000000000000000060c083015260e082019050919050565b6000613ec06059836147b6565b91507f47617320436f6e7472616374202d20557064617465205061796d656e7420667560008301527f6e6374696f6e202d2041646d696e6973747261746f72206d757374206861766560208301527f20612076616c6964206e6f6e207a65726f2061646472657373000000000000006040830152606082019050919050565b6000613f4c6020836147b6565b91507f4f776e61626c653a2063616c6c6572206973206e6f7420746865206f776e65726000830152602082019050919050565b6000613f8c6030836147b6565b91507f47617320436f6e7472616374204f6e6c792041646d696e20436865636b2d202060008301527f43616c6c6572206e6f742061646d696e000000000000000000000000000000006020830152604082019050919050565b6000613ff26077836147b6565b91507f47617320436f6e747261637420436865636b496657686974654c69737465642060008301527f6d6f646966696572203a207265766572742068617070656e656420626563617560208301527f736520746865206f726967696e61746f72206f6620746865207472616e73616360408301527f74696f6e20776173206e6f74207468652073656e6465720000000000000000006060830152608082019050919050565b60006140a46048836147b6565b91507f47617320436f6e7472616374202d2077686974655472616e736665727320667560008301527f6e6374696f6e202d2053656e6465722068617320696e73756666696369656e7460208301527f2042616c616e63650000000000000000000000000000000000000000000000006040830152606082019050919050565b6000614130604d836147b6565b91507f47617320436f6e7472616374202d206765745061796d656e74732066756e637460008301527f696f6e202d2055736572206d757374206861766520612076616c6964206e6f6e60208301527f207a65726f2061646472657373000000000000000000000000000000000000006040830152606082019050919050565b6060820160008201516141c5600085018261428d565b5060208201516141d86020850182613537565b5060408201516141eb604085018261428d565b50505050565b600060e0830160008301516142096000860182613646565b50602083015161421c602086018261428d565b50604083015161422f6040860182613628565b50606083015184820360608601526142478282613664565b915050608083015161425c6080860182613537565b5060a083015161426f60a0860182613537565b5060c083015161428260c086018261428d565b508091505092915050565b614296816148a2565b82525050565b6142a5816148a2565b82525050565b60006020820190506142c06000830184613546565b92915050565b60006040820190506142db6000830185613546565b6142e8602083018461429c565b9392505050565b60006080820190506143046000830187613546565b614311602083018661429c565b61431e604083018561429c565b818103606083015261433081846136d6565b905095945050505050565b600060208201905081810360008301526143558184613555565b905092915050565b6000602082019050818103600083015261437781846135b3565b905092915050565b60006020820190506143946000830184613637565b92915050565b60006040820190506143af6000830185613637565b6143bc6020830184613637565b9392505050565b600060e0820190506143d8600083018a613655565b6143e5602083018961429c565b6143f26040830188613637565b8181036060830152614404818761369d565b90506144136080830186613546565b61442060a0830185613546565b61442d60c083018461429c565b98975050505050505050565b6000602082019050818103600083015261445281613756565b9050919050565b60006020820190508181036000830152614472816137bc565b9050919050565b6000602082019050818103600083015261449281613848565b9050919050565b600060208201905081810360008301526144b2816139bb565b9050919050565b600060208201905081810360008301526144d281613a47565b9050919050565b600060208201905081810360008301526144f281613ad3565b9050919050565b6000602082019050818103600083015261451281613b5f565b9050919050565b6000602082019050818103600083015261453281613bc5565b9050919050565b6000602082019050818103600083015261455281613c51565b9050919050565b6000602082019050818103600083015261457281613cdd565b9050919050565b6000602082019050818103600083015261459281613d8f565b9050919050565b600060208201905081810360008301526145b281613eb3565b9050919050565b600060208201905081810360008301526145d281613f3f565b9050919050565b600060208201905081810360008301526145f281613f7f565b9050919050565b6000602082019050818103600083015261461281613fe5565b9050919050565b6000602082019050818103600083015261463281614097565b9050919050565b6000602082019050818103600083015261465281614123565b9050919050565b600060208201905061466e600083018461429c565b92915050565b6000606082019050614689600083018661429c565b6146966020830185613546565b6146a3604083018461429c565b949350505050565b60006060820190506146c0600083018661429c565b6146cd602083018561429c565b6146da604083018461429c565b949350505050565b6000604051905081810181811067ffffffffffffffff82111715614709576147086149f9565b5b8060405250919050565b6000819050602082019050919050565b6000819050602082019050919050565b60008190508160005260206000209050919050565b600081519050919050565b600081519050919050565b600081519050919050565b6000602082019050919050565b6000602082019050919050565b600082825260208201905092915050565b600082825260208201905092915050565b600082825260208201905092915050565b600082825260208201905092915050565b60006147d2826148a2565b91506147dd836148a2565b9250827fffffffffffffffffffffffffffffffffffffffffffffffffffffffffffffffff038211156148125761481161496c565b5b828201905092915050565b6000614828826148a2565b9150614833836148a2565b9250828210156148465761484561496c565b5b828203905092915050565b600061485c82614882565b9050919050565b60008115159050919050565b600081905061487d82614a39565b919050565b600073ffffffffffffffffffffffffffffffffffffffff82169050919050565b6000819050919050565b60006148b78261486f565b9050919050565b60005b838110156148dc5780820151818401526020810190506148c1565b838111156148eb576000848401525b50505050565b6000600282049050600182168061490957607f821691505b6020821081141561491d5761491c6149ca565b5b50919050565b600061492e826148a2565b91507fffffffffffffffffffffffffffffffffffffffffffffffffffffffffffffffff8214156149615761496061496c565b5b600182019050919050565b7f4e487b7100000000000000000000000000000000000000000000000000000000600052601160045260246000fd5b7f4e487b7100000000000000000000000000000000000000000000000000000000600052602160045260246000fd5b7f4e487b7100000000000000000000000000000000000000000000000000000000600052602260045260246000fd5b7f4e487b7100000000000000000000000000000000000000000000000000000000600052604160045260246000fd5b6000601f19601f8301169050919050565b60058110614a4a57614a4961499b565b5b50565b614a5681614851565b8114614a6157600080fd5b50565b614a6d81614863565b8114614a7857600080fd5b50565b60058110614a8857600080fd5b50565b614a94816148a2565b8114614a9f57600080fd5b5056fea26469706673582212204eca3414349730112b749f40e90497b4f47cec1dd047dd93886069935238487b64736f6c63430008000033",
  "linkReferences": {},
  "deployedLinkReferences": {}
}