{
  "_format": "hh-sol-artifact-1",
  "contractName": "GasContract",
  "sourceName": "contracts/Gas.sol",
  "abi": [
    {
      "inputs": [
        {
          "internalType": "address[]",
          "name": "_admins",
          "type": "address[]"
        },
        {
          "internalType": "uint256",
          "name": "_totalSupply",
          "type": "uint256"
        }
      ],
      "stateMutability": "nonpayable",
      "type": "constructor"
    },
    {
      "inputs": [],
      "name": "OnlyAdminOrOwner",
      "type": "error"
    },
    {
      "anonymous": false,
      "inputs": [
        {
          "indexed": false,
          "internalType": "address",
          "name": "userAddress",
          "type": "address"
        },
        {
          "indexed": false,
          "internalType": "uint256",
          "name": "tier",
          "type": "uint256"
        }
      ],
      "name": "AddedToWhitelist",
      "type": "event"
    },
    {
      "anonymous": false,
      "inputs": [
        {
          "indexed": true,
          "internalType": "address",
          "name": "previousOwner",
          "type": "address"
        },
        {
          "indexed": true,
          "internalType": "address",
          "name": "newOwner",
          "type": "address"
        }
      ],
      "name": "OwnershipTransferred",
      "type": "event"
    },
    {
      "anonymous": false,
      "inputs": [
        {
          "indexed": false,
          "internalType": "address",
          "name": "admin",
          "type": "address"
        },
        {
          "indexed": false,
          "internalType": "uint256",
          "name": "ID",
          "type": "uint256"
        },
        {
          "indexed": false,
          "internalType": "uint256",
          "name": "amount",
          "type": "uint256"
        },
        {
          "indexed": false,
          "internalType": "string",
          "name": "recipient",
          "type": "string"
        }
      ],
      "name": "PaymentUpdated",
      "type": "event"
    },
    {
      "anonymous": false,
      "inputs": [
        {
          "indexed": false,
          "internalType": "address",
          "name": "recipient",
          "type": "address"
        },
        {
          "indexed": false,
          "internalType": "uint256",
          "name": "amount",
          "type": "uint256"
        }
      ],
      "name": "Transfer",
      "type": "event"
    },
    {
      "anonymous": false,
      "inputs": [
        {
          "indexed": true,
          "internalType": "address",
          "name": "",
          "type": "address"
        }
      ],
      "name": "WhiteListTransfer",
      "type": "event"
    },
    {
      "anonymous": false,
      "inputs": [
        {
          "indexed": true,
          "internalType": "address",
          "name": "",
          "type": "address"
        },
        {
          "indexed": true,
          "internalType": "uint256",
          "name": "",
          "type": "uint256"
        }
      ],
      "name": "supplyChanged",
      "type": "event"
    },
    {
      "inputs": [
        {
          "internalType": "address",
          "name": "_updateAddress",
          "type": "address"
        },
        {
          "internalType": "bool",
          "name": "_tradeMode",
          "type": "bool"
        }
      ],
      "name": "addHistory",
      "outputs": [
        {
          "internalType": "bool",
          "name": "status_",
          "type": "bool"
        },
        {
          "internalType": "bool",
          "name": "tradeMode_",
          "type": "bool"
        }
      ],
      "stateMutability": "nonpayable",
      "type": "function"
    },
    {
      "inputs": [
        {
          "internalType": "address",
          "name": "_userAddrs",
          "type": "address"
        },
        {
          "internalType": "uint256",
          "name": "_tier",
          "type": "uint256"
        }
      ],
      "name": "addToWhitelist",
      "outputs": [],
      "stateMutability": "nonpayable",
      "type": "function"
    },
    {
      "inputs": [
        {
          "internalType": "uint256",
          "name": "",
          "type": "uint256"
        }
      ],
      "name": "administrators",
      "outputs": [
        {
          "internalType": "address",
          "name": "",
          "type": "address"
        }
      ],
      "stateMutability": "view",
      "type": "function"
    },
    {
      "inputs": [
        {
          "internalType": "address",
          "name": "_user",
          "type": "address"
        }
      ],
      "name": "balanceOf",
      "outputs": [
        {
          "internalType": "uint256",
          "name": "balance_",
          "type": "uint256"
        }
      ],
      "stateMutability": "view",
      "type": "function"
    },
    {
      "inputs": [
        {
          "internalType": "address",
          "name": "",
          "type": "address"
        }
      ],
      "name": "balances",
      "outputs": [
        {
          "internalType": "uint256",
          "name": "",
          "type": "uint256"
        }
      ],
      "stateMutability": "view",
      "type": "function"
    },
    {
      "inputs": [],
      "name": "contractOwner",
      "outputs": [
        {
          "internalType": "address",
          "name": "",
          "type": "address"
        }
      ],
      "stateMutability": "view",
      "type": "function"
    },
    {
      "inputs": [],
      "name": "getPaymentHistory",
      "outputs": [
        {
          "components": [
            {
              "internalType": "uint256",
              "name": "lastUpdate",
              "type": "uint256"
            },
            {
              "internalType": "address",
              "name": "updatedBy",
              "type": "address"
            },
            {
              "internalType": "uint256",
              "name": "blockNumber",
              "type": "uint256"
            }
          ],
          "internalType": "struct GasContract.History[]",
          "name": "paymentHistory_",
          "type": "tuple[]"
        }
      ],
      "stateMutability": "payable",
      "type": "function"
    },
    {
      "inputs": [
        {
          "internalType": "address",
          "name": "_user",
          "type": "address"
        }
      ],
      "name": "getPayments",
      "outputs": [
        {
          "components": [
            {
              "internalType": "enum GasContract.PaymentType",
              "name": "paymentType",
              "type": "uint8"
            },
            {
              "internalType": "bool",
              "name": "adminUpdated",
              "type": "bool"
            },
            {
              "internalType": "address",
              "name": "recipient",
              "type": "address"
            },
            {
              "internalType": "uint256",
              "name": "paymentID",
              "type": "uint256"
            },
            {
              "internalType": "string",
              "name": "recipientName",
              "type": "string"
            },
            {
              "internalType": "address",
              "name": "admin",
              "type": "address"
            },
            {
              "internalType": "uint256",
              "name": "amount",
              "type": "uint256"
            }
          ],
          "internalType": "struct GasContract.Payment[]",
          "name": "payments_",
          "type": "tuple[]"
        }
      ],
      "stateMutability": "view",
      "type": "function"
    },
    {
      "inputs": [],
      "name": "getTradingMode",
      "outputs": [
        {
          "internalType": "bool",
          "name": "mode_",
          "type": "bool"
        }
      ],
      "stateMutability": "pure",
      "type": "function"
    },
    {
      "inputs": [
        {
          "internalType": "address",
          "name": "",
          "type": "address"
        }
      ],
      "name": "isOddWhitelistUser",
      "outputs": [
        {
          "internalType": "uint256",
          "name": "",
          "type": "uint256"
        }
      ],
      "stateMutability": "view",
      "type": "function"
    },
    {
      "inputs": [],
      "name": "isReady",
      "outputs": [
        {
          "internalType": "bool",
          "name": "",
          "type": "bool"
        }
      ],
      "stateMutability": "view",
      "type": "function"
    },
    {
      "inputs": [],
      "name": "owner",
      "outputs": [
        {
          "internalType": "address",
          "name": "",
          "type": "address"
        }
      ],
      "stateMutability": "view",
      "type": "function"
    },
    {
      "inputs": [],
      "name": "paymentCounter",
      "outputs": [
        {
          "internalType": "uint256",
          "name": "",
          "type": "uint256"
        }
      ],
      "stateMutability": "view",
      "type": "function"
    },
    {
      "inputs": [
        {
          "internalType": "uint256",
          "name": "",
          "type": "uint256"
        }
      ],
      "name": "paymentHistory",
      "outputs": [
        {
          "internalType": "uint256",
          "name": "lastUpdate",
          "type": "uint256"
        },
        {
          "internalType": "address",
          "name": "updatedBy",
          "type": "address"
        },
        {
          "internalType": "uint256",
          "name": "blockNumber",
          "type": "uint256"
        }
      ],
      "stateMutability": "view",
      "type": "function"
    },
    {
      "inputs": [
        {
          "internalType": "address",
          "name": "",
          "type": "address"
        },
        {
          "internalType": "uint256",
          "name": "",
          "type": "uint256"
        }
      ],
      "name": "payments",
      "outputs": [
        {
          "internalType": "enum GasContract.PaymentType",
          "name": "paymentType",
          "type": "uint8"
        },
        {
          "internalType": "bool",
          "name": "adminUpdated",
          "type": "bool"
        },
        {
          "internalType": "address",
          "name": "recipient",
          "type": "address"
        },
        {
          "internalType": "uint256",
          "name": "paymentID",
          "type": "uint256"
        },
        {
          "internalType": "string",
          "name": "recipientName",
          "type": "string"
        },
        {
          "internalType": "address",
          "name": "admin",
          "type": "address"
        },
        {
          "internalType": "uint256",
          "name": "amount",
          "type": "uint256"
        }
      ],
      "stateMutability": "view",
      "type": "function"
    },
    {
      "inputs": [],
      "name": "renounceOwnership",
      "outputs": [],
      "stateMutability": "nonpayable",
      "type": "function"
    },
    {
      "inputs": [],
      "name": "totalSupply",
      "outputs": [
        {
          "internalType": "uint256",
          "name": "",
          "type": "uint256"
        }
      ],
      "stateMutability": "view",
      "type": "function"
    },
    {
      "inputs": [],
      "name": "tradeMode",
      "outputs": [
        {
          "internalType": "uint256",
          "name": "",
          "type": "uint256"
        }
      ],
      "stateMutability": "view",
      "type": "function"
    },
    {
      "inputs": [],
      "name": "tradePercent",
      "outputs": [
        {
          "internalType": "uint256",
          "name": "",
          "type": "uint256"
        }
      ],
      "stateMutability": "view",
      "type": "function"
    },
    {
      "inputs": [
        {
          "internalType": "address",
          "name": "_recipient",
          "type": "address"
        },
        {
          "internalType": "uint256",
          "name": "_amount",
          "type": "uint256"
        },
        {
          "internalType": "string",
          "name": "_name",
          "type": "string"
        }
      ],
      "name": "transfer",
      "outputs": [
        {
          "internalType": "bool",
          "name": "status_",
          "type": "bool"
        }
      ],
      "stateMutability": "nonpayable",
      "type": "function"
    },
    {
      "inputs": [
        {
          "internalType": "address",
          "name": "newOwner",
          "type": "address"
        }
      ],
      "name": "transferOwnership",
      "outputs": [],
      "stateMutability": "nonpayable",
      "type": "function"
    },
    {
      "inputs": [
        {
          "internalType": "address",
          "name": "_user",
          "type": "address"
        },
        {
          "internalType": "uint256",
          "name": "_ID",
          "type": "uint256"
        },
        {
          "internalType": "uint256",
          "name": "_amount",
          "type": "uint256"
        },
        {
          "internalType": "enum GasContract.PaymentType",
          "name": "_type",
          "type": "uint8"
        }
      ],
      "name": "updatePayment",
      "outputs": [],
      "stateMutability": "nonpayable",
      "type": "function"
    },
    {
      "inputs": [
        {
          "internalType": "address",
          "name": "",
          "type": "address"
        }
      ],
      "name": "whiteListStruct",
      "outputs": [
        {
          "internalType": "uint256",
          "name": "valueA",
          "type": "uint256"
        },
        {
          "internalType": "uint256",
          "name": "bigValue",
          "type": "uint256"
        },
        {
          "internalType": "uint256",
          "name": "valueB",
          "type": "uint256"
        }
      ],
      "stateMutability": "view",
      "type": "function"
    },
    {
      "inputs": [
        {
          "internalType": "address",
          "name": "_recipient",
          "type": "address"
        },
        {
          "internalType": "uint256",
          "name": "_amount",
          "type": "uint256"
        },
        {
          "components": [
            {
              "internalType": "uint256",
              "name": "valueA",
              "type": "uint256"
            },
            {
              "internalType": "uint256",
              "name": "bigValue",
              "type": "uint256"
            },
            {
              "internalType": "uint256",
              "name": "valueB",
              "type": "uint256"
            }
          ],
          "internalType": "struct GasContract.ImportantStruct",
          "name": "_struct",
          "type": "tuple"
        }
      ],
      "name": "whiteTransfer",
      "outputs": [],
      "stateMutability": "nonpayable",
      "type": "function"
    },
    {
      "inputs": [
        {
          "internalType": "address",
          "name": "",
          "type": "address"
        }
      ],
      "name": "whitelist",
      "outputs": [
        {
          "internalType": "uint256",
          "name": "",
          "type": "uint256"
        }
      ],
      "stateMutability": "view",
      "type": "function"
    }
  ],
  "bytecode": "0x608060405260006001556000600255600c6004556000600560146101000a81548160ff021916908315150217905550600060065560016010553480156200004557600080fd5b50604051620050ab380380620050ab83398181016040528101906200006b9190620006fd565b6200008b6200007f6200056160201b60201c565b6200056960201b60201c565b33600560006101000a81548173ffffffffffffffffffffffffffffffffffffffff021916908373ffffffffffffffffffffffffffffffffffffffff1602179055508060018190555060005b60058110156200055857600073ffffffffffffffffffffffffffffffffffffffff1683828151811062000132577f4e487b7100000000000000000000000000000000000000000000000000000000600052603260045260246000fd5b602002602001015173ffffffffffffffffffffffffffffffffffffffff1614620005425782818151811062000190577f4e487b7100000000000000000000000000000000000000000000000000000000600052603260045260246000fd5b6020026020010151600a8260058110620001d3577f4e487b7100000000000000000000000000000000000000000000000000000000600052603260045260246000fd5b0160006101000a81548173ffffffffffffffffffffffffffffffffffffffff021916908373ffffffffffffffffffffffffffffffffffffffff16021790555060016009600085848151811062000252577f4e487b7100000000000000000000000000000000000000000000000000000000600052603260045260246000fd5b602002602001015173ffffffffffffffffffffffffffffffffffffffff1673ffffffffffffffffffffffffffffffffffffffff16815260200190815260200160002060006101000a81548160ff021916908315150217905550600560009054906101000a900473ffffffffffffffffffffffffffffffffffffffff1673ffffffffffffffffffffffffffffffffffffffff168382815181106200031e577f4e487b7100000000000000000000000000000000000000000000000000000000600052603260045260246000fd5b602002602001015173ffffffffffffffffffffffffffffffffffffffff16141562000434578160036000600560009054906101000a900473ffffffffffffffffffffffffffffffffffffffff1673ffffffffffffffffffffffffffffffffffffffff1673ffffffffffffffffffffffffffffffffffffffff1681526020019081526020016000208190555081838281518110620003e4577f4e487b7100000000000000000000000000000000000000000000000000000000600052603260045260246000fd5b602002602001015173ffffffffffffffffffffffffffffffffffffffff167ffbd610cf0373947747ba15effd5e459c81db984f8723671458c0e8624428ab0460405160405180910390a362000541565b60006003600085848151811062000474577f4e487b7100000000000000000000000000000000000000000000000000000000600052603260045260246000fd5b602002602001015173ffffffffffffffffffffffffffffffffffffffff1673ffffffffffffffffffffffffffffffffffffffff168152602001908152602001600020819055506000838281518110620004f6577f4e487b7100000000000000000000000000000000000000000000000000000000600052603260045260246000fd5b602002602001015173ffffffffffffffffffffffffffffffffffffffff167ffbd610cf0373947747ba15effd5e459c81db984f8723671458c0e8624428ab0460405160405180910390a35b5b80806200054f9062000823565b915050620000d6565b50505062000914565b600033905090565b60008060009054906101000a900473ffffffffffffffffffffffffffffffffffffffff169050816000806101000a81548173ffffffffffffffffffffffffffffffffffffffff021916908373ffffffffffffffffffffffffffffffffffffffff1602179055508173ffffffffffffffffffffffffffffffffffffffff168173ffffffffffffffffffffffffffffffffffffffff167f8be0079c531659141344cd1fd0a4f28419497f9722a3daafe3b4186f6b6457e060405160405180910390a35050565b6000620006446200063e8462000780565b62000757565b905080838252602082019050828560208602820111156200066457600080fd5b60005b858110156200069857816200067d8882620006a2565b84526020840193506020830192505060018101905062000667565b5050509392505050565b600081519050620006b381620008e0565b92915050565b600082601f830112620006cb57600080fd5b8151620006dd8482602086016200062d565b91505092915050565b600081519050620006f781620008fa565b92915050565b600080604083850312156200071157600080fd5b600083015167ffffffffffffffff8111156200072c57600080fd5b6200073a85828601620006b9565b92505060206200074d85828601620006e6565b9150509250929050565b60006200076362000776565b9050620007718282620007ed565b919050565b6000604051905090565b600067ffffffffffffffff8211156200079e576200079d620008a0565b5b602082029050602081019050919050565b6000620007bc82620007c3565b9050919050565b600073ffffffffffffffffffffffffffffffffffffffff82169050919050565b6000819050919050565b620007f882620008cf565b810181811067ffffffffffffffff821117156200081a5762000819620008a0565b5b80604052505050565b60006200083082620007e3565b91507fffffffffffffffffffffffffffffffffffffffffffffffffffffffffffffffff82141562000866576200086562000871565b5b600182019050919050565b7f4e487b7100000000000000000000000000000000000000000000000000000000600052601160045260246000fd5b7f4e487b7100000000000000000000000000000000000000000000000000000000600052604160045260246000fd5b6000601f19601f8301169050919050565b620008eb81620007af565b8114620008f757600080fd5b50565b6200090581620007e3565b81146200091157600080fd5b50565b61478780620009246000396000f3fe6080604052600436106101665760003560e01c80638da5cb5b116100d1578063a5e047b81161008a578063cbd5d73f11610064578063cbd5d73f1461058a578063ce606ee0146105b5578063d89d1510146105e0578063f2fde38b1461061d57610166565b8063a5e047b8146104ea578063ab63385c14610529578063b651bb611461056c57610166565b80638da5cb5b146103b15780638efcf5c0146103dc5780639a9f83831461041a5780639b19251a14610445578063a094a03114610482578063a30da069146104ad57610166565b806356b8c7241161012357806356b8c7241461028b5780635de45813146102c85780636fd47b441461030757806370a0823114610332578063715018a61461036f57806376840b601461038657610166565b806318160ddd1461016b5780631d6a171114610196578063214405fc146101d357806327df565a146101fc57806327e235e3146102255780634e86eb1614610262575b600080fd5b34801561017757600080fd5b50610180610646565b60405161018d9190613b6f565b60405180910390f35b3480156101a257600080fd5b506101bd60048036038101906101b891906130c3565b61064c565b6040516101ca91906138b3565b60405180910390f35b3480156101df57600080fd5b506101fa60048036038101906101f59190613128565b61094e565b005b34801561020857600080fd5b50610223600480360381019061021e91906131d0565b6111b0565b005b34801561023157600080fd5b5061024c600480360381019061024791906130c3565b6116bd565b6040516102599190613b6f565b60405180910390f35b34801561026e57600080fd5b506102896004803603810190610284919061321f565b6116d5565b005b34801561029757600080fd5b506102b260048036038101906102ad9190613164565b6122d3565b6040516102bf91906138d5565b60405180910390f35b3480156102d457600080fd5b506102ef60048036038101906102ea91906130c3565b6127b4565b6040516102fe93929190613bc1565b60405180910390f35b34801561031357600080fd5b5061031c6127de565b6040516103299190613b6f565b60405180910390f35b34801561033e57600080fd5b50610359600480360381019061035491906130c3565b6127e4565b6040516103669190613b6f565b60405180910390f35b34801561037b57600080fd5b50610384612832565b005b34801561039257600080fd5b5061039b612846565b6040516103a89190613b6f565b60405180910390f35b3480156103bd57600080fd5b506103c661284c565b6040516103d39190613801565b60405180910390f35b3480156103e857600080fd5b5061040360048036038101906103fe91906130ec565b612875565b6040516104119291906138f0565b60405180910390f35b34801561042657600080fd5b5061042f612968565b60405161043c91906138d5565b60405180910390f35b34801561045157600080fd5b5061046c600480360381019061046791906130c3565b612971565b6040516104799190613b6f565b60405180910390f35b34801561048e57600080fd5b50610497612989565b6040516104a491906138d5565b60405180910390f35b3480156104b957600080fd5b506104d460048036038101906104cf91906130c3565b61299c565b6040516104e19190613b6f565b60405180910390f35b3480156104f657600080fd5b50610511600480360381019061050c9190613282565b6129b4565b60405161052093929190613b8a565b60405180910390f35b34801561053557600080fd5b50610550600480360381019061054b9190613128565b612a0e565b6040516105639796959493929190613919565b60405180910390f35b610574612b4f565b6040516105819190613891565b60405180910390f35b34801561059657600080fd5b5061059f612c18565b6040516105ac9190613b6f565b60405180910390f35b3480156105c157600080fd5b506105ca612c1e565b6040516105d79190613801565b60405180910390f35b3480156105ec57600080fd5b5061060760048036038101906106029190613282565b612c44565b6040516106149190613801565b60405180910390f35b34801561062957600080fd5b50610644600480360381019061063f91906130c3565b612c7a565b005b60015481565b6060600073ffffffffffffffffffffffffffffffffffffffff168273ffffffffffffffffffffffffffffffffffffffff1614156106be576040517f08c379a00000000000000000000000000000000000000000000000000000000081526004016106b590613b4f565b60405180910390fd5b600760008373ffffffffffffffffffffffffffffffffffffffff1673ffffffffffffffffffffffffffffffffffffffff168152602001908152602001600020805480602002602001604051908101604052809291908181526020016000905b8282101561094357838290600052602060002090600502016040518060e00160405290816000820160009054906101000a900460ff16600481111561078b577f4e487b7100000000000000000000000000000000000000000000000000000000600052602160045260246000fd5b60048111156107c3577f4e487b7100000000000000000000000000000000000000000000000000000000600052602160045260246000fd5b81526020016000820160019054906101000a900460ff161515151581526020016000820160029054906101000a900473ffffffffffffffffffffffffffffffffffffffff1673ffffffffffffffffffffffffffffffffffffffff1673ffffffffffffffffffffffffffffffffffffffff1681526020016001820154815260200160028201805461085290613dfb565b80601f016020809104026020016040519081016040528092919081815260200182805461087e90613dfb565b80156108cb5780601f106108a0576101008083540402835291602001916108cb565b820191906000526020600020905b8154815290600101906020018083116108ae57829003601f168201915b505050505081526020016003820160009054906101000a900473ffffffffffffffffffffffffffffffffffffffff1673ffffffffffffffffffffffffffffffffffffffff1673ffffffffffffffffffffffffffffffffffffffff1681526020016004820154815250508152602001906001019061071d565b505050509050919050565b600560009054906101000a900473ffffffffffffffffffffffffffffffffffffffff1673ffffffffffffffffffffffffffffffffffffffff163373ffffffffffffffffffffffffffffffffffffffff161415610d665760ff81106109e7576040517f08c379a00000000000000000000000000000000000000000000000000000000081526004016109de906139ef565b60405180910390fd5b80600860008473ffffffffffffffffffffffffffffffffffffffff1673ffffffffffffffffffffffffffffffffffffffff168152602001908152602001600020819055506003811115610ad45780600860008473ffffffffffffffffffffffffffffffffffffffff1673ffffffffffffffffffffffffffffffffffffffff1681526020019081526020016000206000828254610a839190613d27565b925050819055506003600860008473ffffffffffffffffffffffffffffffffffffffff1673ffffffffffffffffffffffffffffffffffffffff16815260200190815260200160002081905550610c30565b6001811415610b7d5780600860008473ffffffffffffffffffffffffffffffffffffffff1673ffffffffffffffffffffffffffffffffffffffff1681526020019081526020016000206000828254610b2c9190613d27565b925050819055506001600860008473ffffffffffffffffffffffffffffffffffffffff1673ffffffffffffffffffffffffffffffffffffffff16815260200190815260200160002081905550610c2f565b600081118015610b8d5750600381105b15610c2e5780600860008473ffffffffffffffffffffffffffffffffffffffff1673ffffffffffffffffffffffffffffffffffffffff1681526020019081526020016000206000828254610be19190613d27565b925050819055506002600860008473ffffffffffffffffffffffffffffffffffffffff1673ffffffffffffffffffffffffffffffffffffffff168152602001908152602001600020819055505b5b5b600060105490506001811415610c9157600060108190555080601160008573ffffffffffffffffffffffffffffffffffffffff1673ffffffffffffffffffffffffffffffffffffffff16815260200190815260200160002081905550610d27565b6000811415610ceb57600160108190555080601160008573ffffffffffffffffffffffffffffffffffffffff1673ffffffffffffffffffffffffffffffffffffffff16815260200190815260200160002081905550610d26565b6040517f08c379a0000000000000000000000000000000000000000000000000000000008152600401610d1d90613a4f565b60405180910390fd5b5b7f62c1e066774519db9fe35767c15fc33df2f016675b7cc0c330ed185f286a2d528383604051610d5892919061381c565b60405180910390a1506111ac565b600960003373ffffffffffffffffffffffffffffffffffffffff1673ffffffffffffffffffffffffffffffffffffffff16815260200190815260200160002060009054906101000a900460ff161561117a5760ff8110610dfb576040517f08c379a0000000000000000000000000000000000000000000000000000000008152600401610df2906139ef565b60405180910390fd5b80600860008473ffffffffffffffffffffffffffffffffffffffff1673ffffffffffffffffffffffffffffffffffffffff168152602001908152602001600020819055506003811115610ee85780600860008473ffffffffffffffffffffffffffffffffffffffff1673ffffffffffffffffffffffffffffffffffffffff1681526020019081526020016000206000828254610e979190613d27565b925050819055506003600860008473ffffffffffffffffffffffffffffffffffffffff1673ffffffffffffffffffffffffffffffffffffffff16815260200190815260200160002081905550611044565b6001811415610f915780600860008473ffffffffffffffffffffffffffffffffffffffff1673ffffffffffffffffffffffffffffffffffffffff1681526020019081526020016000206000828254610f409190613d27565b925050819055506001600860008473ffffffffffffffffffffffffffffffffffffffff1673ffffffffffffffffffffffffffffffffffffffff16815260200190815260200160002081905550611043565b600081118015610fa15750600381105b156110425780600860008473ffffffffffffffffffffffffffffffffffffffff1673ffffffffffffffffffffffffffffffffffffffff1681526020019081526020016000206000828254610ff59190613d27565b925050819055506002600860008473ffffffffffffffffffffffffffffffffffffffff1673ffffffffffffffffffffffffffffffffffffffff168152602001908152602001600020819055505b5b5b6000601054905060018114156110a557600060108190555080601160008573ffffffffffffffffffffffffffffffffffffffff1673ffffffffffffffffffffffffffffffffffffffff1681526020019081526020016000208190555061113b565b60008114156110ff57600160108190555080601160008573ffffffffffffffffffffffffffffffffffffffff1673ffffffffffffffffffffffffffffffffffffffff1681526020019081526020016000208190555061113a565b6040517f08c379a000000000000000000000000000000000000000000000000000000000815260040161113190613a4f565b60405180910390fd5b5b7f62c1e066774519db9fe35767c15fc33df2f016675b7cc0c330ed185f286a2d52838360405161116c92919061381c565b60405180910390a1506111ac565b6040517f61685c2b00000000000000000000000000000000000000000000000000000000815260040160405180910390fd5b5050565b338073ffffffffffffffffffffffffffffffffffffffff163373ffffffffffffffffffffffffffffffffffffffff161461121f576040517f08c379a000000000000000000000000000000000000000000000000000000000815260040161121690613b0f565b60405180910390fd5b6000600860003373ffffffffffffffffffffffffffffffffffffffff1673ffffffffffffffffffffffffffffffffffffffff168152602001908152602001600020549050600081116112a6576040517f08c379a000000000000000000000000000000000000000000000000000000000815260040161129d90613a2f565b60405180910390fd5b600481106112e9576040517f08c379a00000000000000000000000000000000000000000000000000000000081526004016112e0906139cf565b60405180910390fd5b600033905084600360008373ffffffffffffffffffffffffffffffffffffffff1673ffffffffffffffffffffffffffffffffffffffff168152602001908152602001600020541015611370576040517f08c379a000000000000000000000000000000000000000000000000000000000815260040161136790613b2f565b60405180910390fd5b600385116113b3576040517f08c379a00000000000000000000000000000000000000000000000000000000081526004016113aa90613a6f565b60405180910390fd5b84600360008373ffffffffffffffffffffffffffffffffffffffff1673ffffffffffffffffffffffffffffffffffffffff16815260200190815260200160002060008282546114029190613d27565b9250508190555084600360008873ffffffffffffffffffffffffffffffffffffffff1673ffffffffffffffffffffffffffffffffffffffff16815260200190815260200160002060008282546114589190613cd1565b92505081905550600860008273ffffffffffffffffffffffffffffffffffffffff1673ffffffffffffffffffffffffffffffffffffffff16815260200190815260200160002054600360008373ffffffffffffffffffffffffffffffffffffffff1673ffffffffffffffffffffffffffffffffffffffff16815260200190815260200160002060008282546114ed9190613cd1565b92505081905550600860008273ffffffffffffffffffffffffffffffffffffffff1673ffffffffffffffffffffffffffffffffffffffff16815260200190815260200160002054600360008873ffffffffffffffffffffffffffffffffffffffff1673ffffffffffffffffffffffffffffffffffffffff16815260200190815260200160002060008282546115829190613d27565b92505081905550604051806060016040528060008152602001600081526020016000815250601260008373ffffffffffffffffffffffffffffffffffffffff1673ffffffffffffffffffffffffffffffffffffffff1681526020019081526020016000206000820151816000015560208201518160010155604082015181600201559050506000601260008373ffffffffffffffffffffffffffffffffffffffff1673ffffffffffffffffffffffffffffffffffffffff16815260200190815260200160002090508460000151816000018190555084602001518160010181905550846040015181600201819055508673ffffffffffffffffffffffffffffffffffffffff167f98eaee7299e9cbfa56cf530fd3a0c6dfa0ccddf4f837b8f025651ad9594647b360405160405180910390a250505050505050565b60036020528060005260406000206000915090505481565b600560009054906101000a900473ffffffffffffffffffffffffffffffffffffffff1673ffffffffffffffffffffffffffffffffffffffff163373ffffffffffffffffffffffffffffffffffffffff161415611cba576000831161176e576040517f08c379a0000000000000000000000000000000000000000000000000000000008152600401611765906139af565b60405180910390fd5b600082116117b1576040517f08c379a00000000000000000000000000000000000000000000000000000000081526004016117a890613a8f565b60405180910390fd5b600073ffffffffffffffffffffffffffffffffffffffff168473ffffffffffffffffffffffffffffffffffffffff161415611821576040517f08c379a000000000000000000000000000000000000000000000000000000000815260040161181890613acf565b60405180910390fd5b600033905060005b600760008773ffffffffffffffffffffffffffffffffffffffff1673ffffffffffffffffffffffffffffffffffffffff16815260200190815260200160002080549050811015611cb35784600760008873ffffffffffffffffffffffffffffffffffffffff1673ffffffffffffffffffffffffffffffffffffffff16815260200190815260200160002082815481106118eb577f4e487b7100000000000000000000000000000000000000000000000000000000600052603260045260246000fd5b9060005260206000209060050201600101541415611ca0576001600760008873ffffffffffffffffffffffffffffffffffffffff1673ffffffffffffffffffffffffffffffffffffffff168152602001908152602001600020828154811061197c577f4e487b7100000000000000000000000000000000000000000000000000000000600052603260045260246000fd5b906000526020600020906005020160000160016101000a81548160ff02191690831515021790555085600760008873ffffffffffffffffffffffffffffffffffffffff1673ffffffffffffffffffffffffffffffffffffffff1681526020019081526020016000208281548110611a1c577f4e487b7100000000000000000000000000000000000000000000000000000000600052603260045260246000fd5b906000526020600020906005020160030160006101000a81548173ffffffffffffffffffffffffffffffffffffffff021916908373ffffffffffffffffffffffffffffffffffffffff16021790555082600760008873ffffffffffffffffffffffffffffffffffffffff1673ffffffffffffffffffffffffffffffffffffffff1681526020019081526020016000208281548110611ae3577f4e487b7100000000000000000000000000000000000000000000000000000000600052603260045260246000fd5b906000526020600020906005020160000160006101000a81548160ff02191690836004811115611b3c577f4e487b7100000000000000000000000000000000000000000000000000000000600052602160045260246000fd5b021790555083600760008873ffffffffffffffffffffffffffffffffffffffff1673ffffffffffffffffffffffffffffffffffffffff1681526020019081526020016000208281548110611bb9577f4e487b7100000000000000000000000000000000000000000000000000000000600052603260045260246000fd5b906000526020600020906005020160040181905550611bd9866001612875565b50507ff41efc8c6b66b2a03b14fd69b985ad19a0b9245f24936163018e9ad06d4c143e828686600760008b73ffffffffffffffffffffffffffffffffffffffff1673ffffffffffffffffffffffffffffffffffffffff1681526020019081526020016000208581548110611c76577f4e487b7100000000000000000000000000000000000000000000000000000000600052603260045260246000fd5b9060005260206000209060050201600201604051611c979493929190613845565b60405180910390a15b8080611cab90613e5e565b915050611829565b50506122cd565b600960003373ffffffffffffffffffffffffffffffffffffffff1673ffffffffffffffffffffffffffffffffffffffff16815260200190815260200160002060009054906101000a900460ff161561229b5760008311611d4f576040517f08c379a0000000000000000000000000000000000000000000000000000000008152600401611d46906139af565b60405180910390fd5b60008211611d92576040517f08c379a0000000000000000000000000000000000000000000000000000000008152600401611d8990613a8f565b60405180910390fd5b600073ffffffffffffffffffffffffffffffffffffffff168473ffffffffffffffffffffffffffffffffffffffff161415611e02576040517f08c379a0000000000000000000000000000000000000000000000000000000008152600401611df990613acf565b60405180910390fd5b600033905060005b600760008773ffffffffffffffffffffffffffffffffffffffff1673ffffffffffffffffffffffffffffffffffffffff168152602001908152602001600020805490508110156122945784600760008873ffffffffffffffffffffffffffffffffffffffff1673ffffffffffffffffffffffffffffffffffffffff1681526020019081526020016000208281548110611ecc577f4e487b7100000000000000000000000000000000000000000000000000000000600052603260045260246000fd5b9060005260206000209060050201600101541415612281576001600760008873ffffffffffffffffffffffffffffffffffffffff1673ffffffffffffffffffffffffffffffffffffffff1681526020019081526020016000208281548110611f5d577f4e487b7100000000000000000000000000000000000000000000000000000000600052603260045260246000fd5b906000526020600020906005020160000160016101000a81548160ff02191690831515021790555085600760008873ffffffffffffffffffffffffffffffffffffffff1673ffffffffffffffffffffffffffffffffffffffff1681526020019081526020016000208281548110611ffd577f4e487b7100000000000000000000000000000000000000000000000000000000600052603260045260246000fd5b906000526020600020906005020160030160006101000a81548173ffffffffffffffffffffffffffffffffffffffff021916908373ffffffffffffffffffffffffffffffffffffffff16021790555082600760008873ffffffffffffffffffffffffffffffffffffffff1673ffffffffffffffffffffffffffffffffffffffff16815260200190815260200160002082815481106120c4577f4e487b7100000000000000000000000000000000000000000000000000000000600052603260045260246000fd5b906000526020600020906005020160000160006101000a81548160ff0219169083600481111561211d577f4e487b7100000000000000000000000000000000000000000000000000000000600052602160045260246000fd5b021790555083600760008873ffffffffffffffffffffffffffffffffffffffff1673ffffffffffffffffffffffffffffffffffffffff168152602001908152602001600020828154811061219a577f4e487b7100000000000000000000000000000000000000000000000000000000600052603260045260246000fd5b9060005260206000209060050201600401819055506121ba866001612875565b50507ff41efc8c6b66b2a03b14fd69b985ad19a0b9245f24936163018e9ad06d4c143e828686600760008b73ffffffffffffffffffffffffffffffffffffffff1673ffffffffffffffffffffffffffffffffffffffff1681526020019081526020016000208581548110612257577f4e487b7100000000000000000000000000000000000000000000000000000000600052603260045260246000fd5b90600052602060002090600502016002016040516122789493929190613845565b60405180910390a15b808061228c90613e5e565b915050611e0a565b50506122cd565b6040517f61685c2b00000000000000000000000000000000000000000000000000000000815260040160405180910390fd5b50505050565b60008033905084600360008373ffffffffffffffffffffffffffffffffffffffff1673ffffffffffffffffffffffffffffffffffffffff16815260200190815260200160002054101561235b576040517f08c379a000000000000000000000000000000000000000000000000000000000815260040161235290613a0f565b60405180910390fd5b600984849050106123a1576040517f08c379a000000000000000000000000000000000000000000000000000000000815260040161239890613aaf565b60405180910390fd5b84600360008373ffffffffffffffffffffffffffffffffffffffff1673ffffffffffffffffffffffffffffffffffffffff16815260200190815260200160002060008282546123f09190613d27565b9250508190555084600360008873ffffffffffffffffffffffffffffffffffffffff1673ffffffffffffffffffffffffffffffffffffffff16815260200190815260200160002060008282546124469190613cd1565b925050819055507f69ca02dd4edd7bf0a4abb9ed3b7af3f14778db5d61921c7dc7cd545266326de2868660405161247e92919061381c565b60405180910390a161248e612e48565b60008160a0019073ffffffffffffffffffffffffffffffffffffffff16908173ffffffffffffffffffffffffffffffffffffffff16815250506000816020019015159081151581525050600181600001906004811115612517577f4e487b7100000000000000000000000000000000000000000000000000000000600052602160045260246000fd5b90816004811115612551577f4e487b7100000000000000000000000000000000000000000000000000000000600052602160045260246000fd5b8152505086816040019073ffffffffffffffffffffffffffffffffffffffff16908173ffffffffffffffffffffffffffffffffffffffff1681525050858160c001818152505084848080601f016020809104026020016040519081016040528093929190818152602001838380828437600081840152601f19601f8201169050808301925050505050505081608001819052506002600081546125f390613e5e565b919050819055816060018181525050600760008373ffffffffffffffffffffffffffffffffffffffff1673ffffffffffffffffffffffffffffffffffffffff16815260200190815260200160002081908060018154018082558091505060019003906000526020600020906005020160009091909190915060008201518160000160006101000a81548160ff021916908360048111156126bc577f4e487b7100000000000000000000000000000000000000000000000000000000600052602160045260246000fd5b021790555060208201518160000160016101000a81548160ff02191690831515021790555060408201518160000160026101000a81548173ffffffffffffffffffffffffffffffffffffffff021916908373ffffffffffffffffffffffffffffffffffffffff16021790555060608201518160010155608082015181600201908051906020019061274e929190612eeb565b5060a08201518160030160006101000a81548173ffffffffffffffffffffffffffffffffffffffff021916908373ffffffffffffffffffffffffffffffffffffffff16021790555060c08201518160040155505060006004541192505050949350505050565b60126020528060005260406000206000915090508060000154908060010154908060020154905083565b60065481565b600080600360008473ffffffffffffffffffffffffffffffffffffffff1673ffffffffffffffffffffffffffffffffffffffff16815260200190815260200160002054905080915050919050565b61283a612cfe565b6128446000612d7c565b565b60025481565b60008060009054906101000a900473ffffffffffffffffffffffffffffffffffffffff16905090565b600080612880612f71565b438160400181815250504281600001818152505084816020019073ffffffffffffffffffffffffffffffffffffffff16908173ffffffffffffffffffffffffffffffffffffffff1681525050600f8190806001815401808255809150506001900390600052602060002090600302016000909190919091506000820151816000015560208201518160010160006101000a81548173ffffffffffffffffffffffffffffffffffffffff021916908373ffffffffffffffffffffffffffffffffffffffff1602179055506040820151816002015550506000600454118492509250509250929050565b60006001905090565b60086020528060005260406000206000915090505481565b600560149054906101000a900460ff1681565b60116020528060005260406000206000915090505481565b600f81815481106129c457600080fd5b90600052602060002090600302016000915090508060000154908060010160009054906101000a900473ffffffffffffffffffffffffffffffffffffffff16908060020154905083565b60076020528160005260406000208181548110612a2a57600080fd5b9060005260206000209060050201600091509150508060000160009054906101000a900460ff16908060000160019054906101000a900460ff16908060000160029054906101000a900473ffffffffffffffffffffffffffffffffffffffff1690806001015490806002018054612aa090613dfb565b80601f0160208091040260200160405190810160405280929190818152602001828054612acc90613dfb565b8015612b195780601f10612aee57610100808354040283529160200191612b19565b820191906000526020600020905b815481529060010190602001808311612afc57829003601f168201915b5050505050908060030160009054906101000a900473ffffffffffffffffffffffffffffffffffffffff16908060040154905087565b6060600f805480602002602001604051908101604052809291908181526020016000905b82821015612c0f5783829060005260206000209060030201604051806060016040529081600082015481526020016001820160009054906101000a900473ffffffffffffffffffffffffffffffffffffffff1673ffffffffffffffffffffffffffffffffffffffff1673ffffffffffffffffffffffffffffffffffffffff16815260200160028201548152505081526020019060010190612b73565b50505050905090565b60045481565b600560009054906101000a900473ffffffffffffffffffffffffffffffffffffffff1681565b600a8160058110612c5457600080fd5b016000915054906101000a900473ffffffffffffffffffffffffffffffffffffffff1681565b612c82612cfe565b600073ffffffffffffffffffffffffffffffffffffffff168173ffffffffffffffffffffffffffffffffffffffff161415612cf2576040517f08c379a0000000000000000000000000000000000000000000000000000000008152600401612ce99061398f565b60405180910390fd5b612cfb81612d7c565b50565b612d06612e40565b73ffffffffffffffffffffffffffffffffffffffff16612d2461284c565b73ffffffffffffffffffffffffffffffffffffffff1614612d7a576040517f08c379a0000000000000000000000000000000000000000000000000000000008152600401612d7190613aef565b60405180910390fd5b565b60008060009054906101000a900473ffffffffffffffffffffffffffffffffffffffff169050816000806101000a81548173ffffffffffffffffffffffffffffffffffffffff021916908373ffffffffffffffffffffffffffffffffffffffff1602179055508173ffffffffffffffffffffffffffffffffffffffff168173ffffffffffffffffffffffffffffffffffffffff167f8be0079c531659141344cd1fd0a4f28419497f9722a3daafe3b4186f6b6457e060405160405180910390a35050565b600033905090565b6040518060e0016040528060006004811115612e8d577f4e487b7100000000000000000000000000000000000000000000000000000000600052602160045260246000fd5b8152602001600015158152602001600073ffffffffffffffffffffffffffffffffffffffff1681526020016000815260200160608152602001600073ffffffffffffffffffffffffffffffffffffffff168152602001600081525090565b828054612ef790613dfb565b90600052602060002090601f016020900481019282612f195760008555612f60565b82601f10612f3257805160ff1916838001178555612f60565b82800160010185558215612f60579182015b82811115612f5f578251825591602001919060010190612f44565b5b509050612f6d9190612fa8565b5090565b604051806060016040528060008152602001600073ffffffffffffffffffffffffffffffffffffffff168152602001600081525090565b5b80821115612fc1576000816000905550600101612fa9565b5090565b600081359050612fd4816146fc565b92915050565b600081359050612fe981614713565b92915050565b600081359050612ffe8161472a565b92915050565b60008083601f84011261301657600080fd5b8235905067ffffffffffffffff81111561302f57600080fd5b60208301915083600182028301111561304757600080fd5b9250929050565b60006060828403121561306057600080fd5b61306a6060613bf8565b9050600061307a848285016130ae565b600083015250602061308e848285016130ae565b60208301525060406130a2848285016130ae565b60408301525092915050565b6000813590506130bd8161473a565b92915050565b6000602082840312156130d557600080fd5b60006130e384828501612fc5565b91505092915050565b600080604083850312156130ff57600080fd5b600061310d85828601612fc5565b925050602061311e85828601612fda565b9150509250929050565b6000806040838503121561313b57600080fd5b600061314985828601612fc5565b925050602061315a858286016130ae565b9150509250929050565b6000806000806060858703121561317a57600080fd5b600061318887828801612fc5565b9450506020613199878288016130ae565b935050604085013567ffffffffffffffff8111156131b657600080fd5b6131c287828801613004565b925092505092959194509250565b600080600060a084860312156131e557600080fd5b60006131f386828701612fc5565b9350506020613204868287016130ae565b92505060406132158682870161304e565b9150509250925092565b6000806000806080858703121561323557600080fd5b600061324387828801612fc5565b9450506020613254878288016130ae565b9350506040613265878288016130ae565b925050606061327687828801612fef565b91505092959194509250565b60006020828403121561329457600080fd5b60006132a2848285016130ae565b91505092915050565b60006132b78383613705565b60608301905092915050565b60006132cf8383613747565b905092915050565b6132e081613d5b565b82525050565b6132ef81613d5b565b82525050565b600061330082613c52565b61330a8185613c8d565b935061331583613c1d565b8060005b8381101561334657815161332d88826132ab565b975061333883613c73565b925050600181019050613319565b5085935050505092915050565b600061335e82613c5d565b6133688185613c9e565b93508360208202850161337a85613c2d565b8060005b858110156133b6578484038952815161339785826132c3565b94506133a283613c80565b925060208a0199505060018101905061337e565b50829750879550505050505092915050565b6133d181613d6d565b82525050565b6133e081613d6d565b82525050565b6133ef81613db6565b82525050565b6133fe81613db6565b82525050565b600061340f82613c68565b6134198185613caf565b9350613429818560208601613dc8565b61343281613f63565b840191505092915050565b600061344882613c68565b6134528185613cc0565b9350613462818560208601613dc8565b61346b81613f63565b840191505092915050565b6000815461348381613dfb565b61348d8186613cc0565b945060018216600081146134a857600181146134ba576134ed565b60ff19831686526020860193506134ed565b6134c385613c3d565b60005b838110156134e5578154818901526001820191506020810190506134c6565b808801955050505b50505092915050565b6000613503602683613cc0565b915061350e82613f74565b604082019050919050565b6000613526604283613cc0565b915061353182613fc3565b606082019050919050565b600061354a61010883613cc0565b915061355582614038565b61012082019050919050565b600061356e605383613cc0565b915061357982614192565b606082019050919050565b6000613591604283613cc0565b915061359c82614207565b606082019050919050565b60006135b4605e83613cc0565b91506135bf8261427c565b606082019050919050565b60006135d7602583613cc0565b91506135e2826142f1565b604082019050919050565b60006135fa605083613cc0565b915061360582614340565b606082019050919050565b600061361d604683613cc0565b9150613628826143b5565b606082019050919050565b6000613640606983613cc0565b915061364b8261442a565b608082019050919050565b6000613663605983613cc0565b915061366e826144c5565b606082019050919050565b6000613686602083613cc0565b91506136918261453a565b602082019050919050565b60006136a9607783613cc0565b91506136b482614563565b608082019050919050565b60006136cc604883613cc0565b91506136d7826145fe565b606082019050919050565b60006136ef604d83613cc0565b91506136fa82614673565b606082019050919050565b60608201600082015161371b60008501826137e3565b50602082015161372e60208501826132d7565b50604082015161374160408501826137e3565b50505050565b600060e08301600083015161375f60008601826133e6565b50602083015161377260208601826133c8565b50604083015161378560408601826132d7565b50606083015161379860608601826137e3565b50608083015184820360808601526137b08282613404565b91505060a08301516137c560a08601826132d7565b5060c08301516137d860c08601826137e3565b508091505092915050565b6137ec81613dac565b82525050565b6137fb81613dac565b82525050565b600060208201905061381660008301846132e6565b92915050565b600060408201905061383160008301856132e6565b61383e60208301846137f2565b9392505050565b600060808201905061385a60008301876132e6565b61386760208301866137f2565b61387460408301856137f2565b81810360608301526138868184613476565b905095945050505050565b600060208201905081810360008301526138ab81846132f5565b905092915050565b600060208201905081810360008301526138cd8184613353565b905092915050565b60006020820190506138ea60008301846133d7565b92915050565b600060408201905061390560008301856133d7565b61391260208301846133d7565b9392505050565b600060e08201905061392e600083018a6133f5565b61393b60208301896133d7565b61394860408301886132e6565b61395560608301876137f2565b8181036080830152613967818661343d565b905061397660a08301856132e6565b61398360c08301846137f2565b98975050505050505050565b600060208201905081810360008301526139a8816134f6565b9050919050565b600060208201905081810360008301526139c881613519565b9050919050565b600060208201905081810360008301526139e88161353c565b9050919050565b60006020820190508181036000830152613a0881613561565b9050919050565b60006020820190508181036000830152613a2881613584565b9050919050565b60006020820190508181036000830152613a48816135a7565b9050919050565b60006020820190508181036000830152613a68816135ca565b9050919050565b60006020820190508181036000830152613a88816135ed565b9050919050565b60006020820190508181036000830152613aa881613610565b9050919050565b60006020820190508181036000830152613ac881613633565b9050919050565b60006020820190508181036000830152613ae881613656565b9050919050565b60006020820190508181036000830152613b0881613679565b9050919050565b60006020820190508181036000830152613b288161369c565b9050919050565b60006020820190508181036000830152613b48816136bf565b9050919050565b60006020820190508181036000830152613b68816136e2565b9050919050565b6000602082019050613b8460008301846137f2565b92915050565b6000606082019050613b9f60008301866137f2565b613bac60208301856132e6565b613bb960408301846137f2565b949350505050565b6000606082019050613bd660008301866137f2565b613be360208301856137f2565b613bf060408301846137f2565b949350505050565b6000613c02613c13565b9050613c0e8282613e2d565b919050565b6000604051905090565b6000819050602082019050919050565b6000819050602082019050919050565b60008190508160005260206000209050919050565b600081519050919050565b600081519050919050565b600081519050919050565b6000602082019050919050565b6000602082019050919050565b600082825260208201905092915050565b600082825260208201905092915050565b600082825260208201905092915050565b600082825260208201905092915050565b6000613cdc82613dac565b9150613ce783613dac565b9250827fffffffffffffffffffffffffffffffffffffffffffffffffffffffffffffffff03821115613d1c57613d1b613ea7565b5b828201905092915050565b6000613d3282613dac565b9150613d3d83613dac565b925082821015613d5057613d4f613ea7565b5b828203905092915050565b6000613d6682613d8c565b9050919050565b60008115159050919050565b6000819050613d87826146e8565b919050565b600073ffffffffffffffffffffffffffffffffffffffff82169050919050565b6000819050919050565b6000613dc182613d79565b9050919050565b60005b83811015613de6578082015181840152602081019050613dcb565b83811115613df5576000848401525b50505050565b60006002820490506001821680613e1357607f821691505b60208210811415613e2757613e26613f05565b5b50919050565b613e3682613f63565b810181811067ffffffffffffffff82111715613e5557613e54613f34565b5b80604052505050565b6000613e6982613dac565b91507fffffffffffffffffffffffffffffffffffffffffffffffffffffffffffffffff821415613e9c57613e9b613ea7565b5b600182019050919050565b7f4e487b7100000000000000000000000000000000000000000000000000000000600052601160045260246000fd5b7f4e487b7100000000000000000000000000000000000000000000000000000000600052602160045260246000fd5b7f4e487b7100000000000000000000000000000000000000000000000000000000600052602260045260246000fd5b7f4e487b7100000000000000000000000000000000000000000000000000000000600052604160045260246000fd5b6000601f19601f8301169050919050565b7f4f776e61626c653a206e6577206f776e657220697320746865207a65726f206160008201527f6464726573730000000000000000000000000000000000000000000000000000602082015250565b7f47617320436f6e7472616374202d20557064617465205061796d656e7420667560008201527f6e6374696f6e202d204944206d7573742062652067726561746572207468616e60208201527f2030000000000000000000000000000000000000000000000000000000000000604082015250565b7f47617320436f6e747261637420436865636b496657686974654c69737465642060008201527f6d6f646966696572203a207265766572742068617070656e656420626563617560208201527f73652074686520757365722773207469657220697320696e636f72726563742c60408201527f2069742063616e6e6f74206265206f766572203420617320746865206f6e6c7960608201527f20746965722077652068617665206172653a20312c20322c20333b207468657260808201527f666f7265203420697320616e20696e76616c6964207469657220666f7220746860a08201527f6520776869746c697374206f66207468697320636f6e74726163742e206d616b60c08201527f65207375726520776869746c697374207469657273207765726520736574206360e08201527f6f72726563746c7900000000000000000000000000000000000000000000000061010082015250565b7f47617320436f6e7472616374202d20616464546f57686974656c69737420667560008201527f6e6374696f6e202d202074696572206c6576656c2073686f756c64206e6f742060208201527f62652067726561746572207468616e2032353500000000000000000000000000604082015250565b7f47617320436f6e7472616374202d205472616e736665722066756e6374696f6e60008201527f202d2053656e6465722068617320696e73756666696369656e742042616c616e60208201527f6365000000000000000000000000000000000000000000000000000000000000604082015250565b7f47617320436f6e747261637420436865636b496657686974654c69737465642060008201527f6d6f646966696572203a207265766572742068617070656e656420626563617560208201527f7365207468652075736572206973206e6f742077686974656c69737465640000604082015250565b7f436f6e7472616374206861636b65642c20696d706f7369626c652c2063616c6c60008201527f2068656c70000000000000000000000000000000000000000000000000000000602082015250565b7f47617320436f6e7472616374202d2077686974655472616e736665727320667560008201527f6e6374696f6e202d20616d6f756e7420746f2073656e64206861766520746f2060208201527f626520626967676572207468616e203300000000000000000000000000000000604082015250565b7f47617320436f6e7472616374202d20557064617465205061796d656e7420667560008201527f6e6374696f6e202d20416d6f756e74206d75737420626520677265617465722060208201527f7468616e20300000000000000000000000000000000000000000000000000000604082015250565b7f47617320436f6e7472616374202d205472616e736665722066756e6374696f6e60008201527f202d202054686520726563697069656e74206e616d6520697320746f6f206c6f60208201527f6e672c2074686572652069732061206d6178206c656e677468206f662038206360408201527f6861726163746572730000000000000000000000000000000000000000000000606082015250565b7f47617320436f6e7472616374202d20557064617465205061796d656e7420667560008201527f6e6374696f6e202d2041646d696e6973747261746f72206d757374206861766560208201527f20612076616c6964206e6f6e207a65726f206164647265737300000000000000604082015250565b7f4f776e61626c653a2063616c6c6572206973206e6f7420746865206f776e6572600082015250565b7f47617320436f6e747261637420436865636b496657686974654c69737465642060008201527f6d6f646966696572203a207265766572742068617070656e656420626563617560208201527f736520746865206f726967696e61746f72206f6620746865207472616e73616360408201527f74696f6e20776173206e6f74207468652073656e646572000000000000000000606082015250565b7f47617320436f6e7472616374202d2077686974655472616e736665727320667560008201527f6e6374696f6e202d2053656e6465722068617320696e73756666696369656e7460208201527f2042616c616e6365000000000000000000000000000000000000000000000000604082015250565b7f47617320436f6e7472616374202d206765745061796d656e74732066756e637460008201527f696f6e202d2055736572206d757374206861766520612076616c6964206e6f6e60208201527f207a65726f206164647265737300000000000000000000000000000000000000604082015250565b600581106146f9576146f8613ed6565b5b50565b61470581613d5b565b811461471057600080fd5b50565b61471c81613d6d565b811461472757600080fd5b50565b6005811061473757600080fd5b50565b61474381613dac565b811461474e57600080fd5b5056fea264697066735822122047c2b8aead7837d9aeed7b497724fd8850fbfaeff79a2e1433a719a7d909057a64736f6c63430008040033",
  "linkReferences": {},
  "deployedLinkReferences": {}
}